{
  "_format": "hh-sol-artifact-1",
  "contractName": "BoxStatus",
  "sourceName": "contracts/BoxStatus.sol",
  "abi": [
    {
      "inputs": [],
      "stateMutability": "nonpayable",
      "type": "constructor"
    },
    {
      "inputs": [],
      "name": "AvailableBuyer",
      "type": "error"
    },
    {
      "inputs": [],
      "name": "Blacklisted",
      "type": "error"
    },
    {
      "inputs": [],
      "name": "DeadlineNotOver",
      "type": "error"
    },
    {
      "inputs": [],
      "name": "DeadlineOver",
      "type": "error"
    },
    {
      "inputs": [],
      "name": "InvalidAuctionTime",
      "type": "error"
    },
    {
      "inputs": [],
      "name": "InvalidCaller",
      "type": "error"
    },
    {
      "inputs": [],
      "name": "InvalidContractCaller",
      "type": "error"
    },
    {
      "inputs": [],
      "name": "InvalidImplementation",
      "type": "error"
    },
    {
      "inputs": [],
      "name": "InvalidStatus",
      "type": "error"
    },
    {
      "inputs": [],
      "name": "NotAdmin",
      "type": "error"
    },
    {
      "inputs": [],
      "name": "NotAdminOrDAO",
      "type": "error"
    },
    {
      "inputs": [],
      "name": "NotBuyer",
      "type": "error"
    },
    {
      "inputs": [],
      "name": "NotMinter",
      "type": "error"
    },
    {
      "inputs": [],
      "name": "NotOwner",
      "type": "error"
    },
    {
      "inputs": [],
      "name": "NotSeller",
      "type": "error"
    },
    {
      "inputs": [],
      "name": "ZeroAddress",
      "type": "error"
    },
    {
      "anonymous": false,
      "inputs": [
        {
          "indexed": false,
          "internalType": "uint256",
          "name": "tokenId_",
          "type": "uint256"
        },
        {
          "indexed": false,
          "internalType": "uint256",
          "name": "price_",
          "type": "uint256"
        }
      ],
      "name": "Auctioning",
      "type": "event"
    },
    {
      "anonymous": false,
      "inputs": [
        {
          "indexed": false,
          "internalType": "uint256",
          "name": "tokenId_",
          "type": "uint256"
        }
      ],
      "name": "Complete",
      "type": "event"
    },
    {
      "anonymous": false,
      "inputs": [
        {
          "indexed": false,
          "internalType": "uint256",
          "name": "tokenId_",
          "type": "uint256"
        }
      ],
      "name": "Deliver",
      "type": "event"
    },
    {
      "anonymous": false,
      "inputs": [
        {
          "indexed": false,
          "internalType": "uint256",
          "name": "tokenId_",
          "type": "uint256"
        }
      ],
      "name": "Refunding",
      "type": "event"
    },
    {
      "anonymous": false,
      "inputs": [
        {
          "indexed": false,
          "internalType": "uint256",
          "name": "tokenId_",
          "type": "uint256"
        },
        {
          "indexed": false,
          "internalType": "uint256",
          "name": "price_",
          "type": "uint256"
        }
      ],
      "name": "Selling",
      "type": "event"
    },
    {
      "inputs": [],
      "name": "Admin",
      "outputs": [
        {
          "internalType": "address",
          "name": "",
          "type": "address"
        }
      ],
      "stateMutability": "view",
      "type": "function"
    },
    {
      "inputs": [],
      "name": "Implementation",
      "outputs": [
        {
          "internalType": "address",
          "name": "",
          "type": "address"
        }
      ],
      "stateMutability": "view",
      "type": "function"
    },
    {
      "inputs": [
        {
          "internalType": "uint256",
          "name": "tokenId_",
          "type": "uint256"
        },
        {
          "internalType": "string",
          "name": "fileCID_",
          "type": "string"
        },
        {
          "internalType": "string",
          "name": "password_",
          "type": "string"
        }
      ],
      "name": "PublicBuyer",
      "outputs": [],
      "stateMutability": "nonpayable",
      "type": "function"
    },
    {
      "inputs": [
        {
          "internalType": "uint256",
          "name": "tokenId_",
          "type": "uint256"
        },
        {
          "internalType": "string",
          "name": "fileCID_",
          "type": "string"
        },
        {
          "internalType": "string",
          "name": "password_",
          "type": "string"
        }
      ],
      "name": "PublicNoBuyer",
      "outputs": [],
      "stateMutability": "nonpayable",
      "type": "function"
    },
    {
      "inputs": [
        {
          "internalType": "uint256",
          "name": "tokenId_",
          "type": "uint256"
        },
        {
          "internalType": "string",
          "name": "fileCID_",
          "type": "string"
        },
        {
          "internalType": "string",
          "name": "password_",
          "type": "string"
        }
      ],
      "name": "PublicOverDeadline",
      "outputs": [],
      "stateMutability": "nonpayable",
      "type": "function"
    },
    {
      "inputs": [
        {
          "internalType": "uint256",
          "name": "tokenId_",
          "type": "uint256"
        }
      ],
      "name": "agreeRefund",
      "outputs": [],
      "stateMutability": "nonpayable",
      "type": "function"
    },
    {
      "inputs": [
        {
          "internalType": "uint256",
          "name": "tokenId_",
          "type": "uint256"
        },
        {
          "internalType": "uint256",
          "name": "price_",
          "type": "uint256"
        }
      ],
      "name": "auction",
      "outputs": [],
      "stateMutability": "nonpayable",
      "type": "function"
    },
    {
      "inputs": [
        {
          "internalType": "uint256",
          "name": "tokenId_",
          "type": "uint256"
        }
      ],
      "name": "bid",
      "outputs": [
        {
          "internalType": "uint256",
          "name": "",
          "type": "uint256"
        }
      ],
      "stateMutability": "nonpayable",
      "type": "function"
    },
    {
      "inputs": [
        {
          "internalType": "uint256",
          "name": "tokenId_",
          "type": "uint256"
        }
      ],
      "name": "cancelRefund",
      "outputs": [],
      "stateMutability": "nonpayable",
      "type": "function"
    },
    {
      "inputs": [
        {
          "internalType": "address",
          "name": "newAdmin_",
          "type": "address"
        }
      ],
      "name": "changeAdmin",
      "outputs": [],
      "stateMutability": "nonpayable",
      "type": "function"
    },
    {
      "inputs": [
        {
          "internalType": "uint256",
          "name": "tokenId_",
          "type": "uint256"
        }
      ],
      "name": "complete",
      "outputs": [],
      "stateMutability": "nonpayable",
      "type": "function"
    },
    {
      "inputs": [],
      "name": "completeCounts",
      "outputs": [
        {
          "internalType": "uint256",
          "name": "",
          "type": "uint256"
        }
      ],
      "stateMutability": "view",
      "type": "function"
    },
    {
      "inputs": [
        {
          "internalType": "uint256",
          "name": "tokenId_",
          "type": "uint256"
        }
      ],
      "name": "deliver",
      "outputs": [],
      "stateMutability": "nonpayable",
      "type": "function"
    },
    {
      "inputs": [
        {
          "internalType": "uint256",
          "name": "tokenId_",
          "type": "uint256"
        }
      ],
      "name": "refuseRefund",
      "outputs": [],
      "stateMutability": "nonpayable",
      "type": "function"
    },
    {
      "inputs": [
        {
          "internalType": "uint256",
          "name": "tokenId_",
          "type": "uint256"
        }
      ],
      "name": "requestRefund",
      "outputs": [],
      "stateMutability": "nonpayable",
      "type": "function"
    },
    {
      "inputs": [
        {
          "internalType": "uint256",
          "name": "tokenId_",
          "type": "uint256"
        },
        {
          "internalType": "uint256",
          "name": "price_",
          "type": "uint256"
        }
      ],
      "name": "sell",
      "outputs": [],
      "stateMutability": "nonpayable",
      "type": "function"
    },
    {
      "inputs": [
        {
          "internalType": "address",
          "name": "nftBox_",
          "type": "address"
        },
        {
          "internalType": "address",
          "name": "exchange_",
          "type": "address"
        },
        {
          "internalType": "address",
          "name": "fundM_",
          "type": "address"
        },
        {
          "internalType": "address",
          "name": "dao_",
          "type": "address"
        }
      ],
      "name": "setAddress",
      "outputs": [],
      "stateMutability": "nonpayable",
      "type": "function"
    },
    {
      "inputs": [
        {
          "internalType": "address",
          "name": "newImplementation_",
          "type": "address"
        }
      ],
      "name": "upgrade",
      "outputs": [],
      "stateMutability": "nonpayable",
      "type": "function"
    }
  ],
  "bytecode": "0x60806040523480156200001157600080fd5b5033620000477fb53127684a568b3173ae13b9f8a6016e243e63b6e8ee1178d6a717850b5d610360001b6200008e60201b60201c565b60000160006101000a81548173ffffffffffffffffffffffffffffffffffffffff021916908373ffffffffffffffffffffffffffffffffffffffff16021790555062000098565b6000819050919050565b61377b80620000a86000396000f3fe608060405234801561001057600080fd5b50600436106101165760003560e01c80639608088c116100a2578063d6855bec11610071578063d6855bec1461029b578063d79875eb146102b7578063e6a8ee4f146102d3578063ee1c92eb146102f1578063ff1b636d1461030f57610116565b80639608088c1461022b578063971d852f14610247578063a4b2409e14610263578063c70b248b1461027f57610116565b80633bd5d173116100e95780633bd5d1731461018b578063454a2ab3146101a757806366f240f8146101d75780638ea14bfe146101f35780638f2839701461020f57610116565b80630900f0101461011b57806312b65bb0146101375780631fd9a1ed1461015357806339fc1e241461016f575b600080fd5b61013560048036038101906101309190612fbb565b61032d565b005b610151600480360381019061014c919061301e565b61045b565b005b61016d60048036038101906101689190613191565b610682565b005b61018960048036038101906101849190613191565b61072a565b005b6101a560048036038101906101a0919061301e565b610a48565b005b6101c160048036038101906101bc919061301e565b610ba7565b6040516101ce919061322b565b60405180910390f35b6101f160048036038101906101ec919061301e565b611085565b005b61020d60048036038101906102089190613246565b6112ac565b005b61022960048036038101906102249190612fbb565b61143a565b005b61024560048036038101906102409190613286565b61157d565b005b610261600480360381019061025c919061301e565b6117c6565b005b61027d6004803603810190610278919061301e565b6119ed565b005b6102996004803603810190610294919061301e565b611c45565b005b6102b560048036038101906102b09190613191565b611e61565b005b6102d160048036038101906102cc9190613246565b611f98565b005b6102db612126565b6040516102e891906132fc565b60405180910390f35b6102f961217d565b604051610306919061322b565b60405180910390f35b610317612187565b60405161032491906132fc565b60405180910390f35b610335612187565b73ffffffffffffffffffffffffffffffffffffffff163373ffffffffffffffffffffffffffffffffffffffff1614610399576040517f7bfa4b9f00000000000000000000000000000000000000000000000000000000815260040160405180910390fd5b60008173ffffffffffffffffffffffffffffffffffffffff163b036103ea576040517f68155f9a00000000000000000000000000000000000000000000000000000000815260040160405180910390fd5b806104177f360894a13ba1a3210667c828492db98dca3e2076cc3735a920a3ca505d382bbc60001b6121de565b60000160006101000a81548173ffffffffffffffffffffffffffffffffffffffff021916908373ffffffffffffffffffffffffffffffffffffffff16021790555050565b600260009054906101000a900473ffffffffffffffffffffffffffffffffffffffff1673ffffffffffffffffffffffffffffffffffffffff163373ffffffffffffffffffffffffffffffffffffffff16146104e2576040517fe9606c0700000000000000000000000000000000000000000000000000000000815260040160405180910390fd5b600460068111156104f6576104f5613317565b5b600160009054906101000a900473ffffffffffffffffffffffffffffffffffffffff1673ffffffffffffffffffffffffffffffffffffffff16635c622a0e836040518263ffffffff1660e01b8152600401610551919061322b565b602060405180830381865afa15801561056e573d6000803e3d6000fd5b505050506040513d601f19601f82011682018060405250810190610592919061336b565b60068111156105a4576105a3613317565b5b146105db576040517ff525e32000000000000000000000000000000000000000000000000000000000815260040160405180910390fd5b6105e4816121e8565b61067f576105f18161232e565b600360009054906101000a900473ffffffffffffffffffffffffffffffffffffffff1673ffffffffffffffffffffffffffffffffffffffff16633ac0594a826040518263ffffffff1660e01b815260040161064c919061322b565b600060405180830381600087803b15801561066657600080fd5b505af115801561067a573d6000803e3d6000fd5b505050505b50565b61068b836124a6565b610694836125ea565b600160009054906101000a900473ffffffffffffffffffffffffffffffffffffffff1673ffffffffffffffffffffffffffffffffffffffff16632aea87a38484846040518463ffffffff1660e01b81526004016106f393929190613417565b600060405180830381600087803b15801561070d57600080fd5b505af1158015610721573d6000803e3d6000fd5b50505050505050565b6005600681111561073e5761073d613317565b5b600160009054906101000a900473ffffffffffffffffffffffffffffffffffffffff1673ffffffffffffffffffffffffffffffffffffffff16635c622a0e856040518263ffffffff1660e01b8152600401610799919061322b565b602060405180830381865afa1580156107b6573d6000803e3d6000fd5b505050506040513d601f19601f820116820180604052508101906107da919061336b565b60068111156107ec576107eb613317565b5b14610823576040517ff525e32000000000000000000000000000000000000000000000000000000000815260040160405180910390fd5b600260009054906101000a900473ffffffffffffffffffffffffffffffffffffffff1673ffffffffffffffffffffffffffffffffffffffff1663da0ade50846040518263ffffffff1660e01b815260040161087e919061322b565b602060405180830381865afa15801561089b573d6000803e3d6000fd5b505050506040513d601f19601f820116820180604052508101906108bf9190613471565b73ffffffffffffffffffffffffffffffffffffffff163373ffffffffffffffffffffffffffffffffffffffff1614610923576040517f48f5c3ed00000000000000000000000000000000000000000000000000000000815260040160405180910390fd5b600160009054906101000a900473ffffffffffffffffffffffffffffffffffffffff1673ffffffffffffffffffffffffffffffffffffffff16632aea87a38484846040518463ffffffff1660e01b815260040161098293929190613417565b600060405180830381600087803b15801561099c57600080fd5b505af11580156109b0573d6000803e3d6000fd5b50505050600360009054906101000a900473ffffffffffffffffffffffffffffffffffffffff1673ffffffffffffffffffffffffffffffffffffffff166383dc8d6e33856040518363ffffffff1660e01b8152600401610a1192919061349e565b600060405180830381600087803b158015610a2b57600080fd5b505af1158015610a3f573d6000803e3d6000fd5b50505050505050565b600260009054906101000a900473ffffffffffffffffffffffffffffffffffffffff1673ffffffffffffffffffffffffffffffffffffffff163373ffffffffffffffffffffffffffffffffffffffff1614610acf576040517fe9606c0700000000000000000000000000000000000000000000000000000000815260040160405180910390fd5b610ad8816121e8565b610ba457600160009054906101000a900473ffffffffffffffffffffffffffffffffffffffff1673ffffffffffffffffffffffffffffffffffffffff1663d896dd648260036040518363ffffffff1660e01b8152600401610b3a92919061350f565b600060405180830381600087803b158015610b5457600080fd5b505af1158015610b68573d6000803e3d6000fd5b505050507f0ea1d86aaffa3aedcedb0f1ce13675c2fcf9fc18c0e584879e2cc9009e4d9a7581604051610b9b919061322b565b60405180910390a15b50565b6000600260009054906101000a900473ffffffffffffffffffffffffffffffffffffffff1673ffffffffffffffffffffffffffffffffffffffff163373ffffffffffffffffffffffffffffffffffffffff1614610c30576040517fe9606c0700000000000000000000000000000000000000000000000000000000815260040160405180910390fd5b60026006811115610c4457610c43613317565b5b600160009054906101000a900473ffffffffffffffffffffffffffffffffffffffff1673ffffffffffffffffffffffffffffffffffffffff16635c622a0e846040518263ffffffff1660e01b8152600401610c9f919061322b565b602060405180830381865afa158015610cbc573d6000803e3d6000fd5b505050506040513d601f19601f82011682018060405250810190610ce0919061336b565b6006811115610cf257610cf1613317565b5b14610d29576040517ff525e32000000000000000000000000000000000000000000000000000000000815260040160405180910390fd5b6000600160009054906101000a900473ffffffffffffffffffffffffffffffffffffffff1673ffffffffffffffffffffffffffffffffffffffff166382862275846040518263ffffffff1660e01b8152600401610d86919061322b565b602060405180830381865afa158015610da3573d6000803e3d6000fd5b505050506040513d601f19601f82011682018060405250810190610dc7919061354d565b905042811015610e03576040517fa9f5b9c400000000000000000000000000000000000000000000000000000000815260040160405180910390fd5b600160009054906101000a900473ffffffffffffffffffffffffffffffffffffffff1673ffffffffffffffffffffffffffffffffffffffff16629a0b30846203f48084610e5091906135a9565b6040518363ffffffff1660e01b8152600401610e6d9291906135dd565b600060405180830381600087803b158015610e8757600080fd5b505af1158015610e9b573d6000803e3d6000fd5b505050506000600160009054906101000a900473ffffffffffffffffffffffffffffffffffffffff1673ffffffffffffffffffffffffffffffffffffffff1663e7572230856040518263ffffffff1660e01b8152600401610efc919061322b565b602060405180830381865afa158015610f19573d6000803e3d6000fd5b505050506040513d601f19601f82011682018060405250810190610f3d919061354d565b905060006064600360009054906101000a900473ffffffffffffffffffffffffffffffffffffffff1673ffffffffffffffffffffffffffffffffffffffff1663f0cc2b146040518163ffffffff1660e01b8152600401602060405180830381865afa158015610fb0573d6000803e3d6000fd5b505050506040513d601f19601f82011682018060405250810190610fd4919061354d565b83610fdf9190613606565b610fe99190613677565b9050600160009054906101000a900473ffffffffffffffffffffffffffffffffffffffff1673ffffffffffffffffffffffffffffffffffffffff1663f7d9757786836040518363ffffffff1660e01b81526004016110489291906135dd565b600060405180830381600087803b15801561106257600080fd5b505af1158015611076573d6000803e3d6000fd5b50505050819350505050919050565b600260009054906101000a900473ffffffffffffffffffffffffffffffffffffffff1673ffffffffffffffffffffffffffffffffffffffff163373ffffffffffffffffffffffffffffffffffffffff161461110c576040517fe9606c0700000000000000000000000000000000000000000000000000000000815260040160405180910390fd5b600460068111156111205761111f613317565b5b600160009054906101000a900473ffffffffffffffffffffffffffffffffffffffff1673ffffffffffffffffffffffffffffffffffffffff16635c622a0e836040518263ffffffff1660e01b815260040161117b919061322b565b602060405180830381865afa158015611198573d6000803e3d6000fd5b505050506040513d601f19601f820116820180604052508101906111bc919061336b565b60068111156111ce576111cd613317565b5b14611205576040517ff525e32000000000000000000000000000000000000000000000000000000000815260040160405180910390fd5b61120e816121e8565b6112a95761121b8161232e565b600360009054906101000a900473ffffffffffffffffffffffffffffffffffffffff1673ffffffffffffffffffffffffffffffffffffffff16633ac0594a826040518263ffffffff1660e01b8152600401611276919061322b565b600060405180830381600087803b15801561129057600080fd5b505af11580156112a4573d6000803e3d6000fd5b505050505b50565b600060068111156112c0576112bf613317565b5b600160009054906101000a900473ffffffffffffffffffffffffffffffffffffffff1673ffffffffffffffffffffffffffffffffffffffff16635c622a0e846040518263ffffffff1660e01b815260040161131b919061322b565b602060405180830381865afa158015611338573d6000803e3d6000fd5b505050506040513d601f19601f8201168201806040525081019061135c919061336b565b600681111561136e5761136d613317565b5b146113a5576040517ff525e32000000000000000000000000000000000000000000000000000000000815260040160405180910390fd5b600260009054906101000a900473ffffffffffffffffffffffffffffffffffffffff1673ffffffffffffffffffffffffffffffffffffffff163373ffffffffffffffffffffffffffffffffffffffff161461142c576040517fe9606c0700000000000000000000000000000000000000000000000000000000815260040160405180910390fd5b6114368282612989565b5050565b611442612187565b73ffffffffffffffffffffffffffffffffffffffff163373ffffffffffffffffffffffffffffffffffffffff16146114a6576040517f7bfa4b9f00000000000000000000000000000000000000000000000000000000815260040160405180910390fd5b600073ffffffffffffffffffffffffffffffffffffffff168173ffffffffffffffffffffffffffffffffffffffff160361150c576040517fd92e233d00000000000000000000000000000000000000000000000000000000815260040160405180910390fd5b806115397fb53127684a568b3173ae13b9f8a6016e243e63b6e8ee1178d6a717850b5d610360001b6121de565b60000160006101000a81548173ffffffffffffffffffffffffffffffffffffffff021916908373ffffffffffffffffffffffffffffffffffffffff16021790555050565b611585612187565b73ffffffffffffffffffffffffffffffffffffffff163373ffffffffffffffffffffffffffffffffffffffff16146115e9576040517f7bfa4b9f00000000000000000000000000000000000000000000000000000000815260040160405180910390fd5b600073ffffffffffffffffffffffffffffffffffffffff168273ffffffffffffffffffffffffffffffffffffffff161461165f5781600360006101000a81548173ffffffffffffffffffffffffffffffffffffffff021916908373ffffffffffffffffffffffffffffffffffffffff1602179055505b600073ffffffffffffffffffffffffffffffffffffffff168373ffffffffffffffffffffffffffffffffffffffff16146116d55782600260006101000a81548173ffffffffffffffffffffffffffffffffffffffff021916908373ffffffffffffffffffffffffffffffffffffffff1602179055505b600073ffffffffffffffffffffffffffffffffffffffff168473ffffffffffffffffffffffffffffffffffffffff161461174b5783600160006101000a81548173ffffffffffffffffffffffffffffffffffffffff021916908373ffffffffffffffffffffffffffffffffffffffff1602179055505b600073ffffffffffffffffffffffffffffffffffffffff168173ffffffffffffffffffffffffffffffffffffffff16146117c057806000806101000a81548173ffffffffffffffffffffffffffffffffffffffff021916908373ffffffffffffffffffffffffffffffffffffffff1602179055505b50505050565b600260009054906101000a900473ffffffffffffffffffffffffffffffffffffffff1673ffffffffffffffffffffffffffffffffffffffff163373ffffffffffffffffffffffffffffffffffffffff161461184d576040517fe9606c0700000000000000000000000000000000000000000000000000000000815260040160405180910390fd5b6003600681111561186157611860613317565b5b600160009054906101000a900473ffffffffffffffffffffffffffffffffffffffff1673ffffffffffffffffffffffffffffffffffffffff16635c622a0e836040518263ffffffff1660e01b81526004016118bc919061322b565b602060405180830381865afa1580156118d9573d6000803e3d6000fd5b505050506040513d601f19601f820116820180604052508101906118fd919061336b565b600681111561190f5761190e613317565b5b14611946576040517ff525e32000000000000000000000000000000000000000000000000000000000815260040160405180910390fd5b61194f816121e8565b6119ea5761195c8161232e565b600360009054906101000a900473ffffffffffffffffffffffffffffffffffffffff1673ffffffffffffffffffffffffffffffffffffffff16633ac0594a826040518263ffffffff1660e01b81526004016119b7919061322b565b600060405180830381600087803b1580156119d157600080fd5b505af11580156119e5573d6000803e3d6000fd5b505050505b50565b600260009054906101000a900473ffffffffffffffffffffffffffffffffffffffff1673ffffffffffffffffffffffffffffffffffffffff163373ffffffffffffffffffffffffffffffffffffffff1614611a74576040517fe9606c0700000000000000000000000000000000000000000000000000000000815260040160405180910390fd5b60036006811115611a8857611a87613317565b5b600160009054906101000a900473ffffffffffffffffffffffffffffffffffffffff1673ffffffffffffffffffffffffffffffffffffffff16635c622a0e836040518263ffffffff1660e01b8152600401611ae3919061322b565b602060405180830381865afa158015611b00573d6000803e3d6000fd5b505050506040513d601f19601f82011682018060405250810190611b24919061336b565b6006811115611b3657611b35613317565b5b14611b6d576040517ff525e32000000000000000000000000000000000000000000000000000000000815260040160405180910390fd5b611b76816121e8565b611c4257600160009054906101000a900473ffffffffffffffffffffffffffffffffffffffff1673ffffffffffffffffffffffffffffffffffffffff1663d896dd648260046040518363ffffffff1660e01b8152600401611bd892919061350f565b600060405180830381600087803b158015611bf257600080fd5b505af1158015611c06573d6000803e3d6000fd5b505050507f4c7a67f62269a03609d63f841a691e68120b4cca3245aec3844dc9ea7cca8e1981604051611c39919061322b565b60405180910390a15b50565b600260009054906101000a900473ffffffffffffffffffffffffffffffffffffffff1673ffffffffffffffffffffffffffffffffffffffff163373ffffffffffffffffffffffffffffffffffffffff1614611ccc576040517fe9606c0700000000000000000000000000000000000000000000000000000000815260040160405180910390fd5b60046006811115611ce057611cdf613317565b5b600160009054906101000a900473ffffffffffffffffffffffffffffffffffffffff1673ffffffffffffffffffffffffffffffffffffffff16635c622a0e836040518263ffffffff1660e01b8152600401611d3b919061322b565b602060405180830381865afa158015611d58573d6000803e3d6000fd5b505050506040513d601f19601f82011682018060405250810190611d7c919061336b565b6006811115611d8e57611d8d613317565b5b14611dc5576040517ff525e32000000000000000000000000000000000000000000000000000000000815260040160405180910390fd5b600360009054906101000a900473ffffffffffffffffffffffffffffffffffffffff1673ffffffffffffffffffffffffffffffffffffffff1663a3b979c38260016040518363ffffffff1660e01b8152600401611e239291906136c3565b600060405180830381600087803b158015611e3d57600080fd5b505af1158015611e51573d6000803e3d6000fd5b50505050611e5e8161232e565b50565b611e6a836124a6565b611e7383612b81565b600160009054906101000a900473ffffffffffffffffffffffffffffffffffffffff1673ffffffffffffffffffffffffffffffffffffffff16632aea87a38484846040518463ffffffff1660e01b8152600401611ed293929190613417565b600060405180830381600087803b158015611eec57600080fd5b505af1158015611f00573d6000803e3d6000fd5b50505050600360009054906101000a900473ffffffffffffffffffffffffffffffffffffffff1673ffffffffffffffffffffffffffffffffffffffff166383dc8d6e33856040518363ffffffff1660e01b8152600401611f6192919061349e565b600060405180830381600087803b158015611f7b57600080fd5b505af1158015611f8f573d6000803e3d6000fd5b50505050505050565b60006006811115611fac57611fab613317565b5b600160009054906101000a900473ffffffffffffffffffffffffffffffffffffffff1673ffffffffffffffffffffffffffffffffffffffff16635c622a0e846040518263ffffffff1660e01b8152600401612007919061322b565b602060405180830381865afa158015612024573d6000803e3d6000fd5b505050506040513d601f19601f82011682018060405250810190612048919061336b565b600681111561205a57612059613317565b5b14612091576040517ff525e32000000000000000000000000000000000000000000000000000000000815260040160405180910390fd5b600260009054906101000a900473ffffffffffffffffffffffffffffffffffffffff1673ffffffffffffffffffffffffffffffffffffffff163373ffffffffffffffffffffffffffffffffffffffff1614612118576040517fe9606c0700000000000000000000000000000000000000000000000000000000815260040160405180910390fd5b6121228282612d51565b5050565b60006121547f360894a13ba1a3210667c828492db98dca3e2076cc3735a920a3ca505d382bbc60001b6121de565b60000160009054906101000a900473ffffffffffffffffffffffffffffffffffffffff16905090565b6000600454905090565b60006121b57fb53127684a568b3173ae13b9f8a6016e243e63b6e8ee1178d6a717850b5d610360001b6121de565b60000160009054906101000a900473ffffffffffffffffffffffffffffffffffffffff16905090565b6000819050919050565b6000600160009054906101000a900473ffffffffffffffffffffffffffffffffffffffff1673ffffffffffffffffffffffffffffffffffffffff1663b2ba1757836040518263ffffffff1660e01b8152600401612245919061322b565b602060405180830381865afa158015612262573d6000803e3d6000fd5b505050506040513d601f19601f820116820180604052508101906122869190613718565b1561232457600360009054906101000a900473ffffffffffffffffffffffffffffffffffffffff1673ffffffffffffffffffffffffffffffffffffffff1663a3b979c38360016040518363ffffffff1660e01b81526004016122e99291906136c3565b600060405180830381600087803b15801561230357600080fd5b505af1158015612317573d6000803e3d6000fd5b5050505060019050612329565b600090505b919050565b600160009054906101000a900473ffffffffffffffffffffffffffffffffffffffff1673ffffffffffffffffffffffffffffffffffffffff1663d896dd648260056040518363ffffffff1660e01b815260040161238c92919061350f565b600060405180830381600087803b1580156123a657600080fd5b505af11580156123ba573d6000803e3d6000fd5b50505050600160009054906101000a900473ffffffffffffffffffffffffffffffffffffffff1673ffffffffffffffffffffffffffffffffffffffff16629a0b30826203f4804261240b91906135a9565b6040518363ffffffff1660e01b81526004016124289291906135dd565b600060405180830381600087803b15801561244257600080fd5b505af1158015612456573d6000803e3d6000fd5b505050506004600081548092919060010191905055507faaaf03c480f43393f2414d5013b316f6cc36576bed29ae1ea15d8936dcc0d5e78160405161249b919061322b565b60405180910390a150565b6124ae612187565b73ffffffffffffffffffffffffffffffffffffffff163373ffffffffffffffffffffffffffffffffffffffff16141580156125b05750600160009054906101000a900473ffffffffffffffffffffffffffffffffffffffff1673ffffffffffffffffffffffffffffffffffffffff16639e942ace826040518263ffffffff1660e01b815260040161253f919061322b565b602060405180830381865afa15801561255c573d6000803e3d6000fd5b505050506040513d601f19601f820116820180604052508101906125809190613471565b73ffffffffffffffffffffffffffffffffffffffff163373ffffffffffffffffffffffffffffffffffffffff1614155b156125e7576040517f48f5c3ed00000000000000000000000000000000000000000000000000000000815260040160405180910390fd5b50565b600160068111156125fe576125fd613317565b5b600160009054906101000a900473ffffffffffffffffffffffffffffffffffffffff1673ffffffffffffffffffffffffffffffffffffffff16635c622a0e836040518263ffffffff1660e01b8152600401612659919061322b565b602060405180830381865afa158015612676573d6000803e3d6000fd5b505050506040513d601f19601f8201168201806040525081019061269a919061336b565b60068111156126ac576126ab613317565b5b1415801561277a5750600260068111156126c9576126c8613317565b5b600160009054906101000a900473ffffffffffffffffffffffffffffffffffffffff1673ffffffffffffffffffffffffffffffffffffffff16635c622a0e836040518263ffffffff1660e01b8152600401612724919061322b565b602060405180830381865afa158015612741573d6000803e3d6000fd5b505050506040513d601f19601f82011682018060405250810190612765919061336b565b600681111561277757612776613317565b5b14155b156127b1576040517ff525e32000000000000000000000000000000000000000000000000000000000815260040160405180910390fd5b42600160009054906101000a900473ffffffffffffffffffffffffffffffffffffffff1673ffffffffffffffffffffffffffffffffffffffff166382862275836040518263ffffffff1660e01b815260040161280d919061322b565b602060405180830381865afa15801561282a573d6000803e3d6000fd5b505050506040513d601f19601f8201168201806040525081019061284e919061354d565b10612885576040517f9c3f88fa00000000000000000000000000000000000000000000000000000000815260040160405180910390fd5b600073ffffffffffffffffffffffffffffffffffffffff16600260009054906101000a900473ffffffffffffffffffffffffffffffffffffffff1673ffffffffffffffffffffffffffffffffffffffff1663da0ade50836040518263ffffffff1660e01b81526004016128f8919061322b565b602060405180830381865afa158015612915573d6000803e3d6000fd5b505050506040513d601f19601f820116820180604052508101906129399190613471565b73ffffffffffffffffffffffffffffffffffffffff1614612986576040517f3fcf9d6800000000000000000000000000000000000000000000000000000000815260040160405180910390fd5b50565b600160009054906101000a900473ffffffffffffffffffffffffffffffffffffffff1673ffffffffffffffffffffffffffffffffffffffff1663d896dd648360026040518363ffffffff1660e01b81526004016129e792919061350f565b600060405180830381600087803b158015612a0157600080fd5b505af1158015612a15573d6000803e3d6000fd5b50505050600160009054906101000a900473ffffffffffffffffffffffffffffffffffffffff1673ffffffffffffffffffffffffffffffffffffffff1663f7d9757783836040518363ffffffff1660e01b8152600401612a769291906135dd565b600060405180830381600087803b158015612a9057600080fd5b505af1158015612aa4573d6000803e3d6000fd5b50505050600160009054906101000a900473ffffffffffffffffffffffffffffffffffffffff1673ffffffffffffffffffffffffffffffffffffffff16629a0b30836203f48042612af591906135a9565b6040518363ffffffff1660e01b8152600401612b129291906135dd565b600060405180830381600087803b158015612b2c57600080fd5b505af1158015612b40573d6000803e3d6000fd5b505050507fafb0a3c19b273c1d8a19ab8a60c2bbc2055f82d43006d6ea2caff2fcdb14ed4a8282604051612b759291906135dd565b60405180910390a15050565b60056006811115612b9557612b94613317565b5b600160009054906101000a900473ffffffffffffffffffffffffffffffffffffffff1673ffffffffffffffffffffffffffffffffffffffff16635c622a0e836040518263ffffffff1660e01b8152600401612bf0919061322b565b602060405180830381865afa158015612c0d573d6000803e3d6000fd5b505050506040513d601f19601f82011682018060405250810190612c31919061336b565b6006811115612c4357612c42613317565b5b14612c7a576040517ff525e32000000000000000000000000000000000000000000000000000000000815260040160405180910390fd5b42600160009054906101000a900473ffffffffffffffffffffffffffffffffffffffff1673ffffffffffffffffffffffffffffffffffffffff166382862275836040518263ffffffff1660e01b8152600401612cd6919061322b565b602060405180830381865afa158015612cf3573d6000803e3d6000fd5b505050506040513d601f19601f82011682018060405250810190612d17919061354d565b10612d4e576040517f9c3f88fa00000000000000000000000000000000000000000000000000000000815260040160405180910390fd5b50565b600160009054906101000a900473ffffffffffffffffffffffffffffffffffffffff1673ffffffffffffffffffffffffffffffffffffffff1663d896dd648360016040518363ffffffff1660e01b8152600401612daf92919061350f565b600060405180830381600087803b158015612dc957600080fd5b505af1158015612ddd573d6000803e3d6000fd5b50505050600160009054906101000a900473ffffffffffffffffffffffffffffffffffffffff1673ffffffffffffffffffffffffffffffffffffffff1663f7d9757783836040518363ffffffff1660e01b8152600401612e3e9291906135dd565b600060405180830381600087803b158015612e5857600080fd5b505af1158015612e6c573d6000803e3d6000fd5b50505050600160009054906101000a900473ffffffffffffffffffffffffffffffffffffffff1673ffffffffffffffffffffffffffffffffffffffff16629a0b308362093a8042612ebd91906135a9565b6040518363ffffffff1660e01b8152600401612eda9291906135dd565b600060405180830381600087803b158015612ef457600080fd5b505af1158015612f08573d6000803e3d6000fd5b505050507f50a3320f0672d1b30eb3c43f292e1e726c6071ff7bdd4ba633b325954df776288282604051612f3d9291906135dd565b60405180910390a15050565b6000604051905090565b600080fd5b600080fd5b600073ffffffffffffffffffffffffffffffffffffffff82169050919050565b6000612f8882612f5d565b9050919050565b612f9881612f7d565b8114612fa357600080fd5b50565b600081359050612fb581612f8f565b92915050565b600060208284031215612fd157612fd0612f53565b5b6000612fdf84828501612fa6565b91505092915050565b6000819050919050565b612ffb81612fe8565b811461300657600080fd5b50565b60008135905061301881612ff2565b92915050565b60006020828403121561303457613033612f53565b5b600061304284828501613009565b91505092915050565b600080fd5b600080fd5b6000601f19601f8301169050919050565b7f4e487b7100000000000000000000000000000000000000000000000000000000600052604160045260246000fd5b61309e82613055565b810181811067ffffffffffffffff821117156130bd576130bc613066565b5b80604052505050565b60006130d0612f49565b90506130dc8282613095565b919050565b600067ffffffffffffffff8211156130fc576130fb613066565b5b61310582613055565b9050602081019050919050565b82818337600083830152505050565b600061313461312f846130e1565b6130c6565b9050828152602081018484840111156131505761314f613050565b5b61315b848285613112565b509392505050565b600082601f8301126131785761317761304b565b5b8135613188848260208601613121565b91505092915050565b6000806000606084860312156131aa576131a9612f53565b5b60006131b886828701613009565b935050602084013567ffffffffffffffff8111156131d9576131d8612f58565b5b6131e586828701613163565b925050604084013567ffffffffffffffff81111561320657613205612f58565b5b61321286828701613163565b9150509250925092565b61322581612fe8565b82525050565b6000602082019050613240600083018461321c565b92915050565b6000806040838503121561325d5761325c612f53565b5b600061326b85828601613009565b925050602061327c85828601613009565b9150509250929050565b600080600080608085870312156132a05761329f612f53565b5b60006132ae87828801612fa6565b94505060206132bf87828801612fa6565b93505060406132d087828801612fa6565b92505060606132e187828801612fa6565b91505092959194509250565b6132f681612f7d565b82525050565b600060208201905061331160008301846132ed565b92915050565b7f4e487b7100000000000000000000000000000000000000000000000000000000600052602160045260246000fd5b6007811061335357600080fd5b50565b60008151905061336581613346565b92915050565b60006020828403121561338157613380612f53565b5b600061338f84828501613356565b91505092915050565b600081519050919050565b600082825260208201905092915050565b60005b838110156133d25780820151818401526020810190506133b7565b60008484015250505050565b60006133e982613398565b6133f381856133a3565b93506134038185602086016133b4565b61340c81613055565b840191505092915050565b600060608201905061342c600083018661321c565b818103602083015261343e81856133de565b9050818103604083015261345281846133de565b9050949350505050565b60008151905061346b81612f8f565b92915050565b60006020828403121561348757613486612f53565b5b60006134958482850161345c565b91505092915050565b60006040820190506134b360008301856132ed565b6134c0602083018461321c565b9392505050565b600781106134d8576134d7613317565b5b50565b60008190506134e9826134c7565b919050565b60006134f9826134db565b9050919050565b613509816134ee565b82525050565b6000604082019050613524600083018561321c565b6135316020830184613500565b9392505050565b60008151905061354781612ff2565b92915050565b60006020828403121561356357613562612f53565b5b600061357184828501613538565b91505092915050565b7f4e487b7100000000000000000000000000000000000000000000000000000000600052601160045260246000fd5b60006135b482612fe8565b91506135bf83612fe8565b92508282019050808211156135d7576135d661357a565b5b92915050565b60006040820190506135f2600083018561321c565b6135ff602083018461321c565b9392505050565b600061361182612fe8565b915061361c83612fe8565b925082820261362a81612fe8565b915082820484148315176136415761364061357a565b5b5092915050565b7f4e487b7100000000000000000000000000000000000000000000000000000000600052601260045260246000fd5b600061368282612fe8565b915061368d83612fe8565b92508261369d5761369c613648565b5b828204905092915050565b60008115159050919050565b6136bd816136a8565b82525050565b60006040820190506136d8600083018561321c565b6136e560208301846136b4565b9392505050565b6136f5816136a8565b811461370057600080fd5b50565b600081519050613712816136ec565b92915050565b60006020828403121561372e5761372d612f53565b5b600061373c84828501613703565b9150509291505056fea26469706673582212200de8651341e54ebdf298c34b0a229c652b5c577ab615a749992a3c7478a2a96364736f6c63430008180033",
  "linkReferences": {},
  "deployedLinkReferences": {}
}