{
  "_format": "hh-sol-artifact-1",
  "contractName": "ConfidentialityFee",
  "sourceName": "contracts/ConfidentialityFee.sol",
  "abi": [
    {
      "inputs": [],
      "stateMutability": "nonpayable",
      "type": "constructor"
    },
    {
      "inputs": [],
      "name": "Blacklisted",
      "type": "error"
    },
    {
      "inputs": [],
      "name": "DeadlineOver",
      "type": "error"
    },
    {
      "inputs": [],
      "name": "InvalidCaller",
      "type": "error"
    },
    {
      "inputs": [],
      "name": "InvalidContractCaller",
      "type": "error"
    },
    {
      "inputs": [],
      "name": "InvalidImplementation",
      "type": "error"
    },
    {
      "inputs": [],
      "name": "InvalidRate",
      "type": "error"
    },
    {
      "inputs": [],
      "name": "InvalidStatus",
      "type": "error"
    },
    {
      "inputs": [],
      "name": "NotAdmin",
      "type": "error"
    },
    {
      "inputs": [],
      "name": "NotAdminOrDAO",
      "type": "error"
    },
    {
      "inputs": [],
      "name": "NotBuyer",
      "type": "error"
    },
    {
      "inputs": [],
      "name": "NotInCompleted",
      "type": "error"
    },
    {
      "inputs": [],
      "name": "NotMinter",
      "type": "error"
    },
    {
      "inputs": [],
      "name": "NotOwner",
      "type": "error"
    },
    {
      "inputs": [],
      "name": "NotSeller",
      "type": "error"
    },
    {
      "inputs": [],
      "name": "ZeroAddress",
      "type": "error"
    },
    {
      "inputs": [],
      "name": "Admin",
      "outputs": [
        {
          "internalType": "address",
          "name": "",
          "type": "address"
        }
      ],
      "stateMutability": "view",
      "type": "function"
    },
    {
      "inputs": [],
      "name": "Implementation",
      "outputs": [
        {
          "internalType": "address",
          "name": "",
          "type": "address"
        }
      ],
      "stateMutability": "view",
      "type": "function"
    },
    {
      "inputs": [
        {
          "internalType": "uint256",
          "name": "tokenId_",
          "type": "uint256"
        }
      ],
      "name": "PayConfiFee",
      "outputs": [],
      "stateMutability": "nonpayable",
      "type": "function"
    },
    {
      "inputs": [
        {
          "internalType": "address",
          "name": "newAdmin_",
          "type": "address"
        }
      ],
      "name": "changeAdmin",
      "outputs": [],
      "stateMutability": "nonpayable",
      "type": "function"
    },
    {
      "inputs": [],
      "name": "incrementRate",
      "outputs": [
        {
          "internalType": "uint8",
          "name": "",
          "type": "uint8"
        }
      ],
      "stateMutability": "view",
      "type": "function"
    },
    {
      "inputs": [
        {
          "internalType": "address",
          "name": "nftBox_",
          "type": "address"
        },
        {
          "internalType": "address",
          "name": "fundM_",
          "type": "address"
        },
        {
          "internalType": "address",
          "name": "dao_",
          "type": "address"
        },
        {
          "internalType": "address",
          "name": "token_",
          "type": "address"
        }
      ],
      "name": "setAddress",
      "outputs": [],
      "stateMutability": "nonpayable",
      "type": "function"
    },
    {
      "inputs": [
        {
          "internalType": "uint8",
          "name": "rate_",
          "type": "uint8"
        }
      ],
      "name": "setIncrementRate",
      "outputs": [],
      "stateMutability": "nonpayable",
      "type": "function"
    },
    {
      "inputs": [
        {
          "internalType": "address",
          "name": "newImplementation_",
          "type": "address"
        }
      ],
      "name": "upgrade",
      "outputs": [],
      "stateMutability": "nonpayable",
      "type": "function"
    }
  ],
  "bytecode": "0x608060405234801561001057600080fd5b50336100447fb53127684a568b3173ae13b9f8a6016e243e63b6e8ee1178d6a717850b5d610360001b61008a60201b60201c565b60000160006101000a81548173ffffffffffffffffffffffffffffffffffffffff021916908373ffffffffffffffffffffffffffffffffffffffff160217905550610094565b6000819050919050565b6111e0806100a36000396000f3fe608060405234801561001057600080fd5b50600436106100885760003560e01c80639608088c1161005b5780639608088c146100ff578063aaf89bb91461011b578063e6a8ee4f14610137578063ff1b636d1461015557610088565b8063088cbf7e1461008d5780630900f010146100ab57806343b86940146100c75780638f283970146100e3575b600080fd5b610095610173565b6040516100a29190610d60565b60405180910390f35b6100c560048036038101906100c09190610dde565b61018a565b005b6100e160048036038101906100dc9190610e41565b6102b8565b005b6100fd60048036038101906100f89190610dde565b610492565b005b61011960048036038101906101149190610e6e565b6105d5565b005b61013560048036038101906101309190610f01565b61081e565b005b61013f61094e565b60405161014c9190610f3d565b60405180910390f35b61015d6109a5565b60405161016a9190610f3d565b60405180910390f35b6000600360149054906101000a900460ff16905090565b6101926109a5565b73ffffffffffffffffffffffffffffffffffffffff163373ffffffffffffffffffffffffffffffffffffffff16146101f6576040517f7bfa4b9f00000000000000000000000000000000000000000000000000000000815260040160405180910390fd5b60008173ffffffffffffffffffffffffffffffffffffffff163b03610247576040517f68155f9a00000000000000000000000000000000000000000000000000000000815260040160405180910390fd5b806102747f360894a13ba1a3210667c828492db98dca3e2076cc3735a920a3ca505d382bbc60001b6109fc565b60000160006101000a81548173ffffffffffffffffffffffffffffffffffffffff021916908373ffffffffffffffffffffffffffffffffffffffff16021790555050565b600560068111156102cc576102cb610f58565b5b600160009054906101000a900473ffffffffffffffffffffffffffffffffffffffff1673ffffffffffffffffffffffffffffffffffffffff16635c622a0e836040518263ffffffff1660e01b81526004016103279190610f96565b602060405180830381865afa158015610344573d6000803e3d6000fd5b505050506040513d601f19601f820116820180604052508101906103689190610fd6565b600681111561037a57610379610f58565b5b146103b1576040517fa7cd1ce800000000000000000000000000000000000000000000000000000000815260040160405180910390fd5b42600160009054906101000a900473ffffffffffffffffffffffffffffffffffffffff1673ffffffffffffffffffffffffffffffffffffffff166382862275836040518263ffffffff1660e01b815260040161040d9190610f96565b602060405180830381865afa15801561042a573d6000803e3d6000fd5b505050506040513d601f19601f8201168201806040525081019061044e9190611018565b1015610486576040517fa9f5b9c400000000000000000000000000000000000000000000000000000000815260040160405180910390fd5b61048f81610a06565b50565b61049a6109a5565b73ffffffffffffffffffffffffffffffffffffffff163373ffffffffffffffffffffffffffffffffffffffff16146104fe576040517f7bfa4b9f00000000000000000000000000000000000000000000000000000000815260040160405180910390fd5b600073ffffffffffffffffffffffffffffffffffffffff168173ffffffffffffffffffffffffffffffffffffffff1603610564576040517fd92e233d00000000000000000000000000000000000000000000000000000000815260040160405180910390fd5b806105917fb53127684a568b3173ae13b9f8a6016e243e63b6e8ee1178d6a717850b5d610360001b6109fc565b60000160006101000a81548173ffffffffffffffffffffffffffffffffffffffff021916908373ffffffffffffffffffffffffffffffffffffffff16021790555050565b6105dd6109a5565b73ffffffffffffffffffffffffffffffffffffffff163373ffffffffffffffffffffffffffffffffffffffff1614610641576040517f7bfa4b9f00000000000000000000000000000000000000000000000000000000815260040160405180910390fd5b600073ffffffffffffffffffffffffffffffffffffffff168173ffffffffffffffffffffffffffffffffffffffff16146106b75780600360006101000a81548173ffffffffffffffffffffffffffffffffffffffff021916908373ffffffffffffffffffffffffffffffffffffffff1602179055505b600073ffffffffffffffffffffffffffffffffffffffff168373ffffffffffffffffffffffffffffffffffffffff161461072d5782600260006101000a81548173ffffffffffffffffffffffffffffffffffffffff021916908373ffffffffffffffffffffffffffffffffffffffff1602179055505b600073ffffffffffffffffffffffffffffffffffffffff168473ffffffffffffffffffffffffffffffffffffffff16146107a35783600160006101000a81548173ffffffffffffffffffffffffffffffffffffffff021916908373ffffffffffffffffffffffffffffffffffffffff1602179055505b600073ffffffffffffffffffffffffffffffffffffffff168273ffffffffffffffffffffffffffffffffffffffff161461081857816000806101000a81548173ffffffffffffffffffffffffffffffffffffffff021916908373ffffffffffffffffffffffffffffffffffffffff1602179055505b50505050565b6108266109a5565b73ffffffffffffffffffffffffffffffffffffffff163373ffffffffffffffffffffffffffffffffffffffff16141580156108ad575060008054906101000a900473ffffffffffffffffffffffffffffffffffffffff1673ffffffffffffffffffffffffffffffffffffffff163373ffffffffffffffffffffffffffffffffffffffff1614155b156108e4576040517f44bbc89d00000000000000000000000000000000000000000000000000000000815260040160405180910390fd5b60008160ff1614806108f9575060c88160ff16115b15610930576040517f6a43f8d100000000000000000000000000000000000000000000000000000000815260040160405180910390fd5b80600360146101000a81548160ff021916908360ff16021790555050565b600061097c7f360894a13ba1a3210667c828492db98dca3e2076cc3735a920a3ca505d382bbc60001b6109fc565b60000160009054906101000a900473ffffffffffffffffffffffffffffffffffffffff16905090565b60006109d37fb53127684a568b3173ae13b9f8a6016e243e63b6e8ee1178d6a717850b5d610360001b6109fc565b60000160009054906101000a900473ffffffffffffffffffffffffffffffffffffffff16905090565b6000819050919050565b6000600160009054906101000a900473ffffffffffffffffffffffffffffffffffffffff1673ffffffffffffffffffffffffffffffffffffffff1663e7572230836040518263ffffffff1660e01b8152600401610a639190610f96565b602060405180830381865afa158015610a80573d6000803e3d6000fd5b505050506040513d601f19601f82011682018060405250810190610aa49190611018565b9050600260009054906101000a900473ffffffffffffffffffffffffffffffffffffffff1673ffffffffffffffffffffffffffffffffffffffff166381b89e723384846040518463ffffffff1660e01b8152600401610b0593929190611045565b600060405180830381600087803b158015610b1f57600080fd5b505af1158015610b33573d6000803e3d6000fd5b50505050610b418282610b45565b5050565b600062093a80600160009054906101000a900473ffffffffffffffffffffffffffffffffffffffff1673ffffffffffffffffffffffffffffffffffffffff166382862275856040518263ffffffff1660e01b8152600401610ba69190610f96565b602060405180830381865afa158015610bc3573d6000803e3d6000fd5b505050506040513d601f19601f82011682018060405250810190610be79190611018565b610bf191906110ab565b9050600160009054906101000a900473ffffffffffffffffffffffffffffffffffffffff1673ffffffffffffffffffffffffffffffffffffffff16629a0b3084836040518363ffffffff1660e01b8152600401610c4f9291906110df565b600060405180830381600087803b158015610c6957600080fd5b505af1158015610c7d573d6000803e3d6000fd5b5050505060006064600360149054906101000a900460ff1660ff1684610ca39190611108565b610cad9190611179565b9050600160009054906101000a900473ffffffffffffffffffffffffffffffffffffffff1673ffffffffffffffffffffffffffffffffffffffff1663f7d9757785836040518363ffffffff1660e01b8152600401610d0c9291906110df565b600060405180830381600087803b158015610d2657600080fd5b505af1158015610d3a573d6000803e3d6000fd5b5050505050505050565b600060ff82169050919050565b610d5a81610d44565b82525050565b6000602082019050610d756000830184610d51565b92915050565b600080fd5b600073ffffffffffffffffffffffffffffffffffffffff82169050919050565b6000610dab82610d80565b9050919050565b610dbb81610da0565b8114610dc657600080fd5b50565b600081359050610dd881610db2565b92915050565b600060208284031215610df457610df3610d7b565b5b6000610e0284828501610dc9565b91505092915050565b6000819050919050565b610e1e81610e0b565b8114610e2957600080fd5b50565b600081359050610e3b81610e15565b92915050565b600060208284031215610e5757610e56610d7b565b5b6000610e6584828501610e2c565b91505092915050565b60008060008060808587031215610e8857610e87610d7b565b5b6000610e9687828801610dc9565b9450506020610ea787828801610dc9565b9350506040610eb887828801610dc9565b9250506060610ec987828801610dc9565b91505092959194509250565b610ede81610d44565b8114610ee957600080fd5b50565b600081359050610efb81610ed5565b92915050565b600060208284031215610f1757610f16610d7b565b5b6000610f2584828501610eec565b91505092915050565b610f3781610da0565b82525050565b6000602082019050610f526000830184610f2e565b92915050565b7f4e487b7100000000000000000000000000000000000000000000000000000000600052602160045260246000fd5b610f9081610e0b565b82525050565b6000602082019050610fab6000830184610f87565b92915050565b60078110610fbe57600080fd5b50565b600081519050610fd081610fb1565b92915050565b600060208284031215610fec57610feb610d7b565b5b6000610ffa84828501610fc1565b91505092915050565b60008151905061101281610e15565b92915050565b60006020828403121561102e5761102d610d7b565b5b600061103c84828501611003565b91505092915050565b600060608201905061105a6000830186610f2e565b6110676020830185610f87565b6110746040830184610f87565b949350505050565b7f4e487b7100000000000000000000000000000000000000000000000000000000600052601160045260246000fd5b60006110b682610e0b565b91506110c183610e0b565b92508282019050808211156110d9576110d861107c565b5b92915050565b60006040820190506110f46000830185610f87565b6111016020830184610f87565b9392505050565b600061111382610e0b565b915061111e83610e0b565b925082820261112c81610e0b565b915082820484148315176111435761114261107c565b5b5092915050565b7f4e487b7100000000000000000000000000000000000000000000000000000000600052601260045260246000fd5b600061118482610e0b565b915061118f83610e0b565b92508261119f5761119e61114a565b5b82820490509291505056fea264697066735822122042e7262ccc603d369f3c509217296fd3882402a310f7efe0e155887363e8eccd64736f6c63430008180033",
  "linkReferences": {},
  "deployedLinkReferences": {}
}