{
  "_format": "hh-sol-artifact-1",
  "contractName": "EncryptionStorage",
  "sourceName": "contracts/EncryptionStorage.sol",
  "abi": [
    {
      "inputs": [],
      "stateMutability": "nonpayable",
      "type": "constructor"
    },
    {
      "inputs": [],
      "name": "Blacklisted",
      "type": "error"
    },
    {
      "inputs": [],
      "name": "EmptyCryptData",
      "type": "error"
    },
    {
      "inputs": [],
      "name": "EmptyKey",
      "type": "error"
    },
    {
      "inputs": [],
      "name": "InvalidCaller",
      "type": "error"
    },
    {
      "inputs": [],
      "name": "InvalidContractCaller",
      "type": "error"
    },
    {
      "inputs": [],
      "name": "InvalidImplementation",
      "type": "error"
    },
    {
      "inputs": [],
      "name": "InvalidStatus",
      "type": "error"
    },
    {
      "inputs": [],
      "name": "NotAdmin",
      "type": "error"
    },
    {
      "inputs": [],
      "name": "NotAdminOrDAO",
      "type": "error"
    },
    {
      "inputs": [],
      "name": "NotBuyer",
      "type": "error"
    },
    {
      "inputs": [],
      "name": "NotMinter",
      "type": "error"
    },
    {
      "inputs": [],
      "name": "NotOwner",
      "type": "error"
    },
    {
      "inputs": [],
      "name": "NotSeller",
      "type": "error"
    },
    {
      "inputs": [],
      "name": "ZeroAddress",
      "type": "error"
    },
    {
      "inputs": [],
      "name": "Admin",
      "outputs": [
        {
          "internalType": "address",
          "name": "",
          "type": "address"
        }
      ],
      "stateMutability": "view",
      "type": "function"
    },
    {
      "inputs": [],
      "name": "Implementation",
      "outputs": [
        {
          "internalType": "address",
          "name": "",
          "type": "address"
        }
      ],
      "stateMutability": "view",
      "type": "function"
    },
    {
      "inputs": [
        {
          "internalType": "uint256",
          "name": "tokenId_",
          "type": "uint256"
        }
      ],
      "name": "PrivateKey_buyer",
      "outputs": [
        {
          "internalType": "bytes",
          "name": "",
          "type": "bytes"
        }
      ],
      "stateMutability": "view",
      "type": "function"
    },
    {
      "inputs": [
        {
          "internalType": "uint256",
          "name": "tokenId_",
          "type": "uint256"
        }
      ],
      "name": "PublicKey_buyer",
      "outputs": [
        {
          "internalType": "bytes",
          "name": "",
          "type": "bytes"
        }
      ],
      "stateMutability": "view",
      "type": "function"
    },
    {
      "inputs": [
        {
          "internalType": "uint256",
          "name": "tokenId_",
          "type": "uint256"
        }
      ],
      "name": "PublicKey_minter",
      "outputs": [
        {
          "internalType": "bytes",
          "name": "",
          "type": "bytes"
        }
      ],
      "stateMutability": "view",
      "type": "function"
    },
    {
      "inputs": [
        {
          "internalType": "uint256",
          "name": "index_",
          "type": "uint256"
        }
      ],
      "name": "PublicKey_office",
      "outputs": [
        {
          "internalType": "bytes",
          "name": "",
          "type": "bytes"
        }
      ],
      "stateMutability": "view",
      "type": "function"
    },
    {
      "inputs": [
        {
          "internalType": "address",
          "name": "newAdmin_",
          "type": "address"
        }
      ],
      "name": "changeAdmin",
      "outputs": [],
      "stateMutability": "nonpayable",
      "type": "function"
    },
    {
      "inputs": [
        {
          "internalType": "uint256",
          "name": "tokenId_",
          "type": "uint256"
        }
      ],
      "name": "getCryptData_buyer",
      "outputs": [
        {
          "internalType": "bytes",
          "name": "",
          "type": "bytes"
        },
        {
          "internalType": "bytes",
          "name": "",
          "type": "bytes"
        },
        {
          "internalType": "bytes",
          "name": "",
          "type": "bytes"
        },
        {
          "internalType": "bytes",
          "name": "",
          "type": "bytes"
        }
      ],
      "stateMutability": "view",
      "type": "function"
    },
    {
      "inputs": [
        {
          "internalType": "uint256",
          "name": "tokenId_",
          "type": "uint256"
        }
      ],
      "name": "getCryptData_office",
      "outputs": [
        {
          "internalType": "bytes",
          "name": "",
          "type": "bytes"
        },
        {
          "internalType": "bytes",
          "name": "",
          "type": "bytes"
        },
        {
          "internalType": "bytes",
          "name": "",
          "type": "bytes"
        },
        {
          "internalType": "bytes",
          "name": "",
          "type": "bytes"
        }
      ],
      "stateMutability": "view",
      "type": "function"
    },
    {
      "inputs": [],
      "name": "officeKeyCounts",
      "outputs": [
        {
          "internalType": "uint256",
          "name": "",
          "type": "uint256"
        }
      ],
      "stateMutability": "view",
      "type": "function"
    },
    {
      "inputs": [
        {
          "internalType": "address",
          "name": "nftBox_",
          "type": "address"
        },
        {
          "internalType": "address",
          "name": "exchange_",
          "type": "address"
        },
        {
          "internalType": "address",
          "name": "dao_",
          "type": "address"
        }
      ],
      "name": "setAddress",
      "outputs": [],
      "stateMutability": "nonpayable",
      "type": "function"
    },
    {
      "inputs": [
        {
          "internalType": "uint256",
          "name": "tokenId_",
          "type": "uint256"
        },
        {
          "internalType": "bytes",
          "name": "fileCid_iv",
          "type": "bytes"
        },
        {
          "internalType": "bytes",
          "name": "password_iv",
          "type": "bytes"
        },
        {
          "internalType": "bytes",
          "name": "fileCid_",
          "type": "bytes"
        },
        {
          "internalType": "bytes",
          "name": "password_",
          "type": "bytes"
        }
      ],
      "name": "setCryptData_buyer",
      "outputs": [],
      "stateMutability": "nonpayable",
      "type": "function"
    },
    {
      "inputs": [
        {
          "internalType": "uint256",
          "name": "tokenId_",
          "type": "uint256"
        },
        {
          "internalType": "bytes",
          "name": "fileCid_iv",
          "type": "bytes"
        },
        {
          "internalType": "bytes",
          "name": "password_iv",
          "type": "bytes"
        },
        {
          "internalType": "bytes",
          "name": "fileCid_",
          "type": "bytes"
        },
        {
          "internalType": "bytes",
          "name": "password_",
          "type": "bytes"
        }
      ],
      "name": "setCryptData_office",
      "outputs": [],
      "stateMutability": "nonpayable",
      "type": "function"
    },
    {
      "inputs": [
        {
          "internalType": "uint256",
          "name": "tokenId_",
          "type": "uint256"
        },
        {
          "internalType": "bytes",
          "name": "key_",
          "type": "bytes"
        }
      ],
      "name": "setPrivateKey_buyer",
      "outputs": [],
      "stateMutability": "nonpayable",
      "type": "function"
    },
    {
      "inputs": [
        {
          "internalType": "uint256",
          "name": "tokenId_",
          "type": "uint256"
        },
        {
          "internalType": "bytes",
          "name": "key_",
          "type": "bytes"
        }
      ],
      "name": "setPublicKey_buyer",
      "outputs": [],
      "stateMutability": "nonpayable",
      "type": "function"
    },
    {
      "inputs": [
        {
          "internalType": "uint256",
          "name": "tokenId_",
          "type": "uint256"
        },
        {
          "internalType": "bytes",
          "name": "key_",
          "type": "bytes"
        }
      ],
      "name": "setPublicKey_minter",
      "outputs": [],
      "stateMutability": "nonpayable",
      "type": "function"
    },
    {
      "inputs": [
        {
          "internalType": "bytes",
          "name": "key_",
          "type": "bytes"
        }
      ],
      "name": "setPublicKey_office",
      "outputs": [
        {
          "internalType": "uint256",
          "name": "",
          "type": "uint256"
        }
      ],
      "stateMutability": "nonpayable",
      "type": "function"
    },
    {
      "inputs": [
        {
          "internalType": "address",
          "name": "newImplementation_",
          "type": "address"
        }
      ],
      "name": "upgrade",
      "outputs": [],
      "stateMutability": "nonpayable",
      "type": "function"
    }
  ],
  "bytecode": "0x608060405234801561001057600080fd5b50336100447fb53127684a568b3173ae13b9f8a6016e243e63b6e8ee1178d6a717850b5d610360001b61008a60201b60201c565b60000160006101000a81548173ffffffffffffffffffffffffffffffffffffffff021916908373ffffffffffffffffffffffffffffffffffffffff160217905550610094565b6000819050919050565b6122db806100a36000396000f3fe608060405234801561001057600080fd5b50600436106101165760003560e01c806398b38f28116100a2578063e6a8ee4f11610071578063e6a8ee4f14610307578063edacc3c714610325578063f003507814610355578063f60fde5314610371578063ff1b636d1461038d57610116565b806398b38f28146102585780639cbe79d714610274578063b993e421146102a4578063d614113f146102d457610116565b80636524a231116100e95780636524a231146101b3578063756a19b0146101e65780638a52a57c146102025780638f2839701461022057806393bdadba1461023c57610116565b80630900f0101461011b5780631c40acb2146101375780633be08dab14610167578063515e4d1a14610183575b600080fd5b61013560048036038101906101309190611914565b6103ab565b005b610151600480360381019061014c9190611977565b6104d9565b60405161015e9190611a34565b60405180910390f35b610181600480360381019061017c9190611a56565b61057e565b005b61019d60048036038101906101989190611977565b610750565b6040516101aa9190611a34565b60405180910390f35b6101cd60048036038101906101c89190611977565b6107f5565b6040516101dd9493929190611aa9565b60405180910390f35b61020060048036038101906101fb9190611c3f565b610b59565b005b61020a610c3e565b6040516102179190611caa565b60405180910390f35b61023a60048036038101906102359190611914565b610c48565b005b61025660048036038101906102519190611cc5565b610d8b565b005b610272600480360381019061026d9190611c3f565b610efb565b005b61028e60048036038101906102899190611977565b610ffa565b60405161029b9190611a34565b60405180910390f35b6102be60048036038101906102b99190611977565b61109f565b6040516102cb9190611a34565b60405180910390f35b6102ee60048036038101906102e99190611977565b611144565b6040516102fe9493929190611aa9565b60405180910390f35b61030f6114a8565b60405161031c9190611dbf565b60405180910390f35b61033f600480360381019061033a9190611e3a565b6114ff565b60405161034c9190611caa565b60405180910390f35b61036f600480360381019061036a9190611c3f565b6115ec565b005b61038b60048036038101906103869190611cc5565b6116d1565b005b610395611841565b6040516103a29190611dbf565b60405180910390f35b6103b3611841565b73ffffffffffffffffffffffffffffffffffffffff163373ffffffffffffffffffffffffffffffffffffffff1614610417576040517f7bfa4b9f00000000000000000000000000000000000000000000000000000000815260040160405180910390fd5b60008173ffffffffffffffffffffffffffffffffffffffff163b03610468576040517f68155f9a00000000000000000000000000000000000000000000000000000000815260040160405180910390fd5b806104957f360894a13ba1a3210667c828492db98dca3e2076cc3735a920a3ca505d382bbc60001b611898565b60000160006101000a81548173ffffffffffffffffffffffffffffffffffffffff021916908373ffffffffffffffffffffffffffffffffffffffff16021790555050565b60606008600083815260200190815260200160002080546104f990611eb6565b80601f016020809104026020016040519081016040528092919081815260200182805461052590611eb6565b80156105725780601f1061054757610100808354040283529160200191610572565b820191906000526020600020905b81548152906001019060200180831161055557829003601f168201915b50505050509050919050565b610586611841565b73ffffffffffffffffffffffffffffffffffffffff163373ffffffffffffffffffffffffffffffffffffffff16146105ea576040517f7bfa4b9f00000000000000000000000000000000000000000000000000000000815260040160405180910390fd5b600073ffffffffffffffffffffffffffffffffffffffff168273ffffffffffffffffffffffffffffffffffffffff161461065f57816000806101000a81548173ffffffffffffffffffffffffffffffffffffffff021916908373ffffffffffffffffffffffffffffffffffffffff1602179055505b600073ffffffffffffffffffffffffffffffffffffffff168373ffffffffffffffffffffffffffffffffffffffff16146106d55782600160006101000a81548173ffffffffffffffffffffffffffffffffffffffff021916908373ffffffffffffffffffffffffffffffffffffffff1602179055505b600073ffffffffffffffffffffffffffffffffffffffff168173ffffffffffffffffffffffffffffffffffffffff161461074b5780600260006101000a81548173ffffffffffffffffffffffffffffffffffffffff021916908373ffffffffffffffffffffffffffffffffffffffff1602179055505b505050565b606060076000838152602001908152602001600020805461077090611eb6565b80601f016020809104026020016040519081016040528092919081815260200182805461079c90611eb6565b80156107e95780601f106107be576101008083540402835291602001916107e9565b820191906000526020600020905b8154815290600101906020018083116107cc57829003601f168201915b50505050509050919050565b606080606080600160009054906101000a900473ffffffffffffffffffffffffffffffffffffffff1673ffffffffffffffffffffffffffffffffffffffff1663b2ba1757866040518263ffffffff1660e01b81526004016108569190611caa565b602060405180830381865afa158015610873573d6000803e3d6000fd5b505050506040513d601f19601f820116820180604052508101906108979190611f1f565b156108ce576040517f09550c7700000000000000000000000000000000000000000000000000000000815260040160405180910390fd5b600b6000868152602001908152602001600020600c600087815260200190815260200160002060096000888152602001908152602001600020600a600089815260200190815260200160002083805461092690611eb6565b80601f016020809104026020016040519081016040528092919081815260200182805461095290611eb6565b801561099f5780601f106109745761010080835404028352916020019161099f565b820191906000526020600020905b81548152906001019060200180831161098257829003601f168201915b505050505093508280546109b290611eb6565b80601f01602080910402602001604051908101604052809291908181526020018280546109de90611eb6565b8015610a2b5780601f10610a0057610100808354040283529160200191610a2b565b820191906000526020600020905b815481529060010190602001808311610a0e57829003601f168201915b50505050509250818054610a3e90611eb6565b80601f0160208091040260200160405190810160405280929190818152602001828054610a6a90611eb6565b8015610ab75780601f10610a8c57610100808354040283529160200191610ab7565b820191906000526020600020905b815481529060010190602001808311610a9a57829003601f168201915b50505050509150808054610aca90611eb6565b80601f0160208091040260200160405190810160405280929190818152602001828054610af690611eb6565b8015610b435780601f10610b1857610100808354040283529160200191610b43565b820191906000526020600020905b815481529060010190602001808311610b2657829003601f168201915b5050505050905093509350935093509193509193565b6000815103610b94576040517f3cd69fac00000000000000000000000000000000000000000000000000000000815260040160405180910390fd5b60008054906101000a900473ffffffffffffffffffffffffffffffffffffffff1673ffffffffffffffffffffffffffffffffffffffff163373ffffffffffffffffffffffffffffffffffffffff1614610c19576040517fe9606c0700000000000000000000000000000000000000000000000000000000815260040160405180910390fd5b80600760008481526020019081526020016000209081610c3991906120f8565b505050565b6000600354905090565b610c50611841565b73ffffffffffffffffffffffffffffffffffffffff163373ffffffffffffffffffffffffffffffffffffffff1614610cb4576040517f7bfa4b9f00000000000000000000000000000000000000000000000000000000815260040160405180910390fd5b600073ffffffffffffffffffffffffffffffffffffffff168173ffffffffffffffffffffffffffffffffffffffff1603610d1a576040517fd92e233d00000000000000000000000000000000000000000000000000000000815260040160405180910390fd5b80610d477fb53127684a568b3173ae13b9f8a6016e243e63b6e8ee1178d6a717850b5d610360001b611898565b60000160006101000a81548173ffffffffffffffffffffffffffffffffffffffff021916908373ffffffffffffffffffffffffffffffffffffffff16021790555050565b60008054906101000a900473ffffffffffffffffffffffffffffffffffffffff1673ffffffffffffffffffffffffffffffffffffffff163373ffffffffffffffffffffffffffffffffffffffff1614610e10576040517fe9606c0700000000000000000000000000000000000000000000000000000000815260040160405180910390fd5b600084511480610e21575060008251145b80610e2d575060008351145b80610e39575060008151145b15610e70576040517f678d081000000000000000000000000000000000000000000000000000000000815260040160405180910390fd5b80600a60008781526020019081526020016000209081610e9091906120f8565b5081600c60008781526020019081526020016000209081610eb191906120f8565b5082600960008781526020019081526020016000209081610ed291906120f8565b5083600b60008781526020019081526020016000209081610ef391906120f8565b505050505050565b6000815103610f36576040517f3cd69fac00000000000000000000000000000000000000000000000000000000815260040160405180910390fd5b60008054906101000a900473ffffffffffffffffffffffffffffffffffffffff1673ffffffffffffffffffffffffffffffffffffffff163373ffffffffffffffffffffffffffffffffffffffff1614610fbb576040517fe9606c0700000000000000000000000000000000000000000000000000000000815260040160405180910390fd5b80600660008481526020019081526020016000209081610fdb91906120f8565b5060035460056000848152602001908152602001600020819055505050565b606060066000838152602001908152602001600020805461101a90611eb6565b80601f016020809104026020016040519081016040528092919081815260200182805461104690611eb6565b80156110935780601f1061106857610100808354040283529160200191611093565b820191906000526020600020905b81548152906001019060200180831161107657829003601f168201915b50505050509050919050565b60606004600083815260200190815260200160002080546110bf90611eb6565b80601f01602080910402602001604051908101604052809291908181526020018280546110eb90611eb6565b80156111385780601f1061110d57610100808354040283529160200191611138565b820191906000526020600020905b81548152906001019060200180831161111b57829003601f168201915b50505050509050919050565b606080606080600160009054906101000a900473ffffffffffffffffffffffffffffffffffffffff1673ffffffffffffffffffffffffffffffffffffffff1663b2ba1757866040518263ffffffff1660e01b81526004016111a59190611caa565b602060405180830381865afa1580156111c2573d6000803e3d6000fd5b505050506040513d601f19601f820116820180604052508101906111e69190611f1f565b1561121d576040517f09550c7700000000000000000000000000000000000000000000000000000000815260040160405180910390fd5b600f600086815260200190815260200160002060106000878152602001908152602001600020600d6000888152602001908152602001600020600e600089815260200190815260200160002083805461127590611eb6565b80601f01602080910402602001604051908101604052809291908181526020018280546112a190611eb6565b80156112ee5780601f106112c3576101008083540402835291602001916112ee565b820191906000526020600020905b8154815290600101906020018083116112d157829003601f168201915b5050505050935082805461130190611eb6565b80601f016020809104026020016040519081016040528092919081815260200182805461132d90611eb6565b801561137a5780601f1061134f5761010080835404028352916020019161137a565b820191906000526020600020905b81548152906001019060200180831161135d57829003601f168201915b5050505050925081805461138d90611eb6565b80601f01602080910402602001604051908101604052809291908181526020018280546113b990611eb6565b80156114065780601f106113db57610100808354040283529160200191611406565b820191906000526020600020905b8154815290600101906020018083116113e957829003601f168201915b5050505050915080805461141990611eb6565b80601f016020809104026020016040519081016040528092919081815260200182805461144590611eb6565b80156114925780601f1061146757610100808354040283529160200191611492565b820191906000526020600020905b81548152906001019060200180831161147557829003601f168201915b5050505050905093509350935093509193509193565b60006114d67f360894a13ba1a3210667c828492db98dca3e2076cc3735a920a3ca505d382bbc60001b611898565b60000160009054906101000a900473ffffffffffffffffffffffffffffffffffffffff16905090565b6000611509611841565b73ffffffffffffffffffffffffffffffffffffffff163373ffffffffffffffffffffffffffffffffffffffff161461156d576040517f7bfa4b9f00000000000000000000000000000000000000000000000000000000815260040160405180910390fd5b600083839050036115aa576040517f3cd69fac00000000000000000000000000000000000000000000000000000000815260040160405180910390fd5b600360008154809291906001019190505550828260046000600354815260200190815260200160002091826115e09291906121d5565b50600354905092915050565b6000815103611627576040517f3cd69fac00000000000000000000000000000000000000000000000000000000815260040160405180910390fd5b60008054906101000a900473ffffffffffffffffffffffffffffffffffffffff1673ffffffffffffffffffffffffffffffffffffffff163373ffffffffffffffffffffffffffffffffffffffff16146116ac576040517fe9606c0700000000000000000000000000000000000000000000000000000000815260040160405180910390fd5b806008600084815260200190815260200160002090816116cc91906120f8565b505050565b60008054906101000a900473ffffffffffffffffffffffffffffffffffffffff1673ffffffffffffffffffffffffffffffffffffffff163373ffffffffffffffffffffffffffffffffffffffff1614611756576040517fe9606c0700000000000000000000000000000000000000000000000000000000815260040160405180910390fd5b600084511480611767575060008251145b80611773575060008351145b8061177f575060008151145b156117b6576040517f678d081000000000000000000000000000000000000000000000000000000000815260040160405180910390fd5b80600e600087815260200190815260200160002090816117d691906120f8565b50816010600087815260200190815260200160002090816117f791906120f8565b5082600d6000878152602001908152602001600020908161181891906120f8565b5083600f6000878152602001908152602001600020908161183991906120f8565b505050505050565b600061186f7fb53127684a568b3173ae13b9f8a6016e243e63b6e8ee1178d6a717850b5d610360001b611898565b60000160009054906101000a900473ffffffffffffffffffffffffffffffffffffffff16905090565b6000819050919050565b6000604051905090565b600080fd5b600080fd5b600073ffffffffffffffffffffffffffffffffffffffff82169050919050565b60006118e1826118b6565b9050919050565b6118f1816118d6565b81146118fc57600080fd5b50565b60008135905061190e816118e8565b92915050565b60006020828403121561192a576119296118ac565b5b6000611938848285016118ff565b91505092915050565b6000819050919050565b61195481611941565b811461195f57600080fd5b50565b6000813590506119718161194b565b92915050565b60006020828403121561198d5761198c6118ac565b5b600061199b84828501611962565b91505092915050565b600081519050919050565b600082825260208201905092915050565b60005b838110156119de5780820151818401526020810190506119c3565b60008484015250505050565b6000601f19601f8301169050919050565b6000611a06826119a4565b611a1081856119af565b9350611a208185602086016119c0565b611a29816119ea565b840191505092915050565b60006020820190508181036000830152611a4e81846119fb565b905092915050565b600080600060608486031215611a6f57611a6e6118ac565b5b6000611a7d868287016118ff565b9350506020611a8e868287016118ff565b9250506040611a9f868287016118ff565b9150509250925092565b60006080820190508181036000830152611ac381876119fb565b90508181036020830152611ad781866119fb565b90508181036040830152611aeb81856119fb565b90508181036060830152611aff81846119fb565b905095945050505050565b600080fd5b600080fd5b7f4e487b7100000000000000000000000000000000000000000000000000000000600052604160045260246000fd5b611b4c826119ea565b810181811067ffffffffffffffff82111715611b6b57611b6a611b14565b5b80604052505050565b6000611b7e6118a2565b9050611b8a8282611b43565b919050565b600067ffffffffffffffff821115611baa57611ba9611b14565b5b611bb3826119ea565b9050602081019050919050565b82818337600083830152505050565b6000611be2611bdd84611b8f565b611b74565b905082815260208101848484011115611bfe57611bfd611b0f565b5b611c09848285611bc0565b509392505050565b600082601f830112611c2657611c25611b0a565b5b8135611c36848260208601611bcf565b91505092915050565b60008060408385031215611c5657611c556118ac565b5b6000611c6485828601611962565b925050602083013567ffffffffffffffff811115611c8557611c846118b1565b5b611c9185828601611c11565b9150509250929050565b611ca481611941565b82525050565b6000602082019050611cbf6000830184611c9b565b92915050565b600080600080600060a08688031215611ce157611ce06118ac565b5b6000611cef88828901611962565b955050602086013567ffffffffffffffff811115611d1057611d0f6118b1565b5b611d1c88828901611c11565b945050604086013567ffffffffffffffff811115611d3d57611d3c6118b1565b5b611d4988828901611c11565b935050606086013567ffffffffffffffff811115611d6a57611d696118b1565b5b611d7688828901611c11565b925050608086013567ffffffffffffffff811115611d9757611d966118b1565b5b611da388828901611c11565b9150509295509295909350565b611db9816118d6565b82525050565b6000602082019050611dd46000830184611db0565b92915050565b600080fd5b600080fd5b60008083601f840112611dfa57611df9611b0a565b5b8235905067ffffffffffffffff811115611e1757611e16611dda565b5b602083019150836001820283011115611e3357611e32611ddf565b5b9250929050565b60008060208385031215611e5157611e506118ac565b5b600083013567ffffffffffffffff811115611e6f57611e6e6118b1565b5b611e7b85828601611de4565b92509250509250929050565b7f4e487b7100000000000000000000000000000000000000000000000000000000600052602260045260246000fd5b60006002820490506001821680611ece57607f821691505b602082108103611ee157611ee0611e87565b5b50919050565b60008115159050919050565b611efc81611ee7565b8114611f0757600080fd5b50565b600081519050611f1981611ef3565b92915050565b600060208284031215611f3557611f346118ac565b5b6000611f4384828501611f0a565b91505092915050565b60008190508160005260206000209050919050565b60006020601f8301049050919050565b600082821b905092915050565b600060088302611fae7fffffffffffffffffffffffffffffffffffffffffffffffffffffffffffffffff82611f71565b611fb88683611f71565b95508019841693508086168417925050509392505050565b6000819050919050565b6000611ff5611ff0611feb84611941565b611fd0565b611941565b9050919050565b6000819050919050565b61200f83611fda565b61202361201b82611ffc565b848454611f7e565b825550505050565b600090565b61203861202b565b612043818484612006565b505050565b5b818110156120675761205c600082612030565b600181019050612049565b5050565b601f8211156120ac5761207d81611f4c565b61208684611f61565b81016020851015612095578190505b6120a96120a185611f61565b830182612048565b50505b505050565b600082821c905092915050565b60006120cf600019846008026120b1565b1980831691505092915050565b60006120e883836120be565b9150826002028217905092915050565b612101826119a4565b67ffffffffffffffff81111561211a57612119611b14565b5b6121248254611eb6565b61212f82828561206b565b600060209050601f8311600181146121625760008415612150578287015190505b61215a85826120dc565b8655506121c2565b601f19841661217086611f4c565b60005b8281101561219857848901518255600182019150602085019450602081019050612173565b868310156121b557848901516121b1601f8916826120be565b8355505b6001600288020188555050505b505050505050565b600082905092915050565b6121df83836121ca565b67ffffffffffffffff8111156121f8576121f7611b14565b5b6122028254611eb6565b61220d82828561206b565b6000601f83116001811461223c576000841561222a578287013590505b61223485826120dc565b86555061229c565b601f19841661224a86611f4c565b60005b828110156122725784890135825560018201915060208501945060208101905061224d565b8683101561228f578489013561228b601f8916826120be565b8355505b6001600288020188555050505b5050505050505056fea2646970667358221220872161d35e4eb48cbe5215fa6645b80016d00addd68e6a68d11d1a969443e11564736f6c63430008180033",
  "linkReferences": {},
  "deployedLinkReferences": {}
}