{
  "_format": "hh-sol-artifact-1",
  "contractName": "Exchange",
  "sourceName": "contracts/Exchange.sol",
  "abi": [
    {
      "inputs": [],
      "name": "Blacklisted",
      "type": "error"
    },
    {
      "inputs": [],
      "name": "Delivered",
      "type": "error"
    },
    {
      "inputs": [],
      "name": "HasRequestRefundTime",
      "type": "error"
    },
    {
      "inputs": [],
      "name": "InAuctioning",
      "type": "error"
    },
    {
      "inputs": [],
      "name": "InRefundDeadline",
      "type": "error"
    },
    {
      "inputs": [],
      "name": "InRefundPermitted",
      "type": "error"
    },
    {
      "inputs": [],
      "name": "InReviewDeadline",
      "type": "error"
    },
    {
      "inputs": [],
      "name": "InvalidCaller",
      "type": "error"
    },
    {
      "inputs": [],
      "name": "InvalidContractCaller",
      "type": "error"
    },
    {
      "inputs": [],
      "name": "InvalidImplementation",
      "type": "error"
    },
    {
      "inputs": [],
      "name": "InvalidPeriod",
      "type": "error"
    },
    {
      "inputs": [],
      "name": "InvalidPrice",
      "type": "error"
    },
    {
      "inputs": [],
      "name": "InvalidStatus",
      "type": "error"
    },
    {
      "inputs": [],
      "name": "NoDeliveryTime",
      "type": "error"
    },
    {
      "inputs": [],
      "name": "NoPurchaseTimestamp",
      "type": "error"
    },
    {
      "inputs": [],
      "name": "NoRequestRefundTime",
      "type": "error"
    },
    {
      "inputs": [],
      "name": "NotAdmin",
      "type": "error"
    },
    {
      "inputs": [],
      "name": "NotAdminOrDAO",
      "type": "error"
    },
    {
      "inputs": [],
      "name": "NotBuyer",
      "type": "error"
    },
    {
      "inputs": [],
      "name": "NotMinter",
      "type": "error"
    },
    {
      "inputs": [],
      "name": "NotOver100days",
      "type": "error"
    },
    {
      "inputs": [],
      "name": "NotOwner",
      "type": "error"
    },
    {
      "inputs": [],
      "name": "NotSeller",
      "type": "error"
    },
    {
      "inputs": [],
      "name": "Purchased",
      "type": "error"
    },
    {
      "inputs": [],
      "name": "ZeroAddress",
      "type": "error"
    },
    {
      "anonymous": false,
      "inputs": [
        {
          "indexed": true,
          "internalType": "address",
          "name": "buyer",
          "type": "address"
        },
        {
          "indexed": true,
          "internalType": "uint256",
          "name": "tokenId_",
          "type": "uint256"
        },
        {
          "indexed": true,
          "internalType": "uint256",
          "name": "price_",
          "type": "uint256"
        }
      ],
      "name": "Bidder",
      "type": "event"
    },
    {
      "anonymous": false,
      "inputs": [
        {
          "indexed": false,
          "internalType": "address",
          "name": "buyer",
          "type": "address"
        },
        {
          "indexed": true,
          "internalType": "uint256",
          "name": "tokenId_",
          "type": "uint256"
        }
      ],
      "name": "Buyer",
      "type": "event"
    },
    {
      "anonymous": false,
      "inputs": [
        {
          "indexed": false,
          "internalType": "address",
          "name": "sender",
          "type": "address"
        },
        {
          "indexed": true,
          "internalType": "uint256",
          "name": "tokenId_",
          "type": "uint256"
        }
      ],
      "name": "Completer",
      "type": "event"
    },
    {
      "anonymous": false,
      "inputs": [
        {
          "indexed": true,
          "internalType": "uint256",
          "name": "tokenId_",
          "type": "uint256"
        },
        {
          "indexed": false,
          "internalType": "uint256",
          "name": "time_",
          "type": "uint256"
        }
      ],
      "name": "SellTime",
      "type": "event"
    },
    {
      "inputs": [],
      "name": "Admin",
      "outputs": [
        {
          "internalType": "address",
          "name": "",
          "type": "address"
        }
      ],
      "stateMutability": "view",
      "type": "function"
    },
    {
      "inputs": [
        {
          "internalType": "uint256",
          "name": "tokenId_",
          "type": "uint256"
        }
      ],
      "name": "AgreeRefund",
      "outputs": [],
      "stateMutability": "nonpayable",
      "type": "function"
    },
    {
      "inputs": [
        {
          "internalType": "uint256",
          "name": "tokenId_",
          "type": "uint256"
        }
      ],
      "name": "AgreeRefundOverdue",
      "outputs": [],
      "stateMutability": "nonpayable",
      "type": "function"
    },
    {
      "inputs": [
        {
          "internalType": "uint256",
          "name": "tokenId_",
          "type": "uint256"
        },
        {
          "internalType": "uint256",
          "name": "price_",
          "type": "uint256"
        },
        {
          "internalType": "bytes",
          "name": "publicKey_minter",
          "type": "bytes"
        },
        {
          "internalType": "bytes",
          "name": "fileCid_iv_office",
          "type": "bytes"
        },
        {
          "internalType": "bytes",
          "name": "password_iv_office",
          "type": "bytes"
        },
        {
          "internalType": "bytes",
          "name": "fileCid_office",
          "type": "bytes"
        },
        {
          "internalType": "bytes",
          "name": "password_office",
          "type": "bytes"
        }
      ],
      "name": "Auction",
      "outputs": [],
      "stateMutability": "nonpayable",
      "type": "function"
    },
    {
      "inputs": [
        {
          "internalType": "uint256",
          "name": "tokenId_",
          "type": "uint256"
        },
        {
          "internalType": "bytes",
          "name": "buyerPublicKey_",
          "type": "bytes"
        }
      ],
      "name": "Bid",
      "outputs": [],
      "stateMutability": "nonpayable",
      "type": "function"
    },
    {
      "inputs": [
        {
          "internalType": "uint256",
          "name": "tokenId_",
          "type": "uint256"
        }
      ],
      "name": "CancelRefund",
      "outputs": [],
      "stateMutability": "nonpayable",
      "type": "function"
    },
    {
      "inputs": [
        {
          "internalType": "uint256",
          "name": "tokenId_",
          "type": "uint256"
        }
      ],
      "name": "CompleteOrder",
      "outputs": [],
      "stateMutability": "nonpayable",
      "type": "function"
    },
    {
      "inputs": [
        {
          "internalType": "uint256",
          "name": "tokenId_",
          "type": "uint256"
        },
        {
          "internalType": "bytes",
          "name": "fileCid_iv_buyer",
          "type": "bytes"
        },
        {
          "internalType": "bytes",
          "name": "password_iv_buyer",
          "type": "bytes"
        },
        {
          "internalType": "bytes",
          "name": "fileCid_buyer",
          "type": "bytes"
        },
        {
          "internalType": "bytes",
          "name": "password_buyer",
          "type": "bytes"
        }
      ],
      "name": "Deliver",
      "outputs": [],
      "stateMutability": "nonpayable",
      "type": "function"
    },
    {
      "inputs": [
        {
          "internalType": "uint256",
          "name": "tokenId_",
          "type": "uint256"
        }
      ],
      "name": "DeliverOverdue",
      "outputs": [],
      "stateMutability": "nonpayable",
      "type": "function"
    },
    {
      "inputs": [],
      "name": "Implementation",
      "outputs": [
        {
          "internalType": "address",
          "name": "",
          "type": "address"
        }
      ],
      "stateMutability": "view",
      "type": "function"
    },
    {
      "inputs": [
        {
          "internalType": "uint256",
          "name": "tokenId_",
          "type": "uint256"
        },
        {
          "internalType": "bytes",
          "name": "buyerPublicKey_",
          "type": "bytes"
        }
      ],
      "name": "Purchase",
      "outputs": [],
      "stateMutability": "nonpayable",
      "type": "function"
    },
    {
      "inputs": [
        {
          "internalType": "uint256",
          "name": "tokenId_",
          "type": "uint256"
        }
      ],
      "name": "RefuseRefund",
      "outputs": [],
      "stateMutability": "nonpayable",
      "type": "function"
    },
    {
      "inputs": [
        {
          "internalType": "uint256",
          "name": "tokenId_",
          "type": "uint256"
        },
        {
          "internalType": "bytes",
          "name": "buyerPrivateKey_",
          "type": "bytes"
        }
      ],
      "name": "RequestRefund",
      "outputs": [],
      "stateMutability": "nonpayable",
      "type": "function"
    },
    {
      "inputs": [
        {
          "internalType": "uint256",
          "name": "tokenId_",
          "type": "uint256"
        },
        {
          "internalType": "uint256",
          "name": "price_",
          "type": "uint256"
        },
        {
          "internalType": "bytes",
          "name": "publicKey_minter",
          "type": "bytes"
        },
        {
          "internalType": "bytes",
          "name": "fileCid_iv_office",
          "type": "bytes"
        },
        {
          "internalType": "bytes",
          "name": "password_iv_office",
          "type": "bytes"
        },
        {
          "internalType": "bytes",
          "name": "fileCid_office",
          "type": "bytes"
        },
        {
          "internalType": "bytes",
          "name": "password_office",
          "type": "bytes"
        }
      ],
      "name": "Sell",
      "outputs": [],
      "stateMutability": "nonpayable",
      "type": "function"
    },
    {
      "inputs": [
        {
          "internalType": "uint256",
          "name": "tokenId_",
          "type": "uint256"
        }
      ],
      "name": "buyerOf",
      "outputs": [
        {
          "internalType": "address",
          "name": "",
          "type": "address"
        }
      ],
      "stateMutability": "view",
      "type": "function"
    },
    {
      "inputs": [
        {
          "internalType": "uint256",
          "name": "tokenId_",
          "type": "uint256"
        }
      ],
      "name": "calcPayMoney",
      "outputs": [
        {
          "internalType": "uint256",
          "name": "",
          "type": "uint256"
        }
      ],
      "stateMutability": "view",
      "type": "function"
    },
    {
      "inputs": [
        {
          "internalType": "address",
          "name": "newAdmin_",
          "type": "address"
        }
      ],
      "name": "changeAdmin",
      "outputs": [],
      "stateMutability": "nonpayable",
      "type": "function"
    },
    {
      "inputs": [
        {
          "internalType": "uint256",
          "name": "tokenId_",
          "type": "uint256"
        }
      ],
      "name": "completerOf",
      "outputs": [
        {
          "internalType": "address",
          "name": "",
          "type": "address"
        }
      ],
      "stateMutability": "view",
      "type": "function"
    },
    {
      "inputs": [],
      "name": "deliveryPeriod",
      "outputs": [
        {
          "internalType": "uint256",
          "name": "",
          "type": "uint256"
        }
      ],
      "stateMutability": "view",
      "type": "function"
    },
    {
      "inputs": [
        {
          "internalType": "uint256",
          "name": "tokenId_",
          "type": "uint256"
        }
      ],
      "name": "deliveryTimestamp",
      "outputs": [
        {
          "internalType": "uint256",
          "name": "",
          "type": "uint256"
        }
      ],
      "stateMutability": "view",
      "type": "function"
    },
    {
      "inputs": [
        {
          "internalType": "uint256",
          "name": "tokenId_",
          "type": "uint256"
        }
      ],
      "name": "inRefundDeadline",
      "outputs": [
        {
          "internalType": "bool",
          "name": "",
          "type": "bool"
        }
      ],
      "stateMutability": "view",
      "type": "function"
    },
    {
      "inputs": [
        {
          "internalType": "uint256",
          "name": "tokenId_",
          "type": "uint256"
        }
      ],
      "name": "inReviewDeadline",
      "outputs": [
        {
          "internalType": "bool",
          "name": "",
          "type": "bool"
        }
      ],
      "stateMutability": "view",
      "type": "function"
    },
    {
      "inputs": [
        {
          "internalType": "uint256",
          "name": "tokenId_",
          "type": "uint256"
        }
      ],
      "name": "purchaseTimestamp",
      "outputs": [
        {
          "internalType": "uint256",
          "name": "",
          "type": "uint256"
        }
      ],
      "stateMutability": "view",
      "type": "function"
    },
    {
      "inputs": [],
      "name": "refundRequestPeriod",
      "outputs": [
        {
          "internalType": "uint256",
          "name": "",
          "type": "uint256"
        }
      ],
      "stateMutability": "view",
      "type": "function"
    },
    {
      "inputs": [
        {
          "internalType": "uint256",
          "name": "tokenId_",
          "type": "uint256"
        }
      ],
      "name": "refundRequestTimestamp",
      "outputs": [
        {
          "internalType": "uint256",
          "name": "",
          "type": "uint256"
        }
      ],
      "stateMutability": "view",
      "type": "function"
    },
    {
      "inputs": [],
      "name": "refundReviewPeriod",
      "outputs": [
        {
          "internalType": "uint256",
          "name": "",
          "type": "uint256"
        }
      ],
      "stateMutability": "view",
      "type": "function"
    },
    {
      "inputs": [
        {
          "internalType": "address",
          "name": "nftBox_",
          "type": "address"
        },
        {
          "internalType": "address",
          "name": "box_status_",
          "type": "address"
        },
        {
          "internalType": "address",
          "name": "fundM_",
          "type": "address"
        },
        {
          "internalType": "address",
          "name": "encryption_",
          "type": "address"
        },
        {
          "internalType": "address",
          "name": "dao_",
          "type": "address"
        }
      ],
      "name": "setAddress",
      "outputs": [],
      "stateMutability": "nonpayable",
      "type": "function"
    },
    {
      "inputs": [
        {
          "internalType": "uint256",
          "name": "period_",
          "type": "uint256"
        }
      ],
      "name": "setDeliveryPeriod",
      "outputs": [],
      "stateMutability": "nonpayable",
      "type": "function"
    },
    {
      "inputs": [
        {
          "internalType": "uint256",
          "name": "period_",
          "type": "uint256"
        }
      ],
      "name": "setRefundRequestPeriod",
      "outputs": [],
      "stateMutability": "nonpayable",
      "type": "function"
    },
    {
      "inputs": [
        {
          "internalType": "uint256",
          "name": "period_",
          "type": "uint256"
        }
      ],
      "name": "setRefundReviewPeriod",
      "outputs": [],
      "stateMutability": "nonpayable",
      "type": "function"
    },
    {
      "inputs": [
        {
          "internalType": "address",
          "name": "newImplementation_",
          "type": "address"
        }
      ],
      "name": "upgrade",
      "outputs": [],
      "stateMutability": "nonpayable",
      "type": "function"
    }
  ],
  "bytecode": "0x60806040523480156200001157600080fd5b5033620000477fb53127684a568b3173ae13b9f8a6016e243e63b6e8ee1178d6a717850b5d610360001b6200008e60201b60201c565b60000160006101000a81548173ffffffffffffffffffffffffffffffffffffffff021916908373ffffffffffffffffffffffffffffffffffffffff16021790555062000098565b6000819050919050565b61476580620000a86000396000f3fe608060405234801561001057600080fd5b50600436106101e55760003560e01c8063955edfae1161010f578063da0ade50116100a2578063f42a831e11610071578063f42a831e14610582578063f733c92c146105a0578063f74c8ea3146105bc578063ff1b636d146105da576101e5565b8063da0ade50146104e8578063dcda383b14610518578063e6a8ee4f14610534578063f25f162014610552576101e5565b8063c5e8743d116100de578063c5e8743d14610462578063d49d1c1814610492578063d6e54ff5146104ae578063d7171711146104cc576101e5565b8063955edfae146103b65780639ec123da146103e6578063a40f35f414610402578063b9793cc814610432576101e5565b80635bcb5950116101875780637355d320116101565780637355d320146103325780637520fce71461034e5780637c98c1811461037e5780638f2839701461039a576101e5565b80635bcb5950146102c25780635dddf7e1146102de5780635dfa41df146102fa57806372ceeb2314610316576101e5565b80633a9561fd116101c35780633a9561fd1461023e5780634b6aeb7e1461025a5780634d43040f14610276578063526c8fcc14610292576101e5565b80630900f010146101ea578063104f13f41461020657806312c5948814610222575b600080fd5b61020460048036038101906101ff9190613d4c565b6105f8565b005b610220600480360381019061021b9190613daf565b610726565b005b61023c60048036038101906102379190613ddc565b610a6f565b005b61025860048036038101906102539190613f9d565b610d2f565b005b610274600480360381019061026f9190614088565b6110be565b005b610290600480360381019061028b9190613daf565b6114bf565b005b6102ac60048036038101906102a79190613daf565b611779565b6040516102b991906141d1565b60405180910390f35b6102dc60048036038101906102d79190613daf565b611808565b005b6102f860048036038101906102f391906141ec565b611922565b005b610314600480360381019061030f9190613daf565b611daf565b005b610330600480360381019061032b9190613daf565b6121b1565b005b61034c60048036038101906103479190613daf565b6123ac565b005b61036860048036038101906103639190613daf565b6125d5565b6040516103759190614257565b60405180910390f35b610398600480360381019061039391906141ec565b612612565b005b6103b460048036038101906103af9190613d4c565b612978565b005b6103d060048036038101906103cb9190613daf565b612abb565b6040516103dd9190614281565b60405180910390f35b61040060048036038101906103fb9190613daf565b612ad8565b005b61041c60048036038101906104179190613daf565b612bf2565b6040516104299190614281565b60405180910390f35b61044c60048036038101906104479190613daf565b612c0f565b6040516104599190614281565b60405180910390f35b61047c60048036038101906104779190613daf565b612cc3565b6040516104899190614281565b60405180910390f35b6104ac60048036038101906104a79190613daf565b612ce0565b005b6104b6612e83565b6040516104c39190614281565b60405180910390f35b6104e660048036038101906104e19190613daf565b612e8d565b005b61050260048036038101906104fd9190613daf565b612fa7565b60405161050f9190614257565b60405180910390f35b610532600480360381019061052d91906141ec565b612fe4565b005b61053c613328565b6040516105499190614257565b60405180910390f35b61056c60048036038101906105679190613daf565b61337f565b60405161057991906141d1565b60405180910390f35b61058a61345b565b6040516105979190614281565b60405180910390f35b6105ba60048036038101906105b59190614088565b613465565b005b6105c4613866565b6040516105d19190614281565b60405180910390f35b6105e2613870565b6040516105ef9190614257565b60405180910390f35b610600613870565b73ffffffffffffffffffffffffffffffffffffffff163373ffffffffffffffffffffffffffffffffffffffff1614610664576040517f7bfa4b9f00000000000000000000000000000000000000000000000000000000815260040160405180910390fd5b60008173ffffffffffffffffffffffffffffffffffffffff163b036106b5576040517f68155f9a00000000000000000000000000000000000000000000000000000000815260040160405180910390fd5b806106e27f360894a13ba1a3210667c828492db98dca3e2076cc3735a920a3ca505d382bbc60001b6138c7565b60000160006101000a81548173ffffffffffffffffffffffffffffffffffffffff021916908373ffffffffffffffffffffffffffffffffffffffff16021790555050565b600360009054906101000a900473ffffffffffffffffffffffffffffffffffffffff1673ffffffffffffffffffffffffffffffffffffffff1663b3e5219e826040518263ffffffff1660e01b81526004016107819190614281565b602060405180830381865afa15801561079e573d6000803e3d6000fd5b505050506040513d601f19601f820116820180604052508101906107c291906142c8565b156107f9576040517f316a47fe00000000000000000000000000000000000000000000000000000000815260040160405180910390fd5b6000600960008381526020019081526020016000205403610846576040517f370c9bfd00000000000000000000000000000000000000000000000000000000815260040160405180910390fd5b600260009054906101000a900473ffffffffffffffffffffffffffffffffffffffff1673ffffffffffffffffffffffffffffffffffffffff16639e942ace826040518263ffffffff1660e01b81526004016108a19190614281565b602060405180830381865afa1580156108be573d6000803e3d6000fd5b505050506040513d601f19601f820116820180604052508101906108e2919061430a565b73ffffffffffffffffffffffffffffffffffffffff163373ffffffffffffffffffffffffffffffffffffffff16141580156109505750610920613870565b73ffffffffffffffffffffffffffffffffffffffff163373ffffffffffffffffffffffffffffffffffffffff1614155b80156109a8575060008054906101000a900473ffffffffffffffffffffffffffffffffffffffff1673ffffffffffffffffffffffffffffffffffffffff163373ffffffffffffffffffffffffffffffffffffffff1614155b156109df576040517f48f5c3ed00000000000000000000000000000000000000000000000000000000815260040160405180910390fd5b600160009054906101000a900473ffffffffffffffffffffffffffffffffffffffff1673ffffffffffffffffffffffffffffffffffffffff1663c70b248b826040518263ffffffff1660e01b8152600401610a3a9190614281565b600060405180830381600087803b158015610a5457600080fd5b505af1158015610a68573d6000803e3d6000fd5b5050505050565b610a77613870565b73ffffffffffffffffffffffffffffffffffffffff163373ffffffffffffffffffffffffffffffffffffffff1614610adb576040517f7bfa4b9f00000000000000000000000000000000000000000000000000000000815260040160405180910390fd5b600073ffffffffffffffffffffffffffffffffffffffff168373ffffffffffffffffffffffffffffffffffffffff1614610b515782600360006101000a81548173ffffffffffffffffffffffffffffffffffffffff021916908373ffffffffffffffffffffffffffffffffffffffff1602179055505b600073ffffffffffffffffffffffffffffffffffffffff168273ffffffffffffffffffffffffffffffffffffffff1614610bc75781600460006101000a81548173ffffffffffffffffffffffffffffffffffffffff021916908373ffffffffffffffffffffffffffffffffffffffff1602179055505b600073ffffffffffffffffffffffffffffffffffffffff168473ffffffffffffffffffffffffffffffffffffffff1614610c3d5783600160006101000a81548173ffffffffffffffffffffffffffffffffffffffff021916908373ffffffffffffffffffffffffffffffffffffffff1602179055505b600073ffffffffffffffffffffffffffffffffffffffff168573ffffffffffffffffffffffffffffffffffffffff1614610cb35784600260006101000a81548173ffffffffffffffffffffffffffffffffffffffff021916908373ffffffffffffffffffffffffffffffffffffffff1602179055505b600073ffffffffffffffffffffffffffffffffffffffff168173ffffffffffffffffffffffffffffffffffffffff1614610d2857806000806101000a81548173ffffffffffffffffffffffffffffffffffffffff021916908373ffffffffffffffffffffffffffffffffffffffff1602179055505b5050505050565b6000600a600087815260200190815260200160002054905060008103610d81576040517f0b72747d00000000000000000000000000000000000000000000000000000000815260040160405180910390fd5b6000600860008881526020019081526020016000205414610dce576040517f779822f700000000000000000000000000000000000000000000000000000000815260040160405180910390fd5b610dd6613870565b73ffffffffffffffffffffffffffffffffffffffff163373ffffffffffffffffffffffffffffffffffffffff1603610e9d57600360009054906101000a900473ffffffffffffffffffffffffffffffffffffffff1673ffffffffffffffffffffffffffffffffffffffff1663fcff4b678760036040518363ffffffff1660e01b8152600401610e6692919061437c565b600060405180830381600087803b158015610e8057600080fd5b505af1158015610e94573d6000803e3d6000fd5b50505050610f72565b600260009054906101000a900473ffffffffffffffffffffffffffffffffffffffff1673ffffffffffffffffffffffffffffffffffffffff16639e942ace876040518263ffffffff1660e01b8152600401610ef89190614281565b602060405180830381865afa158015610f15573d6000803e3d6000fd5b505050506040513d601f19601f82011682018060405250810190610f39919061430a565b73ffffffffffffffffffffffffffffffffffffffff163373ffffffffffffffffffffffffffffffffffffffff1614610f7157506110b7565b5b610f7b866138d1565b600460009054906101000a900473ffffffffffffffffffffffffffffffffffffffff1673ffffffffffffffffffffffffffffffffffffffff166393bdadba87878787876040518663ffffffff1660e01b8152600401610fde959493929190614424565b600060405180830381600087803b158015610ff857600080fd5b505af115801561100c573d6000803e3d6000fd5b50505050600160009054906101000a900473ffffffffffffffffffffffffffffffffffffffff1673ffffffffffffffffffffffffffffffffffffffff16633bd5d173876040518263ffffffff1660e01b815260040161106b9190614281565b600060405180830381600087803b15801561108557600080fd5b505af1158015611099573d6000803e3d6000fd5b50505050426008600088815260200190815260200160002081905550505b5050505050565b600260009054906101000a900473ffffffffffffffffffffffffffffffffffffffff1673ffffffffffffffffffffffffffffffffffffffff1663b2ba1757886040518263ffffffff1660e01b81526004016111199190614281565b602060405180830381865afa158015611136573d6000803e3d6000fd5b505050506040513d601f19601f8201168201806040525081019061115a91906142c8565b15611191576040517f09550c7700000000000000000000000000000000000000000000000000000000815260040160405180910390fd5b600260009054906101000a900473ffffffffffffffffffffffffffffffffffffffff1673ffffffffffffffffffffffffffffffffffffffff16639e942ace886040518263ffffffff1660e01b81526004016111ec9190614281565b602060405180830381865afa158015611209573d6000803e3d6000fd5b505050506040513d601f19601f8201168201806040525081019061122d919061430a565b73ffffffffffffffffffffffffffffffffffffffff163373ffffffffffffffffffffffffffffffffffffffff1614611291576040517ff8d2906c00000000000000000000000000000000000000000000000000000000815260040160405180910390fd5b60648610156112cb576040517ebfc92100000000000000000000000000000000000000000000000000000000815260040160405180910390fd5b600160009054906101000a900473ffffffffffffffffffffffffffffffffffffffff1673ffffffffffffffffffffffffffffffffffffffff1663d79875eb88886040518363ffffffff1660e01b8152600401611328929190614493565b600060405180830381600087803b15801561134257600080fd5b505af1158015611356573d6000803e3d6000fd5b50505050600460009054906101000a900473ffffffffffffffffffffffffffffffffffffffff1673ffffffffffffffffffffffffffffffffffffffff166398b38f2888876040518363ffffffff1660e01b81526004016113b79291906144bc565b600060405180830381600087803b1580156113d157600080fd5b505af11580156113e5573d6000803e3d6000fd5b50505050600460009054906101000a900473ffffffffffffffffffffffffffffffffffffffff1673ffffffffffffffffffffffffffffffffffffffff1663f60fde5388868686866040518663ffffffff1660e01b815260040161144c959493929190614424565b600060405180830381600087803b15801561146657600080fd5b505af115801561147a573d6000803e3d6000fd5b50505050867f65bdcb2e19b11d6b862731d96f7031f6069216fba3b303b330f76573fe4b1fcf426040516114ae9190614281565b60405180910390a250505050505050565b6000600a600083815260200190815260200160002054905060008103611511576040517f0b72747d00000000000000000000000000000000000000000000000000000000815260040160405180910390fd5b600060086000848152602001908152602001600020541461155e576040517f779822f700000000000000000000000000000000000000000000000000000000815260040160405180910390fd5b611566613870565b73ffffffffffffffffffffffffffffffffffffffff163373ffffffffffffffffffffffffffffffffffffffff161480156116665750600260009054906101000a900473ffffffffffffffffffffffffffffffffffffffff1673ffffffffffffffffffffffffffffffffffffffff16639e942ace836040518263ffffffff1660e01b81526004016115f69190614281565b602060405180830381865afa158015611613573d6000803e3d6000fd5b505050506040513d601f19601f82011682018060405250810190611637919061430a565b73ffffffffffffffffffffffffffffffffffffffff163373ffffffffffffffffffffffffffffffffffffffff16145b1561169d576040517f48f5c3ed00000000000000000000000000000000000000000000000000000000815260040160405180910390fd5b426203f480826116ad919061451b565b11156116e5576040517ff395105b00000000000000000000000000000000000000000000000000000000815260040160405180910390fd5b600360009054906101000a900473ffffffffffffffffffffffffffffffffffffffff1673ffffffffffffffffffffffffffffffffffffffff1663a3b979c38360016040518363ffffffff1660e01b815260040161174392919061454f565b600060405180830381600087803b15801561175d57600080fd5b505af1158015611771573d6000803e3d6000fd5b505050505050565b6000806009600084815260200190815260200160002054036117c7576040517f370c9bfd00000000000000000000000000000000000000000000000000000000815260040160405180910390fd5b600060075460096000858152602001908152602001600020546117ea919061451b565b90504281106117fd576001915050611803565b60009150505b919050565b611810613870565b73ffffffffffffffffffffffffffffffffffffffff163373ffffffffffffffffffffffffffffffffffffffff1614158015611897575060008054906101000a900473ffffffffffffffffffffffffffffffffffffffff1673ffffffffffffffffffffffffffffffffffffffff163373ffffffffffffffffffffffffffffffffffffffff1614155b156118ce576040517f44bbc89d00000000000000000000000000000000000000000000000000000000815260040160405180910390fd5b620151808110806118e157506203f48081115b15611918576040517f17479ac800000000000000000000000000000000000000000000000000000000815260040160405180910390fd5b8060068190555050565b6000600a6000848152602001908152602001600020541461196f576040517f1c2a4a0d00000000000000000000000000000000000000000000000000000000815260040160405180910390fd5b600260009054906101000a900473ffffffffffffffffffffffffffffffffffffffff1673ffffffffffffffffffffffffffffffffffffffff1663b2ba1757836040518263ffffffff1660e01b81526004016119ca9190614281565b602060405180830381865afa1580156119e7573d6000803e3d6000fd5b505050506040513d601f19601f82011682018060405250810190611a0b91906142c8565b15611a42576040517f09550c7700000000000000000000000000000000000000000000000000000000815260040160405180910390fd5b60016006811115611a5657611a55614578565b5b600260009054906101000a900473ffffffffffffffffffffffffffffffffffffffff1673ffffffffffffffffffffffffffffffffffffffff16635c622a0e846040518263ffffffff1660e01b8152600401611ab19190614281565b602060405180830381865afa158015611ace573d6000803e3d6000fd5b505050506040513d601f19601f82011682018060405250810190611af291906145cc565b6006811115611b0457611b03614578565b5b14611b3b576040517ff525e32000000000000000000000000000000000000000000000000000000000815260040160405180910390fd5b6000611b45613c13565b905080600b600085815260200190815260200160002060006101000a81548173ffffffffffffffffffffffffffffffffffffffff021916908373ffffffffffffffffffffffffffffffffffffffff16021790555042600a600085815260200190815260200160002081905550600460009054906101000a900473ffffffffffffffffffffffffffffffffffffffff1673ffffffffffffffffffffffffffffffffffffffff1663756a19b084846040518363ffffffff1660e01b8152600401611c0e9291906144bc565b600060405180830381600087803b158015611c2857600080fd5b505af1158015611c3c573d6000803e3d6000fd5b505050506000600260009054906101000a900473ffffffffffffffffffffffffffffffffffffffff1673ffffffffffffffffffffffffffffffffffffffff1663e7572230856040518263ffffffff1660e01b8152600401611c9d9190614281565b602060405180830381865afa158015611cba573d6000803e3d6000fd5b505050506040513d601f19601f82011682018060405250810190611cde919061460e565b9050600360009054906101000a900473ffffffffffffffffffffffffffffffffffffffff1673ffffffffffffffffffffffffffffffffffffffff1663e276419f8386846040518463ffffffff1660e01b8152600401611d3f9392919061463b565b600060405180830381600087803b158015611d5957600080fd5b505af1158015611d6d573d6000803e3d6000fd5b50505050837f3507571e02fcccabc6f8b1acfca8376dd504efb1a7c2141520b53e723020329d83604051611da19190614257565b60405180910390a250505050565b600360009054906101000a900473ffffffffffffffffffffffffffffffffffffffff1673ffffffffffffffffffffffffffffffffffffffff1663b3e5219e826040518263ffffffff1660e01b8152600401611e0a9190614281565b602060405180830381865afa158015611e27573d6000803e3d6000fd5b505050506040513d601f19601f82011682018060405250810190611e4b91906142c8565b15611e82576040517f316a47fe00000000000000000000000000000000000000000000000000000000815260040160405180910390fd5b600b600082815260200190815260200160002060009054906101000a900473ffffffffffffffffffffffffffffffffffffffff1673ffffffffffffffffffffffffffffffffffffffff163373ffffffffffffffffffffffffffffffffffffffff1603611f87576000600860008381526020019081526020016000205403611f35576040517f5344261300000000000000000000000000000000000000000000000000000000815260040160405180910390fd5b6000600960008381526020019081526020016000205414611f82576040517f3640eb1400000000000000000000000000000000000000000000000000000000815260040160405180910390fd5b612121565b611f908161337f565b15611fc7576040517f2f226b3b00000000000000000000000000000000000000000000000000000000815260040160405180910390fd5b600260009054906101000a900473ffffffffffffffffffffffffffffffffffffffff1673ffffffffffffffffffffffffffffffffffffffff16639e942ace826040518263ffffffff1660e01b81526004016120229190614281565b602060405180830381865afa15801561203f573d6000803e3d6000fd5b505050506040513d601f19601f82011682018060405250810190612063919061430a565b73ffffffffffffffffffffffffffffffffffffffff163373ffffffffffffffffffffffffffffffffffffffff16146121205733600c600083815260200190815260200160002060006101000a81548173ffffffffffffffffffffffffffffffffffffffff021916908373ffffffffffffffffffffffffffffffffffffffff160217905550807fb5eba0e95471de723b9e7ae18ad43162e9285b29703cb6c3d1bb35d745b68cbd336040516121179190614257565b60405180910390a25b5b600160009054906101000a900473ffffffffffffffffffffffffffffffffffffffff1673ffffffffffffffffffffffffffffffffffffffff1663971d852f826040518263ffffffff1660e01b815260040161217c9190614281565b600060405180830381600087803b15801561219657600080fd5b505af11580156121aa573d6000803e3d6000fd5b5050505050565b600b600082815260200190815260200160002060009054906101000a900473ffffffffffffffffffffffffffffffffffffffff1673ffffffffffffffffffffffffffffffffffffffff163373ffffffffffffffffffffffffffffffffffffffff1614612249576040517f472e017e00000000000000000000000000000000000000000000000000000000815260040160405180910390fd5b600360009054906101000a900473ffffffffffffffffffffffffffffffffffffffff1673ffffffffffffffffffffffffffffffffffffffff1663b3e5219e826040518263ffffffff1660e01b81526004016122a49190614281565b602060405180830381865afa1580156122c1573d6000803e3d6000fd5b505050506040513d601f19601f820116820180604052508101906122e591906142c8565b1561231c576040517f316a47fe00000000000000000000000000000000000000000000000000000000815260040160405180910390fd5b600160009054906101000a900473ffffffffffffffffffffffffffffffffffffffff1673ffffffffffffffffffffffffffffffffffffffff166366f240f8826040518263ffffffff1660e01b81526004016123779190614281565b600060405180830381600087803b15801561239157600080fd5b505af11580156123a5573d6000803e3d6000fd5b5050505050565b6123b4613870565b73ffffffffffffffffffffffffffffffffffffffff163373ffffffffffffffffffffffffffffffffffffffff161415801561243b575060008054906101000a900473ffffffffffffffffffffffffffffffffffffffff1673ffffffffffffffffffffffffffffffffffffffff163373ffffffffffffffffffffffffffffffffffffffff1614155b15612472576040517f44bbc89d00000000000000000000000000000000000000000000000000000000815260040160405180910390fd5b600360009054906101000a900473ffffffffffffffffffffffffffffffffffffffff1673ffffffffffffffffffffffffffffffffffffffff1663b3e5219e826040518263ffffffff1660e01b81526004016124cd9190614281565b602060405180830381865afa1580156124ea573d6000803e3d6000fd5b505050506040513d601f19601f8201168201806040525081019061250e91906142c8565b15612545576040517f316a47fe00000000000000000000000000000000000000000000000000000000815260040160405180910390fd5b600160009054906101000a900473ffffffffffffffffffffffffffffffffffffffff1673ffffffffffffffffffffffffffffffffffffffff166312b65bb0826040518263ffffffff1660e01b81526004016125a09190614281565b600060405180830381600087803b1580156125ba57600080fd5b505af11580156125ce573d6000803e3d6000fd5b5050505050565b6000600c600083815260200190815260200160002060009054906101000a900473ffffffffffffffffffffffffffffffffffffffff169050919050565b600260009054906101000a900473ffffffffffffffffffffffffffffffffffffffff1673ffffffffffffffffffffffffffffffffffffffff1663b2ba1757836040518263ffffffff1660e01b815260040161266d9190614281565b602060405180830381865afa15801561268a573d6000803e3d6000fd5b505050506040513d601f19601f820116820180604052508101906126ae91906142c8565b156126e5576040517f09550c7700000000000000000000000000000000000000000000000000000000815260040160405180910390fd5b60006126ef613c13565b905080600b600085815260200190815260200160002060006101000a81548173ffffffffffffffffffffffffffffffffffffffff021916908373ffffffffffffffffffffffffffffffffffffffff16021790555042600a600085815260200190815260200160002081905550600460009054906101000a900473ffffffffffffffffffffffffffffffffffffffff1673ffffffffffffffffffffffffffffffffffffffff1663756a19b084846040518363ffffffff1660e01b81526004016127b89291906144bc565b600060405180830381600087803b1580156127d257600080fd5b505af11580156127e6573d6000803e3d6000fd5b505050506000600160009054906101000a900473ffffffffffffffffffffffffffffffffffffffff1673ffffffffffffffffffffffffffffffffffffffff1663454a2ab3856040518263ffffffff1660e01b81526004016128479190614281565b6020604051808303816000875af1158015612866573d6000803e3d6000fd5b505050506040513d601f19601f8201168201806040525081019061288a919061460e565b90506000612899838684613c1b565b9050600360009054906101000a900473ffffffffffffffffffffffffffffffffffffffff1673ffffffffffffffffffffffffffffffffffffffff1663e276419f8487846040518463ffffffff1660e01b81526004016128fa9392919061463b565b600060405180830381600087803b15801561291457600080fd5b505af1158015612928573d6000803e3d6000fd5b5050505081858473ffffffffffffffffffffffffffffffffffffffff167f2b556d4a59f4fc90bd99635923f3d2b2f5bd99af3399ca90a7a171e8155e64ed60405160405180910390a45050505050565b612980613870565b73ffffffffffffffffffffffffffffffffffffffff163373ffffffffffffffffffffffffffffffffffffffff16146129e4576040517f7bfa4b9f00000000000000000000000000000000000000000000000000000000815260040160405180910390fd5b600073ffffffffffffffffffffffffffffffffffffffff168173ffffffffffffffffffffffffffffffffffffffff1603612a4a576040517fd92e233d00000000000000000000000000000000000000000000000000000000815260040160405180910390fd5b80612a777fb53127684a568b3173ae13b9f8a6016e243e63b6e8ee1178d6a717850b5d610360001b6138c7565b60000160006101000a81548173ffffffffffffffffffffffffffffffffffffffff021916908373ffffffffffffffffffffffffffffffffffffffff16021790555050565b600060096000838152602001908152602001600020549050919050565b612ae0613870565b73ffffffffffffffffffffffffffffffffffffffff163373ffffffffffffffffffffffffffffffffffffffff1614158015612b67575060008054906101000a900473ffffffffffffffffffffffffffffffffffffffff1673ffffffffffffffffffffffffffffffffffffffff163373ffffffffffffffffffffffffffffffffffffffff1614155b15612b9e576040517f44bbc89d00000000000000000000000000000000000000000000000000000000815260040160405180910390fd5b6202a300811080612bb1575062093a8081115b15612be8576040517f17479ac800000000000000000000000000000000000000000000000000000000815260040160405180910390fd5b8060078190555050565b6000600a6000838152602001908152602001600020549050919050565b600080600260009054906101000a900473ffffffffffffffffffffffffffffffffffffffff1673ffffffffffffffffffffffffffffffffffffffff1663e7572230846040518263ffffffff1660e01b8152600401612c6d9190614281565b602060405180830381865afa158015612c8a573d6000803e3d6000fd5b505050506040513d601f19601f82011682018060405250810190612cae919061460e565b9050612cbb338483613c1b565b915050919050565b600060086000838152602001908152602001600020549050919050565b600360009054906101000a900473ffffffffffffffffffffffffffffffffffffffff1673ffffffffffffffffffffffffffffffffffffffff1663b3e5219e826040518263ffffffff1660e01b8152600401612d3b9190614281565b602060405180830381865afa158015612d58573d6000803e3d6000fd5b505050506040513d601f19601f82011682018060405250810190612d7c91906142c8565b15612db3576040517f316a47fe00000000000000000000000000000000000000000000000000000000815260040160405180910390fd5b612dbc81611779565b15612df3576040517f98d7edad00000000000000000000000000000000000000000000000000000000815260040160405180910390fd5b600160009054906101000a900473ffffffffffffffffffffffffffffffffffffffff1673ffffffffffffffffffffffffffffffffffffffff1663c70b248b826040518263ffffffff1660e01b8152600401612e4e9190614281565b600060405180830381600087803b158015612e6857600080fd5b505af1158015612e7c573d6000803e3d6000fd5b5050505050565b6000600654905090565b612e95613870565b73ffffffffffffffffffffffffffffffffffffffff163373ffffffffffffffffffffffffffffffffffffffff1614158015612f1c575060008054906101000a900473ffffffffffffffffffffffffffffffffffffffff1673ffffffffffffffffffffffffffffffffffffffff163373ffffffffffffffffffffffffffffffffffffffff1614155b15612f53576040517f44bbc89d00000000000000000000000000000000000000000000000000000000815260040160405180910390fd5b6202a300811080612f6657506206978081115b15612f9d576040517f17479ac800000000000000000000000000000000000000000000000000000000815260040160405180910390fd5b8060058190555050565b6000600b600083815260200190815260200160002060009054906101000a900473ffffffffffffffffffffffffffffffffffffffff169050919050565b600b600083815260200190815260200160002060009054906101000a900473ffffffffffffffffffffffffffffffffffffffff1673ffffffffffffffffffffffffffffffffffffffff163373ffffffffffffffffffffffffffffffffffffffff161461307c576040517f472e017e00000000000000000000000000000000000000000000000000000000815260040160405180910390fd5b600360009054906101000a900473ffffffffffffffffffffffffffffffffffffffff1673ffffffffffffffffffffffffffffffffffffffff1663b3e5219e836040518263ffffffff1660e01b81526004016130d79190614281565b602060405180830381865afa1580156130f4573d6000803e3d6000fd5b505050506040513d601f19601f8201168201806040525081019061311891906142c8565b1561314f576040517f316a47fe00000000000000000000000000000000000000000000000000000000815260040160405180910390fd5b6131588261337f565b1561329657600160009054906101000a900473ffffffffffffffffffffffffffffffffffffffff1673ffffffffffffffffffffffffffffffffffffffff1663a4b2409e836040518263ffffffff1660e01b81526004016131b89190614281565b600060405180830381600087803b1580156131d257600080fd5b505af11580156131e6573d6000803e3d6000fd5b50505050600460009054906101000a900473ffffffffffffffffffffffffffffffffffffffff1673ffffffffffffffffffffffffffffffffffffffff1663f003507883836040518363ffffffff1660e01b81526004016132479291906144bc565b600060405180830381600087803b15801561326157600080fd5b505af1158015613275573d6000803e3d6000fd5b50505050426009600084815260200190815260200160002081905550613324565b600160009054906101000a900473ffffffffffffffffffffffffffffffffffffffff1673ffffffffffffffffffffffffffffffffffffffff1663971d852f836040518263ffffffff1660e01b81526004016132f19190614281565b600060405180830381600087803b15801561330b57600080fd5b505af115801561331f573d6000803e3d6000fd5b505050505b5050565b60006133567f360894a13ba1a3210667c828492db98dca3e2076cc3735a920a3ca505d382bbc60001b6138c7565b60000160009054906101000a900473ffffffffffffffffffffffffffffffffffffffff16905090565b6000806008600084815260200190815260200160002054036133cd576040517f5344261300000000000000000000000000000000000000000000000000000000815260040160405180910390fd5b600060096000848152602001908152602001600020541461341a576040517f3640eb1400000000000000000000000000000000000000000000000000000000815260040160405180910390fd5b6000600654600860008581526020019081526020016000205461343d919061451b565b9050428110613450576001915050613456565b60009150505b919050565b6000600554905090565b600260009054906101000a900473ffffffffffffffffffffffffffffffffffffffff1673ffffffffffffffffffffffffffffffffffffffff1663b2ba1757886040518263ffffffff1660e01b81526004016134c09190614281565b602060405180830381865afa1580156134dd573d6000803e3d6000fd5b505050506040513d601f19601f8201168201806040525081019061350191906142c8565b15613538576040517f09550c7700000000000000000000000000000000000000000000000000000000815260040160405180910390fd5b600260009054906101000a900473ffffffffffffffffffffffffffffffffffffffff1673ffffffffffffffffffffffffffffffffffffffff16639e942ace886040518263ffffffff1660e01b81526004016135939190614281565b602060405180830381865afa1580156135b0573d6000803e3d6000fd5b505050506040513d601f19601f820116820180604052508101906135d4919061430a565b73ffffffffffffffffffffffffffffffffffffffff163373ffffffffffffffffffffffffffffffffffffffff1614613638576040517ff8d2906c00000000000000000000000000000000000000000000000000000000815260040160405180910390fd5b6064861015613672576040517ebfc92100000000000000000000000000000000000000000000000000000000815260040160405180910390fd5b600160009054906101000a900473ffffffffffffffffffffffffffffffffffffffff1673ffffffffffffffffffffffffffffffffffffffff16638ea14bfe88886040518363ffffffff1660e01b81526004016136cf929190614493565b600060405180830381600087803b1580156136e957600080fd5b505af11580156136fd573d6000803e3d6000fd5b50505050600460009054906101000a900473ffffffffffffffffffffffffffffffffffffffff1673ffffffffffffffffffffffffffffffffffffffff166398b38f2888876040518363ffffffff1660e01b815260040161375e9291906144bc565b600060405180830381600087803b15801561377857600080fd5b505af115801561378c573d6000803e3d6000fd5b50505050600460009054906101000a900473ffffffffffffffffffffffffffffffffffffffff1673ffffffffffffffffffffffffffffffffffffffff1663f60fde5388868686866040518663ffffffff1660e01b81526004016137f3959493929190614424565b600060405180830381600087803b15801561380d57600080fd5b505af1158015613821573d6000803e3d6000fd5b50505050867f65bdcb2e19b11d6b862731d96f7031f6069216fba3b303b330f76573fe4b1fcf426040516138559190614281565b60405180910390a250505050505050565b6000600754905090565b600061389e7fb53127684a568b3173ae13b9f8a6016e243e63b6e8ee1178d6a717850b5d610360001b6138c7565b60000160009054906101000a900473ffffffffffffffffffffffffffffffffffffffff16905090565b6000819050919050565b6000600260009054906101000a900473ffffffffffffffffffffffffffffffffffffffff1673ffffffffffffffffffffffffffffffffffffffff16635c622a0e836040518263ffffffff1660e01b815260040161392e9190614281565b602060405180830381865afa15801561394b573d6000803e3d6000fd5b505050506040513d601f19601f8201168201806040525081019061396f91906145cc565b90506002600681111561398557613984614578565b5b81600681111561399857613997614578565b5b141580156139cb5750600160068111156139b5576139b4614578565b5b8160068111156139c8576139c7614578565b5b14155b15613a02576040517ff525e32000000000000000000000000000000000000000000000000000000000815260040160405180910390fd5b600060026006811115613a1857613a17614578565b5b826006811115613a2b57613a2a614578565b5b03613b0c57600260009054906101000a900473ffffffffffffffffffffffffffffffffffffffff1673ffffffffffffffffffffffffffffffffffffffff166382862275846040518263ffffffff1660e01b8152600401613a8b9190614281565b602060405180830381865afa158015613aa8573d6000803e3d6000fd5b505050506040513d601f19601f82011682018060405250810190613acc919061460e565b9050428110613b07576040517f7a13caf100000000000000000000000000000000000000000000000000000000815260040160405180910390fd5b613b23565b600a60008481526020019081526020016000205490505b6000612a3060055483613b36919061451b565b613b40919061451b565b905042811115613b5257505050613c10565b6000612a306005548442613b669190614672565b613b709190614672565b613b7a91906146d5565b9050600360009054906101000a900473ffffffffffffffffffffffffffffffffffffffff1673ffffffffffffffffffffffffffffffffffffffff1663ad59f5b386836040518363ffffffff1660e01b8152600401613bd9929190614493565b600060405180830381600087803b158015613bf357600080fd5b505af1158015613c07573d6000803e3d6000fd5b50505050505050505b50565b600033905090565b600080600360009054906101000a900473ffffffffffffffffffffffffffffffffffffffff1673ffffffffffffffffffffffffffffffffffffffff166346a022f785876040518363ffffffff1660e01b8152600401613c7b929190614706565b602060405180830381865afa158015613c98573d6000803e3d6000fd5b505050506040513d601f19601f82011682018060405250810190613cbc919061460e565b905060008184613ccc9190614672565b905080925050509392505050565b6000604051905090565b600080fd5b600080fd5b600073ffffffffffffffffffffffffffffffffffffffff82169050919050565b6000613d1982613cee565b9050919050565b613d2981613d0e565b8114613d3457600080fd5b50565b600081359050613d4681613d20565b92915050565b600060208284031215613d6257613d61613ce4565b5b6000613d7084828501613d37565b91505092915050565b6000819050919050565b613d8c81613d79565b8114613d9757600080fd5b50565b600081359050613da981613d83565b92915050565b600060208284031215613dc557613dc4613ce4565b5b6000613dd384828501613d9a565b91505092915050565b600080600080600060a08688031215613df857613df7613ce4565b5b6000613e0688828901613d37565b9550506020613e1788828901613d37565b9450506040613e2888828901613d37565b9350506060613e3988828901613d37565b9250506080613e4a88828901613d37565b9150509295509295909350565b600080fd5b600080fd5b6000601f19601f8301169050919050565b7f4e487b7100000000000000000000000000000000000000000000000000000000600052604160045260246000fd5b613eaa82613e61565b810181811067ffffffffffffffff82111715613ec957613ec8613e72565b5b80604052505050565b6000613edc613cda565b9050613ee88282613ea1565b919050565b600067ffffffffffffffff821115613f0857613f07613e72565b5b613f1182613e61565b9050602081019050919050565b82818337600083830152505050565b6000613f40613f3b84613eed565b613ed2565b905082815260208101848484011115613f5c57613f5b613e5c565b5b613f67848285613f1e565b509392505050565b600082601f830112613f8457613f83613e57565b5b8135613f94848260208601613f2d565b91505092915050565b600080600080600060a08688031215613fb957613fb8613ce4565b5b6000613fc788828901613d9a565b955050602086013567ffffffffffffffff811115613fe857613fe7613ce9565b5b613ff488828901613f6f565b945050604086013567ffffffffffffffff81111561401557614014613ce9565b5b61402188828901613f6f565b935050606086013567ffffffffffffffff81111561404257614041613ce9565b5b61404e88828901613f6f565b925050608086013567ffffffffffffffff81111561406f5761406e613ce9565b5b61407b88828901613f6f565b9150509295509295909350565b600080600080600080600060e0888a0312156140a7576140a6613ce4565b5b60006140b58a828b01613d9a565b97505060206140c68a828b01613d9a565b965050604088013567ffffffffffffffff8111156140e7576140e6613ce9565b5b6140f38a828b01613f6f565b955050606088013567ffffffffffffffff81111561411457614113613ce9565b5b6141208a828b01613f6f565b945050608088013567ffffffffffffffff81111561414157614140613ce9565b5b61414d8a828b01613f6f565b93505060a088013567ffffffffffffffff81111561416e5761416d613ce9565b5b61417a8a828b01613f6f565b92505060c088013567ffffffffffffffff81111561419b5761419a613ce9565b5b6141a78a828b01613f6f565b91505092959891949750929550565b60008115159050919050565b6141cb816141b6565b82525050565b60006020820190506141e660008301846141c2565b92915050565b6000806040838503121561420357614202613ce4565b5b600061421185828601613d9a565b925050602083013567ffffffffffffffff81111561423257614231613ce9565b5b61423e85828601613f6f565b9150509250929050565b61425181613d0e565b82525050565b600060208201905061426c6000830184614248565b92915050565b61427b81613d79565b82525050565b60006020820190506142966000830184614272565b92915050565b6142a5816141b6565b81146142b057600080fd5b50565b6000815190506142c28161429c565b92915050565b6000602082840312156142de576142dd613ce4565b5b60006142ec848285016142b3565b91505092915050565b60008151905061430481613d20565b92915050565b6000602082840312156143205761431f613ce4565b5b600061432e848285016142f5565b91505092915050565b6000819050919050565b6000819050919050565b600061436661436161435c84614337565b614341565b613d79565b9050919050565b6143768161434b565b82525050565b60006040820190506143916000830185614272565b61439e602083018461436d565b9392505050565b600081519050919050565b600082825260208201905092915050565b60005b838110156143df5780820151818401526020810190506143c4565b60008484015250505050565b60006143f6826143a5565b61440081856143b0565b93506144108185602086016143c1565b61441981613e61565b840191505092915050565b600060a0820190506144396000830188614272565b818103602083015261444b81876143eb565b9050818103604083015261445f81866143eb565b9050818103606083015261447381856143eb565b9050818103608083015261448781846143eb565b90509695505050505050565b60006040820190506144a86000830185614272565b6144b56020830184614272565b9392505050565b60006040820190506144d16000830185614272565b81810360208301526144e381846143eb565b90509392505050565b7f4e487b7100000000000000000000000000000000000000000000000000000000600052601160045260246000fd5b600061452682613d79565b915061453183613d79565b9250828201905080821115614549576145486144ec565b5b92915050565b60006040820190506145646000830185614272565b61457160208301846141c2565b9392505050565b7f4e487b7100000000000000000000000000000000000000000000000000000000600052602160045260246000fd5b600781106145b457600080fd5b50565b6000815190506145c6816145a7565b92915050565b6000602082840312156145e2576145e1613ce4565b5b60006145f0848285016145b7565b91505092915050565b60008151905061460881613d83565b92915050565b60006020828403121561462457614623613ce4565b5b6000614632848285016145f9565b91505092915050565b60006060820190506146506000830186614248565b61465d6020830185614272565b61466a6040830184614272565b949350505050565b600061467d82613d79565b915061468883613d79565b92508282039050818111156146a05761469f6144ec565b5b92915050565b7f4e487b7100000000000000000000000000000000000000000000000000000000600052601260045260246000fd5b60006146e082613d79565b91506146eb83613d79565b9250826146fb576146fa6146a6565b5b828204905092915050565b600060408201905061471b6000830185614272565b6147286020830184614248565b939250505056fea2646970667358221220f1936faf193edb8339c42739b381f6330d2f4a631c9cd64ee9548f901c5ea0fe64736f6c63430008180033",
  "linkReferences": {},
  "deployedLinkReferences": {}
}