{
  "_format": "hh-sol-artifact-1",
  "contractName": "FundManager",
  "sourceName": "contracts/FundManager.sol",
  "abi": [
    {
      "inputs": [],
      "name": "AlreadyProcessing",
      "type": "error"
    },
    {
      "inputs": [],
      "name": "Blacklisted",
      "type": "error"
    },
    {
      "inputs": [],
      "name": "EmptyWithdrawList",
      "type": "error"
    },
    {
      "inputs": [],
      "name": "InRefundPermitted",
      "type": "error"
    },
    {
      "inputs": [],
      "name": "InsufficientAmount",
      "type": "error"
    },
    {
      "inputs": [],
      "name": "InvalidCaller",
      "type": "error"
    },
    {
      "inputs": [],
      "name": "InvalidContractCaller",
      "type": "error"
    },
    {
      "inputs": [],
      "name": "InvalidImplementation",
      "type": "error"
    },
    {
      "inputs": [],
      "name": "InvalidRate",
      "type": "error"
    },
    {
      "inputs": [],
      "name": "InvalidStatus",
      "type": "error"
    },
    {
      "inputs": [],
      "name": "NotAdmin",
      "type": "error"
    },
    {
      "inputs": [],
      "name": "NotAdminOrDAO",
      "type": "error"
    },
    {
      "inputs": [],
      "name": "NotBuyer",
      "type": "error"
    },
    {
      "inputs": [],
      "name": "NotMinter",
      "type": "error"
    },
    {
      "inputs": [],
      "name": "NotOwner",
      "type": "error"
    },
    {
      "inputs": [],
      "name": "NotSeller",
      "type": "error"
    },
    {
      "inputs": [],
      "name": "WithdrawPaused",
      "type": "error"
    },
    {
      "inputs": [],
      "name": "ZeroAddress",
      "type": "error"
    },
    {
      "inputs": [],
      "name": "ZeroAmount",
      "type": "error"
    },
    {
      "anonymous": false,
      "inputs": [
        {
          "indexed": true,
          "internalType": "uint256",
          "name": "amount",
          "type": "uint256"
        }
      ],
      "name": "OrderAmount",
      "type": "event"
    },
    {
      "anonymous": false,
      "inputs": [
        {
          "indexed": true,
          "internalType": "uint256",
          "name": "amount",
          "type": "uint256"
        }
      ],
      "name": "RewardAmount",
      "type": "event"
    },
    {
      "anonymous": false,
      "inputs": [
        {
          "indexed": true,
          "internalType": "address",
          "name": "owner",
          "type": "address"
        },
        {
          "indexed": true,
          "internalType": "uint256",
          "name": "amount",
          "type": "uint256"
        }
      ],
      "name": "Withdraw",
      "type": "event"
    },
    {
      "inputs": [],
      "name": "Admin",
      "outputs": [
        {
          "internalType": "address",
          "name": "",
          "type": "address"
        }
      ],
      "stateMutability": "view",
      "type": "function"
    },
    {
      "inputs": [],
      "name": "Implementation",
      "outputs": [
        {
          "internalType": "address",
          "name": "",
          "type": "address"
        }
      ],
      "stateMutability": "view",
      "type": "function"
    },
    {
      "inputs": [
        {
          "internalType": "uint256",
          "name": "tokenId_",
          "type": "uint256"
        }
      ],
      "name": "Reward",
      "outputs": [],
      "stateMutability": "nonpayable",
      "type": "function"
    },
    {
      "inputs": [
        {
          "internalType": "uint256",
          "name": "tokenId_",
          "type": "uint256"
        },
        {
          "internalType": "uint256",
          "name": "amount_",
          "type": "uint256"
        }
      ],
      "name": "addAdminFeeRate",
      "outputs": [],
      "stateMutability": "nonpayable",
      "type": "function"
    },
    {
      "inputs": [
        {
          "internalType": "uint256",
          "name": "tokenId_",
          "type": "uint256"
        },
        {
          "internalType": "uint256",
          "name": "amount_",
          "type": "uint256"
        }
      ],
      "name": "addBuyerFeeRate",
      "outputs": [],
      "stateMutability": "nonpayable",
      "type": "function"
    },
    {
      "inputs": [
        {
          "internalType": "uint256",
          "name": "tokenId_",
          "type": "uint256"
        }
      ],
      "name": "adminFeeRate",
      "outputs": [
        {
          "internalType": "uint256",
          "name": "",
          "type": "uint256"
        }
      ],
      "stateMutability": "view",
      "type": "function"
    },
    {
      "inputs": [],
      "name": "allocatedFunds",
      "outputs": [
        {
          "internalType": "uint256",
          "name": "",
          "type": "uint256"
        }
      ],
      "stateMutability": "view",
      "type": "function"
    },
    {
      "inputs": [],
      "name": "bidIncrementRate",
      "outputs": [
        {
          "internalType": "uint256",
          "name": "",
          "type": "uint256"
        }
      ],
      "stateMutability": "view",
      "type": "function"
    },
    {
      "inputs": [
        {
          "internalType": "uint256",
          "name": "tokenId_",
          "type": "uint256"
        }
      ],
      "name": "buyerFeeRate",
      "outputs": [
        {
          "internalType": "uint256",
          "name": "",
          "type": "uint256"
        }
      ],
      "stateMutability": "view",
      "type": "function"
    },
    {
      "inputs": [
        {
          "internalType": "address",
          "name": "newAdmin_",
          "type": "address"
        }
      ],
      "name": "changeAdmin",
      "outputs": [],
      "stateMutability": "nonpayable",
      "type": "function"
    },
    {
      "inputs": [],
      "name": "completerRewardRate",
      "outputs": [
        {
          "internalType": "uint256",
          "name": "",
          "type": "uint256"
        }
      ],
      "stateMutability": "view",
      "type": "function"
    },
    {
      "inputs": [],
      "name": "isPauseWithdraw",
      "outputs": [
        {
          "internalType": "bool",
          "name": "",
          "type": "bool"
        }
      ],
      "stateMutability": "view",
      "type": "function"
    },
    {
      "inputs": [
        {
          "internalType": "uint256",
          "name": "tokenId_",
          "type": "uint256"
        }
      ],
      "name": "minterRewards",
      "outputs": [
        {
          "internalType": "uint256",
          "name": "",
          "type": "uint256"
        }
      ],
      "stateMutability": "view",
      "type": "function"
    },
    {
      "inputs": [
        {
          "internalType": "uint256",
          "name": "tokenId_",
          "type": "uint256"
        },
        {
          "internalType": "address",
          "name": "addr_",
          "type": "address"
        }
      ],
      "name": "orderAmount",
      "outputs": [
        {
          "internalType": "uint256",
          "name": "",
          "type": "uint256"
        }
      ],
      "stateMutability": "view",
      "type": "function"
    },
    {
      "inputs": [
        {
          "internalType": "uint256",
          "name": "tokenId_",
          "type": "uint256"
        },
        {
          "internalType": "address",
          "name": "addr_",
          "type": "address"
        }
      ],
      "name": "otherRewards",
      "outputs": [
        {
          "internalType": "uint256",
          "name": "",
          "type": "uint256"
        }
      ],
      "stateMutability": "view",
      "type": "function"
    },
    {
      "inputs": [],
      "name": "publicRewardRate",
      "outputs": [
        {
          "internalType": "uint256",
          "name": "",
          "type": "uint256"
        }
      ],
      "stateMutability": "view",
      "type": "function"
    },
    {
      "inputs": [
        {
          "internalType": "uint256",
          "name": "tokenId_",
          "type": "uint256"
        }
      ],
      "name": "publicRewards",
      "outputs": [
        {
          "internalType": "uint256",
          "name": "",
          "type": "uint256"
        }
      ],
      "stateMutability": "view",
      "type": "function"
    },
    {
      "inputs": [
        {
          "internalType": "address",
          "name": "buyer_",
          "type": "address"
        },
        {
          "internalType": "uint256",
          "name": "tokenId_",
          "type": "uint256"
        },
        {
          "internalType": "uint256",
          "name": "amount_",
          "type": "uint256"
        }
      ],
      "name": "receiveConfiFee",
      "outputs": [],
      "stateMutability": "nonpayable",
      "type": "function"
    },
    {
      "inputs": [
        {
          "internalType": "address",
          "name": "buyer_",
          "type": "address"
        },
        {
          "internalType": "uint256",
          "name": "tokenId_",
          "type": "uint256"
        },
        {
          "internalType": "uint256",
          "name": "amount_",
          "type": "uint256"
        }
      ],
      "name": "receiveOrderAmount",
      "outputs": [],
      "stateMutability": "nonpayable",
      "type": "function"
    },
    {
      "inputs": [
        {
          "internalType": "address",
          "name": "addr_",
          "type": "address"
        },
        {
          "internalType": "uint256",
          "name": "amount_",
          "type": "uint256"
        }
      ],
      "name": "receiveServiceFee",
      "outputs": [],
      "stateMutability": "nonpayable",
      "type": "function"
    },
    {
      "inputs": [
        {
          "internalType": "uint256",
          "name": "tokenId_",
          "type": "uint256"
        }
      ],
      "name": "refundPermit",
      "outputs": [
        {
          "internalType": "bool",
          "name": "",
          "type": "bool"
        }
      ],
      "stateMutability": "view",
      "type": "function"
    },
    {
      "inputs": [],
      "name": "serviceFeeRate",
      "outputs": [
        {
          "internalType": "uint256",
          "name": "",
          "type": "uint256"
        }
      ],
      "stateMutability": "view",
      "type": "function"
    },
    {
      "inputs": [
        {
          "internalType": "address",
          "name": "nftBox_",
          "type": "address"
        },
        {
          "internalType": "address",
          "name": "box_status_",
          "type": "address"
        },
        {
          "internalType": "address",
          "name": "exchange_",
          "type": "address"
        },
        {
          "internalType": "address",
          "name": "dao_",
          "type": "address"
        },
        {
          "internalType": "address",
          "name": "token_",
          "type": "address"
        }
      ],
      "name": "setAddress",
      "outputs": [],
      "stateMutability": "nonpayable",
      "type": "function"
    },
    {
      "inputs": [
        {
          "internalType": "uint256",
          "name": "rate_",
          "type": "uint256"
        }
      ],
      "name": "setBidIncrementRate",
      "outputs": [],
      "stateMutability": "nonpayable",
      "type": "function"
    },
    {
      "inputs": [
        {
          "internalType": "uint256",
          "name": "Rate_",
          "type": "uint256"
        }
      ],
      "name": "setCompleterRewardRate",
      "outputs": [],
      "stateMutability": "nonpayable",
      "type": "function"
    },
    {
      "inputs": [
        {
          "internalType": "uint256",
          "name": "Rate_",
          "type": "uint256"
        }
      ],
      "name": "setPublicRewardRate",
      "outputs": [],
      "stateMutability": "nonpayable",
      "type": "function"
    },
    {
      "inputs": [
        {
          "internalType": "uint256",
          "name": "tokenId_",
          "type": "uint256"
        },
        {
          "internalType": "bool",
          "name": "permission_",
          "type": "bool"
        }
      ],
      "name": "setRefundPermit",
      "outputs": [],
      "stateMutability": "nonpayable",
      "type": "function"
    },
    {
      "inputs": [
        {
          "internalType": "uint256",
          "name": "Rate_",
          "type": "uint256"
        }
      ],
      "name": "setServiceFeeRate",
      "outputs": [],
      "stateMutability": "nonpayable",
      "type": "function"
    },
    {
      "inputs": [],
      "name": "togglePauseWithdraw",
      "outputs": [
        {
          "internalType": "bool",
          "name": "",
          "type": "bool"
        }
      ],
      "stateMutability": "nonpayable",
      "type": "function"
    },
    {
      "inputs": [],
      "name": "totalRewards",
      "outputs": [
        {
          "internalType": "uint256",
          "name": "",
          "type": "uint256"
        }
      ],
      "stateMutability": "view",
      "type": "function"
    },
    {
      "inputs": [],
      "name": "unallocatedFunds",
      "outputs": [
        {
          "internalType": "uint256",
          "name": "",
          "type": "uint256"
        }
      ],
      "stateMutability": "view",
      "type": "function"
    },
    {
      "inputs": [
        {
          "internalType": "address",
          "name": "newImplementation_",
          "type": "address"
        }
      ],
      "name": "upgrade",
      "outputs": [],
      "stateMutability": "nonpayable",
      "type": "function"
    },
    {
      "inputs": [
        {
          "internalType": "uint256[]",
          "name": "list_",
          "type": "uint256[]"
        }
      ],
      "name": "withdrawMinter",
      "outputs": [],
      "stateMutability": "nonpayable",
      "type": "function"
    },
    {
      "inputs": [
        {
          "internalType": "uint256[]",
          "name": "list_",
          "type": "uint256[]"
        }
      ],
      "name": "withdrawOrder",
      "outputs": [],
      "stateMutability": "nonpayable",
      "type": "function"
    },
    {
      "inputs": [
        {
          "internalType": "uint256[]",
          "name": "list_",
          "type": "uint256[]"
        }
      ],
      "name": "withdrawOtherRewards",
      "outputs": [],
      "stateMutability": "nonpayable",
      "type": "function"
    },
    {
      "inputs": [
        {
          "internalType": "address",
          "name": "sender_",
          "type": "address"
        },
        {
          "internalType": "uint256",
          "name": "tokenId_",
          "type": "uint256"
        }
      ],
      "name": "withdrawPublicRewards",
      "outputs": [],
      "stateMutability": "nonpayable",
      "type": "function"
    },
    {
      "inputs": [
        {
          "internalType": "uint256[]",
          "name": "list_",
          "type": "uint256[]"
        }
      ],
      "name": "withdrawRefund",
      "outputs": [],
      "stateMutability": "nonpayable",
      "type": "function"
    },
    {
      "inputs": [
        {
          "internalType": "address",
          "name": "addr_",
          "type": "address"
        },
        {
          "internalType": "uint256",
          "name": "amount_",
          "type": "uint256"
        }
      ],
      "name": "withdrawServiceFee",
      "outputs": [],
      "stateMutability": "nonpayable",
      "type": "function"
    }
  ],
  "bytecode": "0x60806040523480156200001157600080fd5b5033620000477fb53127684a568b3173ae13b9f8a6016e243e63b6e8ee1178d6a717850b5d610360001b6200008e60201b60201c565b60000160006101000a81548173ffffffffffffffffffffffffffffffffffffffff021916908373ffffffffffffffffffffffffffffffffffffffff16021790555062000098565b6000819050919050565b61412580620000a86000396000f3fe608060405234801561001057600080fd5b50600436106102325760003560e01c806381b89e7211610130578063b3e5219e116100b8578063e276419f1161007c578063e276419f1461066f578063e6a8ee4f1461068b578063f0cc2b14146106a9578063fcff4b67146106c7578063ff1b636d146106e357610232565b8063b3e5219e146105cb578063c96e06b7146105fb578063d030557e14610617578063d4cc54e414610633578063e24cd7991461065157610232565b80639b1d3091116100ff5780639b1d30911461052b5780639e98451414610547578063a3b979c314610577578063a5e4dbf314610593578063ad59f5b3146105af57610232565b806381b89e72146104a757806383dc8d6e146104c35780638408839d146104df5780638f2839701461050f57610232565b806331c3fd6d116101be578063521d1deb11610182578063521d1deb14610405578063618ed0031461042157806361d1bc941461043d57806366033a111461045b578063718ba0f41461048b57610232565b806331c3fd6d1461033b5780633ac0594a1461036b57806346a022f7146103875780634b849d30146103b7578063507957cd146103e757610232565b806312c594881161020557806312c59488146102ab5780631892b71b146102c7578063214ff3f2146102e3578063221cf7441461030157806327e99f571461031d57610232565b80630900f010146102375780630da47822146102535780630e15561a146102715780631156eb691461028f575b600080fd5b610251600480360381019061024c91906139ed565b610701565b005b61025b61082f565b6040516102689190613a33565b60405180910390f35b610279610839565b6040516102869190613a33565b60405180910390f35b6102a960048036038101906102a49190613bd3565b610843565b005b6102c560048036038101906102c09190613c1c565b610c68565b005b6102e160048036038101906102dc9190613c97565b610f28565b005b6102eb61102e565b6040516102f89190613a33565b60405180910390f35b61031b60048036038101906103169190613cd7565b611038565b005b61032561114f565b6040516103329190613a33565b60405180910390f35b61035560048036038101906103509190613cd7565b611159565b6040516103629190613a33565b60405180910390f35b61038560048036038101906103809190613cd7565b611176565b005b6103a1600480360381019061039c9190613d04565b6113f6565b6040516103ae9190613a33565b60405180910390f35b6103d160048036038101906103cc9190613cd7565b611451565b6040516103de9190613a33565b60405180910390f35b6103ef61146e565b6040516103fc9190613d5f565b60405180910390f35b61041f600480360381019061041a9190613cd7565b611485565b005b61043b60048036038101906104369190613bd3565b611590565b005b610445611a89565b6040516104529190613a33565b60405180910390f35b61047560048036038101906104709190613cd7565b611a93565b6040516104829190613a33565b60405180910390f35b6104a560048036038101906104a09190613cd7565b611ab0565b005b6104c160048036038101906104bc9190613d7a565b611bbb565b005b6104dd60048036038101906104d89190613c97565b611d58565b005b6104f960048036038101906104f49190613cd7565b6120af565b6040516105069190613a33565b60405180910390f35b610529600480360381019061052491906139ed565b6120cc565b005b61054560048036038101906105409190613cd7565b61220f565b005b610561600480360381019061055c9190613d04565b61231a565b60405161056e9190613a33565b60405180910390f35b610591600480360381019061058c9190613df9565b612375565b005b6105ad60048036038101906105a89190613bd3565b612487565b005b6105c960048036038101906105c49190613e39565b6129ae565b005b6105e560048036038101906105e09190613cd7565b612a90565b6040516105f29190613d5f565b60405180910390f35b61061560048036038101906106109190613bd3565b612aba565b005b610631600480360381019061062c9190613c97565b612e29565b005b61063b6131c1565b6040516106489190613a33565b60405180910390f35b6106596131cb565b6040516106669190613d5f565b60405180910390f35b61068960048036038101906106849190613d7a565b613278565b005b61069361343b565b6040516106a09190613e88565b60405180910390f35b6106b1613492565b6040516106be9190613a33565b60405180910390f35b6106e160048036038101906106dc9190613e39565b61349c565b005b6106eb61357e565b6040516106f89190613e88565b60405180910390f35b61070961357e565b73ffffffffffffffffffffffffffffffffffffffff163373ffffffffffffffffffffffffffffffffffffffff161461076d576040517f7bfa4b9f00000000000000000000000000000000000000000000000000000000815260040160405180910390fd5b60008173ffffffffffffffffffffffffffffffffffffffff163b036107be576040517f68155f9a00000000000000000000000000000000000000000000000000000000815260040160405180910390fd5b806107eb7f360894a13ba1a3210667c828492db98dca3e2076cc3735a920a3ca505d382bbc60001b6135d5565b60000160006101000a81548173ffffffffffffffffffffffffffffffffffffffff021916908373ffffffffffffffffffffffffffffffffffffffff16021790555050565b6000601254905090565b6000600b54905090565b601460003373ffffffffffffffffffffffffffffffffffffffff1673ffffffffffffffffffffffffffffffffffffffff16815260200190815260200160002060009054906101000a900460ff16156108c7576040517f575c34b800000000000000000000000000000000000000000000000000000000815260040160405180910390fd5b6001601460003373ffffffffffffffffffffffffffffffffffffffff1673ffffffffffffffffffffffffffffffffffffffff16815260200190815260200160002060006101000a81548160ff021916908315150217905550601360009054906101000a900460ff1615610966576040517fe0a3980300000000000000000000000000000000000000000000000000000000815260040160405180910390fd5b60008151036109a1576040517f500ebb5000000000000000000000000000000000000000000000000000000000815260040160405180910390fd5b600080600090505b8251811015610aec5760008382815181106109c7576109c6613ea3565b5b602002602001015190506000600f600083815260200190815260200160002060003373ffffffffffffffffffffffffffffffffffffffff1673ffffffffffffffffffffffffffffffffffffffff1681526020019081526020016000205414610ade57600f600082815260200190815260200160002060003373ffffffffffffffffffffffffffffffffffffffff1673ffffffffffffffffffffffffffffffffffffffff1681526020019081526020016000205483610a859190613f01565b92506000600f600083815260200190815260200160002060003373ffffffffffffffffffffffffffffffffffffffff1673ffffffffffffffffffffffffffffffffffffffff168152602001908152602001600020819055505b5080806001019150506109a9565b5060008103610b27576040517f1f2a200500000000000000000000000000000000000000000000000000000000815260040160405180910390fd5b600160009054906101000a900473ffffffffffffffffffffffffffffffffffffffff1673ffffffffffffffffffffffffffffffffffffffff1663a9059cbb33836040518363ffffffff1660e01b8152600401610b84929190613f35565b6020604051808303816000875af1158015610ba3573d6000803e3d6000fd5b505050506040513d601f19601f82011682018060405250810190610bc79190613f73565b50803373ffffffffffffffffffffffffffffffffffffffff167f884edad9ce6fa2440d8a54cc123490eb96d2768479d49ff9c7366125a942436460405160405180910390a3506000601460003373ffffffffffffffffffffffffffffffffffffffff1673ffffffffffffffffffffffffffffffffffffffff16815260200190815260200160002060006101000a81548160ff02191690831515021790555050565b610c7061357e565b73ffffffffffffffffffffffffffffffffffffffff163373ffffffffffffffffffffffffffffffffffffffff1614610cd4576040517f7bfa4b9f00000000000000000000000000000000000000000000000000000000815260040160405180910390fd5b600073ffffffffffffffffffffffffffffffffffffffff168173ffffffffffffffffffffffffffffffffffffffff1614610d4a5780600160006101000a81548173ffffffffffffffffffffffffffffffffffffffff021916908373ffffffffffffffffffffffffffffffffffffffff1602179055505b600073ffffffffffffffffffffffffffffffffffffffff168373ffffffffffffffffffffffffffffffffffffffff1614610dc05782600260006101000a81548173ffffffffffffffffffffffffffffffffffffffff021916908373ffffffffffffffffffffffffffffffffffffffff1602179055505b600073ffffffffffffffffffffffffffffffffffffffff168473ffffffffffffffffffffffffffffffffffffffff1614610e365783600460006101000a81548173ffffffffffffffffffffffffffffffffffffffff021916908373ffffffffffffffffffffffffffffffffffffffff1602179055505b600073ffffffffffffffffffffffffffffffffffffffff168573ffffffffffffffffffffffffffffffffffffffff1614610eac5784600360006101000a81548173ffffffffffffffffffffffffffffffffffffffff021916908373ffffffffffffffffffffffffffffffffffffffff1602179055505b600073ffffffffffffffffffffffffffffffffffffffff168273ffffffffffffffffffffffffffffffffffffffff1614610f2157816000806101000a81548173ffffffffffffffffffffffffffffffffffffffff021916908373ffffffffffffffffffffffffffffffffffffffff1602179055505b5050505050565b600160009054906101000a900473ffffffffffffffffffffffffffffffffffffffff1673ffffffffffffffffffffffffffffffffffffffff166323b872dd8330846040518463ffffffff1660e01b8152600401610f8793929190613fa0565b6020604051808303816000875af1158015610fa6573d6000803e3d6000fd5b505050506040513d601f19601f82011682018060405250810190610fca9190613f73565b5080600b6000828254610fdd9190613f01565b925050819055508060126000828254610ff69190613f01565b92505081905550807f263e26dd700c4cdda6251008685f24afce8b3bd4f71844460f05055d45e91b4560405160405180910390a25050565b6000600954905090565b61104061357e565b73ffffffffffffffffffffffffffffffffffffffff163373ffffffffffffffffffffffffffffffffffffffff16141580156110c7575060008054906101000a900473ffffffffffffffffffffffffffffffffffffffff1673ffffffffffffffffffffffffffffffffffffffff163373ffffffffffffffffffffffffffffffffffffffff1614155b156110fe576040517f44bbc89d00000000000000000000000000000000000000000000000000000000815260040160405180910390fd5b60648111158061110e5750609681115b15611145576040517f6a43f8d100000000000000000000000000000000000000000000000000000000815260040160405180910390fd5b8060058190555050565b6000600a54905090565b600060086000838152602001908152602001600020549050919050565b600460009054906101000a900473ffffffffffffffffffffffffffffffffffffffff1673ffffffffffffffffffffffffffffffffffffffff163373ffffffffffffffffffffffffffffffffffffffff16146111fd576040517fe9606c0700000000000000000000000000000000000000000000000000000000815260040160405180910390fd5b6010600082815260200190815260200160002060009054906101000a900460ff1615611255576040517f316a47fe00000000000000000000000000000000000000000000000000000000815260040160405180910390fd5b6000600260009054906101000a900473ffffffffffffffffffffffffffffffffffffffff1673ffffffffffffffffffffffffffffffffffffffff1663da0ade50836040518263ffffffff1660e01b81526004016112b29190613a33565b602060405180830381865afa1580156112cf573d6000803e3d6000fd5b505050506040513d601f19601f820116820180604052508101906112f39190613fec565b90506000600c600084815260200190815260200160002060008373ffffffffffffffffffffffffffffffffffffffff1673ffffffffffffffffffffffffffffffffffffffff1681526020019081526020016000205490506113558382846135df565b6000600c600085815260200190815260200160002060008473ffffffffffffffffffffffffffffffffffffffff1673ffffffffffffffffffffffffffffffffffffffff1681526020019081526020016000208190555080600b60008282546113bd9190613f01565b92505081905550807f263e26dd700c4cdda6251008685f24afce8b3bd4f71844460f05055d45e91b4560405160405180910390a2505050565b6000600c600084815260200190815260200160002060008373ffffffffffffffffffffffffffffffffffffffff1673ffffffffffffffffffffffffffffffffffffffff16815260200190815260200160002054905092915050565b600060076000838152602001908152602001600020549050919050565b6000601360009054906101000a900460ff16905090565b61148d61357e565b73ffffffffffffffffffffffffffffffffffffffff163373ffffffffffffffffffffffffffffffffffffffff1614158015611514575060008054906101000a900473ffffffffffffffffffffffffffffffffffffffff1673ffffffffffffffffffffffffffffffffffffffff163373ffffffffffffffffffffffffffffffffffffffff1614155b1561154b576040517f44bbc89d00000000000000000000000000000000000000000000000000000000815260040160405180910390fd5b6005811115611586576040517f6a43f8d100000000000000000000000000000000000000000000000000000000815260040160405180910390fd5b80600a8190555050565b601460003373ffffffffffffffffffffffffffffffffffffffff1673ffffffffffffffffffffffffffffffffffffffff16815260200190815260200160002060009054906101000a900460ff1615611614576040517f575c34b800000000000000000000000000000000000000000000000000000000815260040160405180910390fd5b6001601460003373ffffffffffffffffffffffffffffffffffffffff1673ffffffffffffffffffffffffffffffffffffffff16815260200190815260200160002060006101000a81548160ff021916908315150217905550601360009054906101000a900460ff16156116b3576040517fe0a3980300000000000000000000000000000000000000000000000000000000815260040160405180910390fd5b60008151036116ee576040517f500ebb5000000000000000000000000000000000000000000000000000000000815260040160405180910390fd5b600080600090505b825181101561190d57600083828151811061171457611713613ea3565b5b602002602001015190506000600c600083815260200190815260200160002060003373ffffffffffffffffffffffffffffffffffffffff1673ffffffffffffffffffffffffffffffffffffffff168152602001908152602001600020541180156118455750600260009054906101000a900473ffffffffffffffffffffffffffffffffffffffff1673ffffffffffffffffffffffffffffffffffffffff1663da0ade50826040518263ffffffff1660e01b81526004016117d49190613a33565b602060405180830381865afa1580156117f1573d6000803e3d6000fd5b505050506040513d601f19601f820116820180604052508101906118159190613fec565b73ffffffffffffffffffffffffffffffffffffffff163373ffffffffffffffffffffffffffffffffffffffff1614155b156118ff57600c600082815260200190815260200160002060003373ffffffffffffffffffffffffffffffffffffffff1673ffffffffffffffffffffffffffffffffffffffff16815260200190815260200160002054836118a69190613f01565b92506000600c600083815260200190815260200160002060003373ffffffffffffffffffffffffffffffffffffffff1673ffffffffffffffffffffffffffffffffffffffff168152602001908152602001600020819055505b5080806001019150506116f6565b5060008103611948576040517f1f2a200500000000000000000000000000000000000000000000000000000000815260040160405180910390fd5b600160009054906101000a900473ffffffffffffffffffffffffffffffffffffffff1673ffffffffffffffffffffffffffffffffffffffff1663a9059cbb33836040518363ffffffff1660e01b81526004016119a5929190613f35565b6020604051808303816000875af11580156119c4573d6000803e3d6000fd5b505050506040513d601f19601f820116820180604052508101906119e89190613f73565b50803373ffffffffffffffffffffffffffffffffffffffff167f884edad9ce6fa2440d8a54cc123490eb96d2768479d49ff9c7366125a942436460405160405180910390a3506000601460003373ffffffffffffffffffffffffffffffffffffffff1673ffffffffffffffffffffffffffffffffffffffff16815260200190815260200160002060006101000a81548160ff02191690831515021790555050565b6000600654905090565b6000600d6000838152602001908152602001600020549050919050565b611ab861357e565b73ffffffffffffffffffffffffffffffffffffffff163373ffffffffffffffffffffffffffffffffffffffff1614158015611b3f575060008054906101000a900473ffffffffffffffffffffffffffffffffffffffff1673ffffffffffffffffffffffffffffffffffffffff163373ffffffffffffffffffffffffffffffffffffffff1614155b15611b76576040517f44bbc89d00000000000000000000000000000000000000000000000000000000815260040160405180910390fd5b600a811115611bb1576040517f6a43f8d100000000000000000000000000000000000000000000000000000000815260040160405180910390fd5b8060098190555050565b600160009054906101000a900473ffffffffffffffffffffffffffffffffffffffff1673ffffffffffffffffffffffffffffffffffffffff166323b872dd8430846040518463ffffffff1660e01b8152600401611c1a93929190613fa0565b6020604051808303816000875af1158015611c39573d6000803e3d6000fd5b505050506040513d601f19601f82011682018060405250810190611c5d9190613f73565b5080600b6000828254611c709190613f01565b925050819055506000606460065483611c899190614019565b611c93919061408a565b90508060126000828254611ca79190613f01565b9250508190555060006064600a5484611cc09190614019565b611cca919061408a565b905080600e60008681526020019081526020016000206000828254611cef9190613f01565b92505081905550808284611d0391906140bb565b611d0d91906140bb565b600d600086815260200190815260200160002081905550827f263e26dd700c4cdda6251008685f24afce8b3bd4f71844460f05055d45e91b4560405160405180910390a25050505050565b601460003373ffffffffffffffffffffffffffffffffffffffff1673ffffffffffffffffffffffffffffffffffffffff16815260200190815260200160002060009054906101000a900460ff1615611ddc576040517f575c34b800000000000000000000000000000000000000000000000000000000815260040160405180910390fd5b6001601460003373ffffffffffffffffffffffffffffffffffffffff1673ffffffffffffffffffffffffffffffffffffffff16815260200190815260200160002060006101000a81548160ff021916908315150217905550601360009054906101000a900460ff1615611e7b576040517fe0a3980300000000000000000000000000000000000000000000000000000000815260040160405180910390fd5b600460009054906101000a900473ffffffffffffffffffffffffffffffffffffffff1673ffffffffffffffffffffffffffffffffffffffff163373ffffffffffffffffffffffffffffffffffffffff1614611f02576040517fe9606c0700000000000000000000000000000000000000000000000000000000815260040160405180910390fd5b6000600e600083815260200190815260200160002054905060008103611f54576040517f1f2a200500000000000000000000000000000000000000000000000000000000815260040160405180910390fd5b600160009054906101000a900473ffffffffffffffffffffffffffffffffffffffff1673ffffffffffffffffffffffffffffffffffffffff1663a9059cbb84836040518363ffffffff1660e01b8152600401611fb1929190613f35565b6020604051808303816000875af1158015611fd0573d6000803e3d6000fd5b505050506040513d601f19601f82011682018060405250810190611ff49190613f73565b506000600e600084815260200190815260200160002081905550808373ffffffffffffffffffffffffffffffffffffffff167f884edad9ce6fa2440d8a54cc123490eb96d2768479d49ff9c7366125a942436460405160405180910390a3506000601460003373ffffffffffffffffffffffffffffffffffffffff1673ffffffffffffffffffffffffffffffffffffffff16815260200190815260200160002060006101000a81548160ff0219169083151502179055505050565b6000600e6000838152602001908152602001600020549050919050565b6120d461357e565b73ffffffffffffffffffffffffffffffffffffffff163373ffffffffffffffffffffffffffffffffffffffff1614612138576040517f7bfa4b9f00000000000000000000000000000000000000000000000000000000815260040160405180910390fd5b600073ffffffffffffffffffffffffffffffffffffffff168173ffffffffffffffffffffffffffffffffffffffff160361219e576040517fd92e233d00000000000000000000000000000000000000000000000000000000815260040160405180910390fd5b806121cb7fb53127684a568b3173ae13b9f8a6016e243e63b6e8ee1178d6a717850b5d610360001b6135d5565b60000160006101000a81548173ffffffffffffffffffffffffffffffffffffffff021916908373ffffffffffffffffffffffffffffffffffffffff16021790555050565b61221761357e565b73ffffffffffffffffffffffffffffffffffffffff163373ffffffffffffffffffffffffffffffffffffffff161415801561229e575060008054906101000a900473ffffffffffffffffffffffffffffffffffffffff1673ffffffffffffffffffffffffffffffffffffffff163373ffffffffffffffffffffffffffffffffffffffff1614155b156122d5576040517f44bbc89d00000000000000000000000000000000000000000000000000000000815260040160405180910390fd5b600a811115612310576040517f6a43f8d100000000000000000000000000000000000000000000000000000000815260040160405180910390fd5b8060068190555050565b6000600f600084815260200190815260200160002060008373ffffffffffffffffffffffffffffffffffffffff1673ffffffffffffffffffffffffffffffffffffffff16815260200190815260200160002054905092915050565b600460009054906101000a900473ffffffffffffffffffffffffffffffffffffffff1673ffffffffffffffffffffffffffffffffffffffff163373ffffffffffffffffffffffffffffffffffffffff16141580156124215750600260009054906101000a900473ffffffffffffffffffffffffffffffffffffffff1673ffffffffffffffffffffffffffffffffffffffff163373ffffffffffffffffffffffffffffffffffffffff1614155b15612458576040517fe9606c0700000000000000000000000000000000000000000000000000000000815260040160405180910390fd5b806010600084815260200190815260200160002060006101000a81548160ff0219169083151502179055505050565b601460003373ffffffffffffffffffffffffffffffffffffffff1673ffffffffffffffffffffffffffffffffffffffff16815260200190815260200160002060009054906101000a900460ff161561250b576040517f575c34b800000000000000000000000000000000000000000000000000000000815260040160405180910390fd5b6001601460003373ffffffffffffffffffffffffffffffffffffffff1673ffffffffffffffffffffffffffffffffffffffff16815260200190815260200160002060006101000a81548160ff021916908315150217905550601360009054906101000a900460ff16156125aa576040517fe0a3980300000000000000000000000000000000000000000000000000000000815260040160405180910390fd5b60008151036125e5576040517f500ebb5000000000000000000000000000000000000000000000000000000000815260040160405180910390fd5b600080600090505b825181101561283257600083828151811061260b5761260a613ea3565b5b60200260200101519050600260009054906101000a900473ffffffffffffffffffffffffffffffffffffffff1673ffffffffffffffffffffffffffffffffffffffff1663da0ade50826040518263ffffffff1660e01b81526004016126709190613a33565b602060405180830381865afa15801561268d573d6000803e3d6000fd5b505050506040513d601f19601f820116820180604052508101906126b19190613fec565b73ffffffffffffffffffffffffffffffffffffffff163373ffffffffffffffffffffffffffffffffffffffff1614158061270957506010600082815260200190815260200160002060009054906101000a900460ff16155b8061276457506000600c600083815260200190815260200160002060003373ffffffffffffffffffffffffffffffffffffffff1673ffffffffffffffffffffffffffffffffffffffff16815260200190815260200160002054145b1561276f5750612825565b600c600082815260200190815260200160002060003373ffffffffffffffffffffffffffffffffffffffff1673ffffffffffffffffffffffffffffffffffffffff16815260200190815260200160002054836127cb9190613f01565b92506000600c600083815260200190815260200160002060003373ffffffffffffffffffffffffffffffffffffffff1673ffffffffffffffffffffffffffffffffffffffff16815260200190815260200160002081905550505b80806001019150506125ed565b506000810361286d576040517f1f2a200500000000000000000000000000000000000000000000000000000000815260040160405180910390fd5b600160009054906101000a900473ffffffffffffffffffffffffffffffffffffffff1673ffffffffffffffffffffffffffffffffffffffff1663a9059cbb33836040518363ffffffff1660e01b81526004016128ca929190613f35565b6020604051808303816000875af11580156128e9573d6000803e3d6000fd5b505050506040513d601f19601f8201168201806040525081019061290d9190613f73565b50803373ffffffffffffffffffffffffffffffffffffffff167f884edad9ce6fa2440d8a54cc123490eb96d2768479d49ff9c7366125a942436460405160405180910390a3506000601460003373ffffffffffffffffffffffffffffffffffffffff1673ffffffffffffffffffffffffffffffffffffffff16815260200190815260200160002060006101000a81548160ff02191690831515021790555050565b600260009054906101000a900473ffffffffffffffffffffffffffffffffffffffff1673ffffffffffffffffffffffffffffffffffffffff163373ffffffffffffffffffffffffffffffffffffffff1614612a35576040517fe9606c0700000000000000000000000000000000000000000000000000000000815260040160405180910390fd5b806008600084815260200190815260200160002060008282540192505081905550603260086000848152602001908152602001600020541115612a8c57603260086000848152602001908152602001600020819055505b5050565b60006010600083815260200190815260200160002060009054906101000a900460ff169050919050565b601460003373ffffffffffffffffffffffffffffffffffffffff1673ffffffffffffffffffffffffffffffffffffffff16815260200190815260200160002060009054906101000a900460ff1615612b3e576040517f575c34b800000000000000000000000000000000000000000000000000000000815260040160405180910390fd5b6001601460003373ffffffffffffffffffffffffffffffffffffffff1673ffffffffffffffffffffffffffffffffffffffff16815260200190815260200160002060006101000a81548160ff021916908315150217905550601360009054906101000a900460ff1615612bdd576040517fe0a3980300000000000000000000000000000000000000000000000000000000815260040160405180910390fd5b6000815103612c18576040517f500ebb5000000000000000000000000000000000000000000000000000000000815260040160405180910390fd5b600080600090505b8251811015612cad576000838281518110612c3e57612c3d613ea3565b5b602002602001015190506000600d6000838152602001908152602001600020541115612c9f57600d60008281526020019081526020016000205483612c839190613f01565b92506000600d6000838152602001908152602001600020819055505b508080600101915050612c20565b5060008103612ce8576040517f1f2a200500000000000000000000000000000000000000000000000000000000815260040160405180910390fd5b600160009054906101000a900473ffffffffffffffffffffffffffffffffffffffff1673ffffffffffffffffffffffffffffffffffffffff1663a9059cbb33836040518363ffffffff1660e01b8152600401612d45929190613f35565b6020604051808303816000875af1158015612d64573d6000803e3d6000fd5b505050506040513d601f19601f82011682018060405250810190612d889190613f73565b50803373ffffffffffffffffffffffffffffffffffffffff167f884edad9ce6fa2440d8a54cc123490eb96d2768479d49ff9c7366125a942436460405160405180910390a3506000601460003373ffffffffffffffffffffffffffffffffffffffff1673ffffffffffffffffffffffffffffffffffffffff16815260200190815260200160002060006101000a81548160ff02191690831515021790555050565b612e3161357e565b73ffffffffffffffffffffffffffffffffffffffff163373ffffffffffffffffffffffffffffffffffffffff1614158015612eb8575060008054906101000a900473ffffffffffffffffffffffffffffffffffffffff1673ffffffffffffffffffffffffffffffffffffffff163373ffffffffffffffffffffffffffffffffffffffff1614155b15612eef576040517f44bbc89d00000000000000000000000000000000000000000000000000000000815260040160405180910390fd5b601460003373ffffffffffffffffffffffffffffffffffffffff1673ffffffffffffffffffffffffffffffffffffffff16815260200190815260200160002060009054906101000a900460ff1615612f73576040517f575c34b800000000000000000000000000000000000000000000000000000000815260040160405180910390fd5b6001601460003373ffffffffffffffffffffffffffffffffffffffff1673ffffffffffffffffffffffffffffffffffffffff16815260200190815260200160002060006101000a81548160ff021916908315150217905550601360009054906101000a900460ff1615613012576040517fe0a3980300000000000000000000000000000000000000000000000000000000815260040160405180910390fd5b80601254101561304e576040517f5945ea5600000000000000000000000000000000000000000000000000000000815260040160405180910390fd5b600160009054906101000a900473ffffffffffffffffffffffffffffffffffffffff1673ffffffffffffffffffffffffffffffffffffffff1663a9059cbb83836040518363ffffffff1660e01b81526004016130ab929190613f35565b6020604051808303816000875af11580156130ca573d6000803e3d6000fd5b505050506040513d601f19601f820116820180604052508101906130ee9190613f73565b5080601160008282546131019190613f01565b92505081905550806012600082825461311a91906140bb565b92505081905550808273ffffffffffffffffffffffffffffffffffffffff167f884edad9ce6fa2440d8a54cc123490eb96d2768479d49ff9c7366125a942436460405160405180910390a36000601460003373ffffffffffffffffffffffffffffffffffffffff1673ffffffffffffffffffffffffffffffffffffffff16815260200190815260200160002060006101000a81548160ff0219169083151502179055505050565b6000601154905090565b60006131d561357e565b73ffffffffffffffffffffffffffffffffffffffff163373ffffffffffffffffffffffffffffffffffffffff1614613239576040517f7bfa4b9f00000000000000000000000000000000000000000000000000000000815260040160405180910390fd5b601360009054906101000a900460ff1615601360006101000a81548160ff021916908315150217905550601360009054906101000a900460ff16905090565b600260009054906101000a900473ffffffffffffffffffffffffffffffffffffffff1673ffffffffffffffffffffffffffffffffffffffff163373ffffffffffffffffffffffffffffffffffffffff16146132ff576040517fe9606c0700000000000000000000000000000000000000000000000000000000815260040160405180910390fd5b600160009054906101000a900473ffffffffffffffffffffffffffffffffffffffff1673ffffffffffffffffffffffffffffffffffffffff166323b872dd8430846040518463ffffffff1660e01b815260040161335e93929190613fa0565b6020604051808303816000875af115801561337d573d6000803e3d6000fd5b505050506040513d601f19601f820116820180604052508101906133a19190613f73565b5080600c600084815260200190815260200160002060008573ffffffffffffffffffffffffffffffffffffffff1673ffffffffffffffffffffffffffffffffffffffff16815260200190815260200160002060008282546134029190613f01565b92505081905550807fb2bfb1c12e7e755a2f19052de99818d59a4d15365bcb88b3992aab1d18673b4960405160405180910390a2505050565b60006134697f360894a13ba1a3210667c828492db98dca3e2076cc3735a920a3ca505d382bbc60001b6135d5565b60000160009054906101000a900473ffffffffffffffffffffffffffffffffffffffff16905090565b6000600554905090565b600260009054906101000a900473ffffffffffffffffffffffffffffffffffffffff1673ffffffffffffffffffffffffffffffffffffffff163373ffffffffffffffffffffffffffffffffffffffff1614613523576040517fe9606c0700000000000000000000000000000000000000000000000000000000815260040160405180910390fd5b806007600084815260200190815260200160002060008282540192505081905550600a6007600084815260200190815260200160002054111561357a57600a60076000848152602001908152602001600020819055505b5050565b60006135ac7fb53127684a568b3173ae13b9f8a6016e243e63b6e8ee1178d6a717850b5d610360001b6135d5565b60000160009054906101000a900473ffffffffffffffffffffffffffffffffffffffff16905090565b6000819050919050565b60006064600654846135f19190614019565b6135fb919061408a565b9050806012600082825461360f9190613f01565b9250508190555060006064600a54856136289190614019565b613632919061408a565b905080600e600087815260200190815260200160002060008282546136579190613f01565b92505081905550600080600080600760008a81526020019081526020016000205490506000600860008b81526020019081526020016000205490506000600260009054906101000a900473ffffffffffffffffffffffffffffffffffffffff1673ffffffffffffffffffffffffffffffffffffffff16637520fce78c6040518263ffffffff1660e01b81526004016136ef9190613a33565b602060405180830381865afa15801561370c573d6000803e3d6000fd5b505050506040513d601f19601f820116820180604052508101906137309190613fec565b905060008311156137c4576064838b6137499190614019565b613753919061408a565b955085600f60008d8152602001908152602001600020600061377361357e565b73ffffffffffffffffffffffffffffffffffffffff1673ffffffffffffffffffffffffffffffffffffffff16815260200190815260200160002060008282546137bc9190613f01565b925050819055505b600082111561384f576064828b6137db9190614019565b6137e5919061408a565b945084600f60008d815260200190815260200160002060008b73ffffffffffffffffffffffffffffffffffffffff1673ffffffffffffffffffffffffffffffffffffffff16815260200190815260200160002060008282546138479190613f01565b925050819055505b600073ffffffffffffffffffffffffffffffffffffffff168173ffffffffffffffffffffffffffffffffffffffff16146139075760646009548b6138939190614019565b61389d919061408a565b935083600f60008d815260200190815260200160002060008373ffffffffffffffffffffffffffffffffffffffff1673ffffffffffffffffffffffffffffffffffffffff16815260200190815260200160002060008282546138ff9190613f01565b925050819055505b6000878587898c8f61391991906140bb565b61392391906140bb565b61392d91906140bb565b61393791906140bb565b61394191906140bb565b905080600d60008e815260200190815260200160002060008282546139669190613f01565b92505081905550505050505050505050505050565b6000604051905090565b600080fd5b600080fd5b600073ffffffffffffffffffffffffffffffffffffffff82169050919050565b60006139ba8261398f565b9050919050565b6139ca816139af565b81146139d557600080fd5b50565b6000813590506139e7816139c1565b92915050565b600060208284031215613a0357613a02613985565b5b6000613a11848285016139d8565b91505092915050565b6000819050919050565b613a2d81613a1a565b82525050565b6000602082019050613a486000830184613a24565b92915050565b600080fd5b6000601f19601f8301169050919050565b7f4e487b7100000000000000000000000000000000000000000000000000000000600052604160045260246000fd5b613a9c82613a53565b810181811067ffffffffffffffff82111715613abb57613aba613a64565b5b80604052505050565b6000613ace61397b565b9050613ada8282613a93565b919050565b600067ffffffffffffffff821115613afa57613af9613a64565b5b602082029050602081019050919050565b600080fd5b613b1981613a1a565b8114613b2457600080fd5b50565b600081359050613b3681613b10565b92915050565b6000613b4f613b4a84613adf565b613ac4565b90508083825260208201905060208402830185811115613b7257613b71613b0b565b5b835b81811015613b9b5780613b878882613b27565b845260208401935050602081019050613b74565b5050509392505050565b600082601f830112613bba57613bb9613a4e565b5b8135613bca848260208601613b3c565b91505092915050565b600060208284031215613be957613be8613985565b5b600082013567ffffffffffffffff811115613c0757613c0661398a565b5b613c1384828501613ba5565b91505092915050565b600080600080600060a08688031215613c3857613c37613985565b5b6000613c46888289016139d8565b9550506020613c57888289016139d8565b9450506040613c68888289016139d8565b9350506060613c79888289016139d8565b9250506080613c8a888289016139d8565b9150509295509295909350565b60008060408385031215613cae57613cad613985565b5b6000613cbc858286016139d8565b9250506020613ccd85828601613b27565b9150509250929050565b600060208284031215613ced57613cec613985565b5b6000613cfb84828501613b27565b91505092915050565b60008060408385031215613d1b57613d1a613985565b5b6000613d2985828601613b27565b9250506020613d3a858286016139d8565b9150509250929050565b60008115159050919050565b613d5981613d44565b82525050565b6000602082019050613d746000830184613d50565b92915050565b600080600060608486031215613d9357613d92613985565b5b6000613da1868287016139d8565b9350506020613db286828701613b27565b9250506040613dc386828701613b27565b9150509250925092565b613dd681613d44565b8114613de157600080fd5b50565b600081359050613df381613dcd565b92915050565b60008060408385031215613e1057613e0f613985565b5b6000613e1e85828601613b27565b9250506020613e2f85828601613de4565b9150509250929050565b60008060408385031215613e5057613e4f613985565b5b6000613e5e85828601613b27565b9250506020613e6f85828601613b27565b9150509250929050565b613e82816139af565b82525050565b6000602082019050613e9d6000830184613e79565b92915050565b7f4e487b7100000000000000000000000000000000000000000000000000000000600052603260045260246000fd5b7f4e487b7100000000000000000000000000000000000000000000000000000000600052601160045260246000fd5b6000613f0c82613a1a565b9150613f1783613a1a565b9250828201905080821115613f2f57613f2e613ed2565b5b92915050565b6000604082019050613f4a6000830185613e79565b613f576020830184613a24565b9392505050565b600081519050613f6d81613dcd565b92915050565b600060208284031215613f8957613f88613985565b5b6000613f9784828501613f5e565b91505092915050565b6000606082019050613fb56000830186613e79565b613fc26020830185613e79565b613fcf6040830184613a24565b949350505050565b600081519050613fe6816139c1565b92915050565b60006020828403121561400257614001613985565b5b600061401084828501613fd7565b91505092915050565b600061402482613a1a565b915061402f83613a1a565b925082820261403d81613a1a565b9150828204841483151761405457614053613ed2565b5b5092915050565b7f4e487b7100000000000000000000000000000000000000000000000000000000600052601260045260246000fd5b600061409582613a1a565b91506140a083613a1a565b9250826140b0576140af61405b565b5b828204905092915050565b60006140c682613a1a565b91506140d183613a1a565b92508282039050818111156140e9576140e8613ed2565b5b9291505056fea2646970667358221220f80bcde37b743dc771d64b7a0ea5f764506ff983b98aaa00bd335ece7831f62564736f6c63430008180033",
  "linkReferences": {},
  "deployedLinkReferences": {}
}