{
  "_format": "hh-sol-artifact-1",
  "contractName": "TruthBox",
  "sourceName": "contracts/TruthBox.sol",
  "abi": [
    {
      "inputs": [],
      "stateMutability": "nonpayable",
      "type": "constructor"
    },
    {
      "inputs": [],
      "name": "BlackTokenIdNotExist",
      "type": "error"
    },
    {
      "inputs": [],
      "name": "Blacklisted",
      "type": "error"
    },
    {
      "inputs": [
        {
          "internalType": "address",
          "name": "sender",
          "type": "address"
        },
        {
          "internalType": "uint256",
          "name": "tokenId",
          "type": "uint256"
        },
        {
          "internalType": "address",
          "name": "owner",
          "type": "address"
        }
      ],
      "name": "ERC721IncorrectOwner",
      "type": "error"
    },
    {
      "inputs": [
        {
          "internalType": "address",
          "name": "operator",
          "type": "address"
        },
        {
          "internalType": "uint256",
          "name": "tokenId",
          "type": "uint256"
        }
      ],
      "name": "ERC721InsufficientApproval",
      "type": "error"
    },
    {
      "inputs": [
        {
          "internalType": "address",
          "name": "approver",
          "type": "address"
        }
      ],
      "name": "ERC721InvalidApprover",
      "type": "error"
    },
    {
      "inputs": [
        {
          "internalType": "address",
          "name": "operator",
          "type": "address"
        }
      ],
      "name": "ERC721InvalidOperator",
      "type": "error"
    },
    {
      "inputs": [
        {
          "internalType": "address",
          "name": "owner",
          "type": "address"
        }
      ],
      "name": "ERC721InvalidOwner",
      "type": "error"
    },
    {
      "inputs": [
        {
          "internalType": "address",
          "name": "receiver",
          "type": "address"
        }
      ],
      "name": "ERC721InvalidReceiver",
      "type": "error"
    },
    {
      "inputs": [
        {
          "internalType": "address",
          "name": "sender",
          "type": "address"
        }
      ],
      "name": "ERC721InvalidSender",
      "type": "error"
    },
    {
      "inputs": [
        {
          "internalType": "uint256",
          "name": "tokenId",
          "type": "uint256"
        }
      ],
      "name": "ERC721NonexistentToken",
      "type": "error"
    },
    {
      "inputs": [],
      "name": "EmptyFileInfo",
      "type": "error"
    },
    {
      "inputs": [],
      "name": "EmptyPassword",
      "type": "error"
    },
    {
      "inputs": [],
      "name": "EmptyTokenInfo",
      "type": "error"
    },
    {
      "inputs": [],
      "name": "InvalidCaller",
      "type": "error"
    },
    {
      "inputs": [],
      "name": "InvalidContractCaller",
      "type": "error"
    },
    {
      "inputs": [],
      "name": "InvalidImplementation",
      "type": "error"
    },
    {
      "inputs": [],
      "name": "InvalidStatus",
      "type": "error"
    },
    {
      "inputs": [],
      "name": "NotAdmin",
      "type": "error"
    },
    {
      "inputs": [],
      "name": "NotAdminOrDAO",
      "type": "error"
    },
    {
      "inputs": [],
      "name": "NotBuyer",
      "type": "error"
    },
    {
      "inputs": [],
      "name": "NotMinter",
      "type": "error"
    },
    {
      "inputs": [],
      "name": "NotOwner",
      "type": "error"
    },
    {
      "inputs": [],
      "name": "NotSeller",
      "type": "error"
    },
    {
      "inputs": [],
      "name": "PublicTimeNotEnd",
      "type": "error"
    },
    {
      "inputs": [],
      "name": "TokenNotExists",
      "type": "error"
    },
    {
      "inputs": [],
      "name": "ZeroAddress",
      "type": "error"
    },
    {
      "anonymous": false,
      "inputs": [
        {
          "indexed": true,
          "internalType": "address",
          "name": "owner",
          "type": "address"
        },
        {
          "indexed": true,
          "internalType": "address",
          "name": "approved",
          "type": "address"
        },
        {
          "indexed": true,
          "internalType": "uint256",
          "name": "tokenId",
          "type": "uint256"
        }
      ],
      "name": "Approval",
      "type": "event"
    },
    {
      "anonymous": false,
      "inputs": [
        {
          "indexed": true,
          "internalType": "address",
          "name": "owner",
          "type": "address"
        },
        {
          "indexed": true,
          "internalType": "address",
          "name": "operator",
          "type": "address"
        },
        {
          "indexed": false,
          "internalType": "bool",
          "name": "approved",
          "type": "bool"
        }
      ],
      "name": "ApprovalForAll",
      "type": "event"
    },
    {
      "anonymous": false,
      "inputs": [
        {
          "indexed": false,
          "internalType": "uint256",
          "name": "tokenId_",
          "type": "uint256"
        }
      ],
      "name": "Public",
      "type": "event"
    },
    {
      "anonymous": false,
      "inputs": [
        {
          "indexed": true,
          "internalType": "address",
          "name": "from",
          "type": "address"
        },
        {
          "indexed": true,
          "internalType": "address",
          "name": "to",
          "type": "address"
        },
        {
          "indexed": true,
          "internalType": "uint256",
          "name": "tokenId",
          "type": "uint256"
        }
      ],
      "name": "Transfer",
      "type": "event"
    },
    {
      "inputs": [],
      "name": "Admin",
      "outputs": [
        {
          "internalType": "address",
          "name": "",
          "type": "address"
        }
      ],
      "stateMutability": "view",
      "type": "function"
    },
    {
      "inputs": [],
      "name": "Implementation",
      "outputs": [
        {
          "internalType": "address",
          "name": "",
          "type": "address"
        }
      ],
      "stateMutability": "view",
      "type": "function"
    },
    {
      "inputs": [
        {
          "internalType": "uint256",
          "name": "tokenId_",
          "type": "uint256"
        }
      ],
      "name": "addBlackTokenId",
      "outputs": [],
      "stateMutability": "nonpayable",
      "type": "function"
    },
    {
      "inputs": [
        {
          "internalType": "address",
          "name": "to",
          "type": "address"
        },
        {
          "internalType": "uint256",
          "name": "tokenId",
          "type": "uint256"
        }
      ],
      "name": "approve",
      "outputs": [],
      "stateMutability": "nonpayable",
      "type": "function"
    },
    {
      "inputs": [
        {
          "internalType": "address",
          "name": "owner",
          "type": "address"
        }
      ],
      "name": "balanceOf",
      "outputs": [
        {
          "internalType": "uint256",
          "name": "",
          "type": "uint256"
        }
      ],
      "stateMutability": "view",
      "type": "function"
    },
    {
      "inputs": [],
      "name": "blackSupply",
      "outputs": [
        {
          "internalType": "uint256",
          "name": "",
          "type": "uint256"
        }
      ],
      "stateMutability": "view",
      "type": "function"
    },
    {
      "inputs": [
        {
          "internalType": "address",
          "name": "newAdmin_",
          "type": "address"
        }
      ],
      "name": "changeAdmin",
      "outputs": [],
      "stateMutability": "nonpayable",
      "type": "function"
    },
    {
      "inputs": [
        {
          "internalType": "uint256",
          "name": "tokenId",
          "type": "uint256"
        }
      ],
      "name": "getApproved",
      "outputs": [
        {
          "internalType": "address",
          "name": "",
          "type": "address"
        }
      ],
      "stateMutability": "view",
      "type": "function"
    },
    {
      "inputs": [
        {
          "internalType": "uint256",
          "name": "tokenId_",
          "type": "uint256"
        }
      ],
      "name": "getBoxInfo",
      "outputs": [
        {
          "internalType": "string",
          "name": "",
          "type": "string"
        },
        {
          "internalType": "string",
          "name": "",
          "type": "string"
        },
        {
          "internalType": "string",
          "name": "",
          "type": "string"
        },
        {
          "internalType": "string",
          "name": "",
          "type": "string"
        },
        {
          "internalType": "uint256",
          "name": "",
          "type": "uint256"
        },
        {
          "internalType": "uint256",
          "name": "",
          "type": "uint256"
        },
        {
          "internalType": "enum TruthBox.Status",
          "name": "",
          "type": "uint8"
        }
      ],
      "stateMutability": "view",
      "type": "function"
    },
    {
      "inputs": [
        {
          "internalType": "uint256",
          "name": "tokenId_",
          "type": "uint256"
        }
      ],
      "name": "getDeadline",
      "outputs": [
        {
          "internalType": "uint256",
          "name": "",
          "type": "uint256"
        }
      ],
      "stateMutability": "view",
      "type": "function"
    },
    {
      "inputs": [
        {
          "internalType": "uint256",
          "name": "tokenId_",
          "type": "uint256"
        }
      ],
      "name": "getPrice",
      "outputs": [
        {
          "internalType": "uint256",
          "name": "",
          "type": "uint256"
        }
      ],
      "stateMutability": "view",
      "type": "function"
    },
    {
      "inputs": [
        {
          "internalType": "uint256",
          "name": "tokenId_",
          "type": "uint256"
        }
      ],
      "name": "getStatus",
      "outputs": [
        {
          "internalType": "enum TruthBox.Status",
          "name": "",
          "type": "uint8"
        }
      ],
      "stateMutability": "view",
      "type": "function"
    },
    {
      "inputs": [
        {
          "internalType": "address",
          "name": "owner",
          "type": "address"
        },
        {
          "internalType": "address",
          "name": "operator",
          "type": "address"
        }
      ],
      "name": "isApprovedForAll",
      "outputs": [
        {
          "internalType": "bool",
          "name": "",
          "type": "bool"
        }
      ],
      "stateMutability": "view",
      "type": "function"
    },
    {
      "inputs": [
        {
          "internalType": "uint256",
          "name": "tokenId_",
          "type": "uint256"
        }
      ],
      "name": "isBlackTokenId",
      "outputs": [
        {
          "internalType": "bool",
          "name": "",
          "type": "bool"
        }
      ],
      "stateMutability": "view",
      "type": "function"
    },
    {
      "inputs": [],
      "name": "logoURI",
      "outputs": [
        {
          "internalType": "string",
          "name": "",
          "type": "string"
        }
      ],
      "stateMutability": "view",
      "type": "function"
    },
    {
      "inputs": [
        {
          "internalType": "string",
          "name": "infoURI_",
          "type": "string"
        },
        {
          "internalType": "string",
          "name": "tokenURI_",
          "type": "string"
        }
      ],
      "name": "mint",
      "outputs": [
        {
          "internalType": "uint256",
          "name": "",
          "type": "uint256"
        }
      ],
      "stateMutability": "nonpayable",
      "type": "function"
    },
    {
      "inputs": [
        {
          "internalType": "string",
          "name": "infoURI_",
          "type": "string"
        },
        {
          "internalType": "string",
          "name": "tokenURI_",
          "type": "string"
        },
        {
          "internalType": "string",
          "name": "fileCID_",
          "type": "string"
        },
        {
          "internalType": "string",
          "name": "password_",
          "type": "string"
        }
      ],
      "name": "mintPublic",
      "outputs": [],
      "stateMutability": "nonpayable",
      "type": "function"
    },
    {
      "inputs": [
        {
          "internalType": "uint256",
          "name": "tokenId_",
          "type": "uint256"
        }
      ],
      "name": "minterOf",
      "outputs": [
        {
          "internalType": "address",
          "name": "",
          "type": "address"
        }
      ],
      "stateMutability": "view",
      "type": "function"
    },
    {
      "inputs": [],
      "name": "name",
      "outputs": [
        {
          "internalType": "string",
          "name": "",
          "type": "string"
        }
      ],
      "stateMutability": "view",
      "type": "function"
    },
    {
      "inputs": [
        {
          "internalType": "uint256",
          "name": "tokenId",
          "type": "uint256"
        }
      ],
      "name": "ownerOf",
      "outputs": [
        {
          "internalType": "address",
          "name": "",
          "type": "address"
        }
      ],
      "stateMutability": "view",
      "type": "function"
    },
    {
      "inputs": [
        {
          "internalType": "uint256",
          "name": "tokenId_",
          "type": "uint256"
        },
        {
          "internalType": "string",
          "name": "fileCID_",
          "type": "string"
        },
        {
          "internalType": "string",
          "name": "password_",
          "type": "string"
        }
      ],
      "name": "publicMinter",
      "outputs": [],
      "stateMutability": "nonpayable",
      "type": "function"
    },
    {
      "inputs": [
        {
          "internalType": "uint256",
          "name": "tokenId_",
          "type": "uint256"
        }
      ],
      "name": "removeBlackTokenId",
      "outputs": [],
      "stateMutability": "nonpayable",
      "type": "function"
    },
    {
      "inputs": [
        {
          "internalType": "address",
          "name": "from",
          "type": "address"
        },
        {
          "internalType": "address",
          "name": "to",
          "type": "address"
        },
        {
          "internalType": "uint256",
          "name": "tokenId",
          "type": "uint256"
        }
      ],
      "name": "safeTransferFrom",
      "outputs": [],
      "stateMutability": "nonpayable",
      "type": "function"
    },
    {
      "inputs": [
        {
          "internalType": "address",
          "name": "from",
          "type": "address"
        },
        {
          "internalType": "address",
          "name": "to",
          "type": "address"
        },
        {
          "internalType": "uint256",
          "name": "tokenId",
          "type": "uint256"
        },
        {
          "internalType": "bytes",
          "name": "data",
          "type": "bytes"
        }
      ],
      "name": "safeTransferFrom",
      "outputs": [],
      "stateMutability": "nonpayable",
      "type": "function"
    },
    {
      "inputs": [
        {
          "internalType": "address",
          "name": "box_status_",
          "type": "address"
        },
        {
          "internalType": "address",
          "name": "exchange_",
          "type": "address"
        },
        {
          "internalType": "address",
          "name": "encryption_",
          "type": "address"
        },
        {
          "internalType": "address",
          "name": "payFee_",
          "type": "address"
        },
        {
          "internalType": "address",
          "name": "dao_",
          "type": "address"
        }
      ],
      "name": "setAddress",
      "outputs": [],
      "stateMutability": "nonpayable",
      "type": "function"
    },
    {
      "inputs": [
        {
          "internalType": "address",
          "name": "operator",
          "type": "address"
        },
        {
          "internalType": "bool",
          "name": "approved",
          "type": "bool"
        }
      ],
      "name": "setApprovalForAll",
      "outputs": [],
      "stateMutability": "nonpayable",
      "type": "function"
    },
    {
      "inputs": [
        {
          "internalType": "uint256",
          "name": "tokenId_",
          "type": "uint256"
        },
        {
          "internalType": "string",
          "name": "fileCID_",
          "type": "string"
        },
        {
          "internalType": "string",
          "name": "password_",
          "type": "string"
        }
      ],
      "name": "setCidPassword",
      "outputs": [],
      "stateMutability": "nonpayable",
      "type": "function"
    },
    {
      "inputs": [
        {
          "internalType": "uint256",
          "name": "tokenId_",
          "type": "uint256"
        },
        {
          "internalType": "uint256",
          "name": "deadline_",
          "type": "uint256"
        }
      ],
      "name": "setDeadline",
      "outputs": [],
      "stateMutability": "nonpayable",
      "type": "function"
    },
    {
      "inputs": [
        {
          "internalType": "string",
          "name": "logoURI_",
          "type": "string"
        }
      ],
      "name": "setLogoURI",
      "outputs": [],
      "stateMutability": "nonpayable",
      "type": "function"
    },
    {
      "inputs": [
        {
          "internalType": "string",
          "name": "network_",
          "type": "string"
        },
        {
          "internalType": "string",
          "name": "uri_",
          "type": "string"
        }
      ],
      "name": "setNetwork",
      "outputs": [],
      "stateMutability": "nonpayable",
      "type": "function"
    },
    {
      "inputs": [
        {
          "internalType": "uint256",
          "name": "tokenId_",
          "type": "uint256"
        },
        {
          "internalType": "uint256",
          "name": "price_",
          "type": "uint256"
        }
      ],
      "name": "setPrice",
      "outputs": [],
      "stateMutability": "nonpayable",
      "type": "function"
    },
    {
      "inputs": [
        {
          "internalType": "uint256",
          "name": "tokenId_",
          "type": "uint256"
        },
        {
          "internalType": "enum TruthBox.Status",
          "name": "status_",
          "type": "uint8"
        }
      ],
      "name": "setStatus",
      "outputs": [],
      "stateMutability": "nonpayable",
      "type": "function"
    },
    {
      "inputs": [
        {
          "internalType": "bytes4",
          "name": "interfaceId",
          "type": "bytes4"
        }
      ],
      "name": "supportsInterface",
      "outputs": [
        {
          "internalType": "bool",
          "name": "",
          "type": "bool"
        }
      ],
      "stateMutability": "view",
      "type": "function"
    },
    {
      "inputs": [],
      "name": "symbol",
      "outputs": [
        {
          "internalType": "string",
          "name": "",
          "type": "string"
        }
      ],
      "stateMutability": "view",
      "type": "function"
    },
    {
      "inputs": [
        {
          "internalType": "uint256",
          "name": "tokenId",
          "type": "uint256"
        }
      ],
      "name": "tokenURI",
      "outputs": [
        {
          "internalType": "string",
          "name": "",
          "type": "string"
        }
      ],
      "stateMutability": "view",
      "type": "function"
    },
    {
      "inputs": [],
      "name": "totalSupply",
      "outputs": [
        {
          "internalType": "uint256",
          "name": "",
          "type": "uint256"
        }
      ],
      "stateMutability": "view",
      "type": "function"
    },
    {
      "inputs": [
        {
          "internalType": "address",
          "name": "from",
          "type": "address"
        },
        {
          "internalType": "address",
          "name": "to",
          "type": "address"
        },
        {
          "internalType": "uint256",
          "name": "tokenId",
          "type": "uint256"
        }
      ],
      "name": "transferFrom",
      "outputs": [],
      "stateMutability": "nonpayable",
      "type": "function"
    },
    {
      "inputs": [
        {
          "internalType": "address",
          "name": "newImplementation_",
          "type": "address"
        }
      ],
      "name": "upgrade",
      "outputs": [],
      "stateMutability": "nonpayable",
      "type": "function"
    }
  ],
  "bytecode": "0x60806040523480156200001157600080fd5b506040518060400160405280601081526020017f5472757468204d61726b6574204e4654000000000000000000000000000000008152506040518060400160405280600381526020017f544d4e000000000000000000000000000000000000000000000000000000000081525081600090816200008f9190620003a4565b508060019081620000a19190620003a4565b50505033620000d97fb53127684a568b3173ae13b9f8a6016e243e63b6e8ee1178d6a717850b5d610360001b6200012060201b60201c565b60000160006101000a81548173ffffffffffffffffffffffffffffffffffffffff021916908373ffffffffffffffffffffffffffffffffffffffff1602179055506200048b565b6000819050919050565b600081519050919050565b7f4e487b7100000000000000000000000000000000000000000000000000000000600052604160045260246000fd5b7f4e487b7100000000000000000000000000000000000000000000000000000000600052602260045260246000fd5b60006002820490506001821680620001ac57607f821691505b602082108103620001c257620001c162000164565b5b50919050565b60008190508160005260206000209050919050565b60006020601f8301049050919050565b600082821b905092915050565b6000600883026200022c7fffffffffffffffffffffffffffffffffffffffffffffffffffffffffffffffff82620001ed565b620002388683620001ed565b95508019841693508086168417925050509392505050565b6000819050919050565b6000819050919050565b6000620002856200027f620002798462000250565b6200025a565b62000250565b9050919050565b6000819050919050565b620002a18362000264565b620002b9620002b0826200028c565b848454620001fa565b825550505050565b600090565b620002d0620002c1565b620002dd81848462000296565b505050565b5b818110156200030557620002f9600082620002c6565b600181019050620002e3565b5050565b601f82111562000354576200031e81620001c8565b6200032984620001dd565b8101602085101562000339578190505b620003516200034885620001dd565b830182620002e2565b50505b505050565b600082821c905092915050565b6000620003796000198460080262000359565b1980831691505092915050565b600062000394838362000366565b9150826002028217905092915050565b620003af826200012a565b67ffffffffffffffff811115620003cb57620003ca62000135565b5b620003d7825462000193565b620003e482828562000309565b600060209050601f8311600181146200041c576000841562000407578287015190505b62000413858262000386565b86555062000483565b601f1984166200042c86620001c8565b60005b8281101562000456578489015182556001820191506020850194506020810190506200042f565b8683101562000476578489015162000472601f89168262000366565b8355505b6001600288020188555050505b505050505050565b614574806200049b6000396000f3fe608060405234801561001057600080fd5b50600436106102315760003560e01c806379494afe11610130578063b88d4fde116100b8578063e75722301161007c578063e7572230146106be578063e985e9c5146106ee578063eadb03fe1461071e578063f7d975771461073c578063ff1b636d1461075857610231565b8063b88d4fde1461061c578063c30ff6df14610638578063c87b56dd14610654578063d896dd6414610684578063e6a8ee4f146106a057610231565b806395d89b41116100ff57806395d89b4114610566578063988014d3146105845780639e942ace146105a0578063a22cb465146105d0578063b2ba1757146105ec57610231565b806379494afe146104b457806382862275146104ea5780638aa0fdad1461051a5780638f2839701461054a57610231565b806318160ddd116101be5780634d68728d116101825780634d68728d146103ea5780635c622a0e146104065780636352211e146104365780636bb38b281461046657806370a082311461048457610231565b806318160ddd1461035c57806323b872dd1461037a5780632aea87a31461039657806338163d31146103b257806342842e0e146103ce57610231565b806306fdde031161020557806306fdde03146102ba578063081812fc146102d85780630900f01014610308578063095ea7b31461032457806312c594881461034057610231565b80629a0b301461023657806301ffc9a714610252578063031412b31461028257806305bf2fec1461029e575b600080fd5b610250600480360381019061024b919061336a565b610776565b005b61026c60048036038101906102679190613402565b610878565b604051610279919061344a565b60405180910390f35b61029c60048036038101906102979190613465565b61095a565b005b6102b860048036038101906102b391906134f7565b610b30565b005b6102c2610d94565b6040516102cf9190613670565b60405180910390f35b6102f260048036038101906102ed9190613465565b610e26565b6040516102ff91906136d3565b60405180910390f35b610322600480360381019061031d919061371a565b610e42565b005b61033e60048036038101906103399190613747565b610f70565b005b61035a60048036038101906103559190613787565b610fde565b005b61036461129f565b6040516103719190613811565b60405180910390f35b610394600480360381019061038f919061382c565b6112a9565b005b6103b060048036038101906103ab91906139af565b611403565b005b6103cc60048036038101906103c79190613a3a565b61149a565b005b6103e860048036038101906103e3919061382c565b61164d565b005b61040460048036038101906103ff9190613acf565b61166d565b005b610420600480360381019061041b9190613465565b611703565b60405161042d9190613bc7565b60405180910390f35b610450600480360381019061044b9190613465565b611730565b60405161045d91906136d3565b60405180910390f35b61046e611742565b60405161047b9190613670565b60405180910390f35b61049e6004803603810190610499919061371a565b6117d4565b6040516104ab9190613811565b60405180910390f35b6104ce60048036038101906104c99190613465565b61188e565b6040516104e19796959493929190613be2565b60405180910390f35b61050460048036038101906104ff9190613465565b611be4565b6040516105119190613811565b60405180910390f35b610534600480360381019061052f9190613acf565b611c04565b6040516105419190613811565b60405180910390f35b610564600480360381019061055f919061371a565b611d0b565b005b61056e611e4e565b60405161057b9190613670565b60405180910390f35b61059e60048036038101906105999190613465565b611ee0565b005b6105ba60048036038101906105b59190613465565b612056565b6040516105c791906136d3565b60405180910390f35b6105ea60048036038101906105e59190613c99565b612093565b005b61060660048036038101906106019190613465565b6120a9565b604051610613919061344a565b60405180910390f35b61063660048036038101906106319190613d7a565b6120d3565b005b610652600480360381019061064d9190613dfd565b6120f0565b005b61066e60048036038101906106699190613465565b612172565b60405161067b9190613670565b60405180910390f35b61069e60048036038101906106999190613e6f565b61224f565b005b6106a8612318565b6040516106b591906136d3565b60405180910390f35b6106d860048036038101906106d39190613465565b61236f565b6040516106e59190613811565b60405180910390f35b61070860048036038101906107039190613eaf565b61238f565b604051610715919061344a565b60405180910390f35b610726612423565b6040516107339190613811565b60405180910390f35b6107566004803603810190610751919061336a565b61242d565b005b610760612587565b60405161076d91906136d3565b60405180910390f35b600860009054906101000a900473ffffffffffffffffffffffffffffffffffffffff1673ffffffffffffffffffffffffffffffffffffffff163373ffffffffffffffffffffffffffffffffffffffff16141580156108225750600760009054906101000a900473ffffffffffffffffffffffffffffffffffffffff1673ffffffffffffffffffffffffffffffffffffffff163373ffffffffffffffffffffffffffffffffffffffff1614155b15610859576040517fe9606c0700000000000000000000000000000000000000000000000000000000815260040160405180910390fd5b80600e6000848152602001908152602001600020600501819055505050565b60007f80ac58cd000000000000000000000000000000000000000000000000000000007bffffffffffffffffffffffffffffffffffffffffffffffffffffffff1916827bffffffffffffffffffffffffffffffffffffffffffffffffffffffff1916148061094357507f5b5e139f000000000000000000000000000000000000000000000000000000007bffffffffffffffffffffffffffffffffffffffffffffffffffffffff1916827bffffffffffffffffffffffffffffffffffffffffffffffffffffffff1916145b806109535750610952826125de565b5b9050919050565b610962612587565b73ffffffffffffffffffffffffffffffffffffffff163373ffffffffffffffffffffffffffffffffffffffff16141580156109eb5750600660009054906101000a900473ffffffffffffffffffffffffffffffffffffffff1673ffffffffffffffffffffffffffffffffffffffff163373ffffffffffffffffffffffffffffffffffffffff1614155b15610a22576040517f44bbc89d00000000000000000000000000000000000000000000000000000000815260040160405180910390fd5b600073ffffffffffffffffffffffffffffffffffffffff16610a4382612648565b73ffffffffffffffffffffffffffffffffffffffff1603610a90576040517f01bdc21c00000000000000000000000000000000000000000000000000000000815260040160405180910390fd5b6012600082815260200190815260200160002060009054906101000a900460ff16610ae7576040517f6acc161c00000000000000000000000000000000000000000000000000000000815260040160405180910390fd5b60006012600083815260200190815260200160002060006101000a81548160ff021916908315150217905550600160116000828254610b269190613f1e565b9250508190555050565b60008282905003610b6d576040517fea62613400000000000000000000000000000000000000000000000000000000815260040160405180910390fd5b6000888890501480610b825750600086869050145b15610bb9576040517f71ad55eb00000000000000000000000000000000000000000000000000000000815260040160405180910390fd5b60008484905003610bf6576040517f5829dd6c00000000000000000000000000000000000000000000000000000000815260040160405180910390fd5b60006010549050610c92818a8a8080601f016020809104026020016040519081016040528093929190818152602001838380828437600081840152601f19601f8201169050808301925050505050505089898080601f016020809104026020016040519081016040528093929190818152602001838380828437600081840152601f19601f820116905080830192505050505050506006612685565b610d258186868080601f016020809104026020016040519081016040528093929190818152602001838380828437600081840152601f19601f8201169050808301925050505050505085858080601f016020809104026020016040519081016040528093929190818152602001838380828437600081840152601f19601f8201169050808301925050505050505061277d565b42600e6000838152602001908152602001600020600501819055506010600081548092919060010191905055507ff981d285b32106cbc107fb0aeb8848e10008963e09b5935b4f9a9dd7730ea3c381604051610d819190613811565b60405180910390a1505050505050505050565b606060008054610da390613f81565b80601f0160208091040260200160405190810160405280929190818152602001828054610dcf90613f81565b8015610e1c5780601f10610df157610100808354040283529160200191610e1c565b820191906000526020600020905b815481529060010190602001808311610dff57829003601f168201915b5050505050905090565b6000610e3182612898565b50610e3b82612920565b9050919050565b610e4a612587565b73ffffffffffffffffffffffffffffffffffffffff163373ffffffffffffffffffffffffffffffffffffffff1614610eae576040517f7bfa4b9f00000000000000000000000000000000000000000000000000000000815260040160405180910390fd5b60008173ffffffffffffffffffffffffffffffffffffffff163b03610eff576040517f68155f9a00000000000000000000000000000000000000000000000000000000815260040160405180910390fd5b80610f2c7f360894a13ba1a3210667c828492db98dca3e2076cc3735a920a3ca505d382bbc60001b61295d565b60000160006101000a81548173ffffffffffffffffffffffffffffffffffffffff021916908373ffffffffffffffffffffffffffffffffffffffff16021790555050565b6012600082815260200190815260200160002060009054906101000a900460ff1615610fc8576040517f09550c7700000000000000000000000000000000000000000000000000000000815260040160405180910390fd5b610fda8282610fd5612967565b61296f565b5050565b610fe6612587565b73ffffffffffffffffffffffffffffffffffffffff163373ffffffffffffffffffffffffffffffffffffffff161461104a576040517f7bfa4b9f00000000000000000000000000000000000000000000000000000000815260040160405180910390fd5b600073ffffffffffffffffffffffffffffffffffffffff168273ffffffffffffffffffffffffffffffffffffffff16146110c05781600860006101000a81548173ffffffffffffffffffffffffffffffffffffffff021916908373ffffffffffffffffffffffffffffffffffffffff1602179055505b600073ffffffffffffffffffffffffffffffffffffffff168473ffffffffffffffffffffffffffffffffffffffff16146111365783600960006101000a81548173ffffffffffffffffffffffffffffffffffffffff021916908373ffffffffffffffffffffffffffffffffffffffff1602179055505b600073ffffffffffffffffffffffffffffffffffffffff168373ffffffffffffffffffffffffffffffffffffffff16146111ac5782600a60006101000a81548173ffffffffffffffffffffffffffffffffffffffff021916908373ffffffffffffffffffffffffffffffffffffffff1602179055505b600073ffffffffffffffffffffffffffffffffffffffff168573ffffffffffffffffffffffffffffffffffffffff16146112225784600760006101000a81548173ffffffffffffffffffffffffffffffffffffffff021916908373ffffffffffffffffffffffffffffffffffffffff1602179055505b600073ffffffffffffffffffffffffffffffffffffffff168173ffffffffffffffffffffffffffffffffffffffff16146112985780600660006101000a81548173ffffffffffffffffffffffffffffffffffffffff021916908373ffffffffffffffffffffffffffffffffffffffff1602179055505b5050505050565b6000601054905090565b6012600082815260200190815260200160002060009054906101000a900460ff1615611301576040517f09550c7700000000000000000000000000000000000000000000000000000000815260040160405180910390fd5b600073ffffffffffffffffffffffffffffffffffffffff168273ffffffffffffffffffffffffffffffffffffffff16036113735760006040517f64a0ae9200000000000000000000000000000000000000000000000000000000815260040161136a91906136d3565b60405180910390fd5b60006113878383611382612967565b612981565b90508373ffffffffffffffffffffffffffffffffffffffff168173ffffffffffffffffffffffffffffffffffffffff16146113fd578382826040517f64283d7b0000000000000000000000000000000000000000000000000000000081526004016113f493929190613fb2565b60405180910390fd5b50505050565b600760009054906101000a900473ffffffffffffffffffffffffffffffffffffffff1673ffffffffffffffffffffffffffffffffffffffff163373ffffffffffffffffffffffffffffffffffffffff161461148a576040517fe9606c0700000000000000000000000000000000000000000000000000000000815260040160405180910390fd5b61149583838361277d565b505050565b600f600086815260200190815260200160002060009054906101000a900473ffffffffffffffffffffffffffffffffffffffff1673ffffffffffffffffffffffffffffffffffffffff163373ffffffffffffffffffffffffffffffffffffffff1614611532576040517f48f5c3ed00000000000000000000000000000000000000000000000000000000815260040160405180910390fd5b6000600681111561154657611545613b50565b5b600e600087815260200190815260200160002060060160009054906101000a900460ff16600681111561157c5761157b613b50565b5b146115b3576040517ff525e32000000000000000000000000000000000000000000000000000000000815260040160405180910390fd5b6116468585858080601f016020809104026020016040519081016040528093929190818152602001838380828437600081840152601f19601f8201169050808301925050505050505084848080601f016020809104026020016040519081016040528093929190818152602001838380828437600081840152601f19601f8201169050808301925050505050505061277d565b5050505050565b611668838383604051806020016040528060008152506120d3565b505050565b611675612587565b73ffffffffffffffffffffffffffffffffffffffff163373ffffffffffffffffffffffffffffffffffffffff16146116d9576040517f7bfa4b9f00000000000000000000000000000000000000000000000000000000815260040160405180910390fd5b8383600c91826116ea9291906141a0565b508181600d91826116fc9291906141a0565b5050505050565b6000600e600083815260200190815260200160002060060160009054906101000a900460ff169050919050565b600061173b82612898565b9050919050565b6060600b805461175190613f81565b80601f016020809104026020016040519081016040528092919081815260200182805461177d90613f81565b80156117ca5780601f1061179f576101008083540402835291602001916117ca565b820191906000526020600020905b8154815290600101906020018083116117ad57829003601f168201915b5050505050905090565b60008073ffffffffffffffffffffffffffffffffffffffff168273ffffffffffffffffffffffffffffffffffffffff16036118475760006040517f89c62b6400000000000000000000000000000000000000000000000000000000815260040161183e91906136d3565b60405180910390fd5b600360008373ffffffffffffffffffffffffffffffffffffffff1673ffffffffffffffffffffffffffffffffffffffff168152602001908152602001600020549050919050565b60608060608060008060006012600089815260200190815260200160002060009054906101000a900460ff16156118f1576040517f09550c7700000000000000000000000000000000000000000000000000000000815260040160405180910390fd5b600e6000898152602001908152602001600020600001600e60008a8152602001908152602001600020600101600e60008b8152602001908152602001600020600201600e60008c8152602001908152602001600020600301600e60008d815260200190815260200160002060040154600e60008e815260200190815260200160002060050154600e60008f815260200190815260200160002060060160009054906101000a900460ff168680546119a790613f81565b80601f01602080910402602001604051908101604052809291908181526020018280546119d390613f81565b8015611a205780601f106119f557610100808354040283529160200191611a20565b820191906000526020600020905b815481529060010190602001808311611a0357829003601f168201915b50505050509650858054611a3390613f81565b80601f0160208091040260200160405190810160405280929190818152602001828054611a5f90613f81565b8015611aac5780601f10611a8157610100808354040283529160200191611aac565b820191906000526020600020905b815481529060010190602001808311611a8f57829003601f168201915b50505050509550848054611abf90613f81565b80601f0160208091040260200160405190810160405280929190818152602001828054611aeb90613f81565b8015611b385780601f10611b0d57610100808354040283529160200191611b38565b820191906000526020600020905b815481529060010190602001808311611b1b57829003601f168201915b50505050509450838054611b4b90613f81565b80601f0160208091040260200160405190810160405280929190818152602001828054611b7790613f81565b8015611bc45780601f10611b9957610100808354040283529160200191611bc4565b820191906000526020600020905b815481529060010190602001808311611ba757829003601f168201915b505050505093509650965096509650965096509650919395979092949650565b6000600e6000838152602001908152602001600020600501549050919050565b600080858590501480611c1a5750600083839050145b15611c51576040517f71ad55eb00000000000000000000000000000000000000000000000000000000815260040160405180910390fd5b60006010549050611ced8187878080601f016020809104026020016040519081016040528093929190818152602001838380828437600081840152601f19601f8201169050808301925050505050505086868080601f016020809104026020016040519081016040528093929190818152602001838380828437600081840152601f19601f820116905080830192505050505050506000612685565b60106000815480929190600101919050555080915050949350505050565b611d13612587565b73ffffffffffffffffffffffffffffffffffffffff163373ffffffffffffffffffffffffffffffffffffffff1614611d77576040517f7bfa4b9f00000000000000000000000000000000000000000000000000000000815260040160405180910390fd5b600073ffffffffffffffffffffffffffffffffffffffff168173ffffffffffffffffffffffffffffffffffffffff1603611ddd576040517fd92e233d00000000000000000000000000000000000000000000000000000000815260040160405180910390fd5b80611e0a7fb53127684a568b3173ae13b9f8a6016e243e63b6e8ee1178d6a717850b5d610360001b61295d565b60000160006101000a81548173ffffffffffffffffffffffffffffffffffffffff021916908373ffffffffffffffffffffffffffffffffffffffff16021790555050565b606060018054611e5d90613f81565b80601f0160208091040260200160405190810160405280929190818152602001828054611e8990613f81565b8015611ed65780601f10611eab57610100808354040283529160200191611ed6565b820191906000526020600020905b815481529060010190602001808311611eb957829003601f168201915b5050505050905090565b611ee8612587565b73ffffffffffffffffffffffffffffffffffffffff163373ffffffffffffffffffffffffffffffffffffffff1614158015611f715750600660009054906101000a900473ffffffffffffffffffffffffffffffffffffffff1673ffffffffffffffffffffffffffffffffffffffff163373ffffffffffffffffffffffffffffffffffffffff1614155b15611fa8576040517f44bbc89d00000000000000000000000000000000000000000000000000000000815260040160405180910390fd5b600073ffffffffffffffffffffffffffffffffffffffff16611fc982612648565b73ffffffffffffffffffffffffffffffffffffffff1603612016576040517f01bdc21c00000000000000000000000000000000000000000000000000000000815260040160405180910390fd5b60016012600083815260200190815260200160002060006101000a81548160ff021916908315150217905550600160116000828254019250508190555050565b6000600f600083815260200190815260200160002060009054906101000a900473ffffffffffffffffffffffffffffffffffffffff169050919050565b6120a561209e612967565b8383612b9b565b5050565b60006012600083815260200190815260200160002060009054906101000a900460ff169050919050565b6120de8484846112a9565b6120ea84848484612d0a565b50505050565b6120f8612587565b73ffffffffffffffffffffffffffffffffffffffff163373ffffffffffffffffffffffffffffffffffffffff161461215c576040517f7bfa4b9f00000000000000000000000000000000000000000000000000000000815260040160405180910390fd5b8181600b918261216d9291906141a0565b505050565b606061217d82612898565b506000600e600084815260200190815260200160002060010180546121a190613f81565b80601f01602080910402602001604051908101604052809291908181526020018280546121cd90613f81565b801561221a5780601f106121ef5761010080835404028352916020019161221a565b820191906000526020600020905b8154815290600101906020018083116121fd57829003601f168201915b50505050509050600c81600d6040516020016122389392919061432f565b604051602081830303815290604052915050919050565b600760009054906101000a900473ffffffffffffffffffffffffffffffffffffffff1673ffffffffffffffffffffffffffffffffffffffff163373ffffffffffffffffffffffffffffffffffffffff16146122d6576040517fe9606c0700000000000000000000000000000000000000000000000000000000815260040160405180910390fd5b80600e600084815260200190815260200160002060060160006101000a81548160ff0219169083600681111561230f5761230e613b50565b5b02179055505050565b60006123467f360894a13ba1a3210667c828492db98dca3e2076cc3735a920a3ca505d382bbc60001b61295d565b60000160009054906101000a900473ffffffffffffffffffffffffffffffffffffffff16905090565b6000600e6000838152602001908152602001600020600401549050919050565b6000600560008473ffffffffffffffffffffffffffffffffffffffff1673ffffffffffffffffffffffffffffffffffffffff16815260200190815260200160002060008373ffffffffffffffffffffffffffffffffffffffff1673ffffffffffffffffffffffffffffffffffffffff16815260200190815260200160002060009054906101000a900460ff16905092915050565b6000601154905090565b600860009054906101000a900473ffffffffffffffffffffffffffffffffffffffff1673ffffffffffffffffffffffffffffffffffffffff163373ffffffffffffffffffffffffffffffffffffffff16141580156124d95750600760009054906101000a900473ffffffffffffffffffffffffffffffffffffffff1673ffffffffffffffffffffffffffffffffffffffff163373ffffffffffffffffffffffffffffffffffffffff1614155b15612510576040517fe9606c0700000000000000000000000000000000000000000000000000000000815260040160405180910390fd5b6012600083815260200190815260200160002060009054906101000a900460ff1615612568576040517f09550c7700000000000000000000000000000000000000000000000000000000815260040160405180910390fd5b80600e6000848152602001908152602001600020600401819055505050565b60006125b57fb53127684a568b3173ae13b9f8a6016e243e63b6e8ee1178d6a717850b5d610360001b61295d565b60000160009054906101000a900473ffffffffffffffffffffffffffffffffffffffff16905090565b60007f01ffc9a7000000000000000000000000000000000000000000000000000000007bffffffffffffffffffffffffffffffffffffffffffffffffffffffff1916827bffffffffffffffffffffffffffffffffffffffffffffffffffffffff1916149050919050565b60006002600083815260200190815260200160002060009054906101000a900473ffffffffffffffffffffffffffffffffffffffff169050919050565b61269f338560405180602001604052806000815250612ec1565b82600e600086815260200190815260200160002060000190816126c29190614360565b5081600e600086815260200190815260200160002060010190816126e69190614360565b5080600e600086815260200190815260200160002060060160006101000a81548160ff021916908360068111156127205761271f613b50565b5b021790555033600f600086815260200190815260200160002060006101000a81548173ffffffffffffffffffffffffffffffffffffffff021916908373ffffffffffffffffffffffffffffffffffffffff16021790555050505050565b6012600084815260200190815260200160002060009054906101000a900460ff16156127d5576040517f09550c7700000000000000000000000000000000000000000000000000000000815260040160405180910390fd5b6006600e600085815260200190815260200160002060060160006101000a81548160ff0219169083600681111561280f5761280e613b50565b5b021790555081600e600085815260200190815260200160002060020190816128379190614360565b5080600e6000858152602001908152602001600020600301908161285b9190614360565b507ff981d285b32106cbc107fb0aeb8848e10008963e09b5935b4f9a9dd7730ea3c38360405161288b9190613811565b60405180910390a1505050565b6000806128a483612648565b9050600073ffffffffffffffffffffffffffffffffffffffff168173ffffffffffffffffffffffffffffffffffffffff160361291757826040517f7e27328900000000000000000000000000000000000000000000000000000000815260040161290e9190613811565b60405180910390fd5b80915050919050565b60006004600083815260200190815260200160002060009054906101000a900473ffffffffffffffffffffffffffffffffffffffff169050919050565b6000819050919050565b600033905090565b61297c8383836001612edd565b505050565b60008061298d84612648565b9050600073ffffffffffffffffffffffffffffffffffffffff168373ffffffffffffffffffffffffffffffffffffffff16146129cf576129ce8184866130a2565b5b600073ffffffffffffffffffffffffffffffffffffffff168173ffffffffffffffffffffffffffffffffffffffff1614612a6057612a11600085600080612edd565b6001600360008373ffffffffffffffffffffffffffffffffffffffff1673ffffffffffffffffffffffffffffffffffffffff168152602001908152602001600020600082825403925050819055505b600073ffffffffffffffffffffffffffffffffffffffff168573ffffffffffffffffffffffffffffffffffffffff1614612ae3576001600360008773ffffffffffffffffffffffffffffffffffffffff1673ffffffffffffffffffffffffffffffffffffffff168152602001908152602001600020600082825401925050819055505b846002600086815260200190815260200160002060006101000a81548173ffffffffffffffffffffffffffffffffffffffff021916908373ffffffffffffffffffffffffffffffffffffffff160217905550838573ffffffffffffffffffffffffffffffffffffffff168273ffffffffffffffffffffffffffffffffffffffff167fddf252ad1be2c89b69c2b068fc378daa952ba7f163c4a11628f55a4df523b3ef60405160405180910390a4809150509392505050565b600073ffffffffffffffffffffffffffffffffffffffff168273ffffffffffffffffffffffffffffffffffffffff1603612c0c57816040517f5b08ba18000000000000000000000000000000000000000000000000000000008152600401612c0391906136d3565b60405180910390fd5b80600560008573ffffffffffffffffffffffffffffffffffffffff1673ffffffffffffffffffffffffffffffffffffffff16815260200190815260200160002060008473ffffffffffffffffffffffffffffffffffffffff1673ffffffffffffffffffffffffffffffffffffffff16815260200190815260200160002060006101000a81548160ff0219169083151502179055508173ffffffffffffffffffffffffffffffffffffffff168373ffffffffffffffffffffffffffffffffffffffff167f17307eab39ab6107e8899845ad3d59bd9653f200f220920489ca2b5937696c3183604051612cfd919061344a565b60405180910390a3505050565b60008373ffffffffffffffffffffffffffffffffffffffff163b1115612ebb578273ffffffffffffffffffffffffffffffffffffffff1663150b7a02612d4e612967565b8685856040518563ffffffff1660e01b8152600401612d709493929190614487565b6020604051808303816000875af1925050508015612dac57506040513d601f19601f82011682018060405250810190612da991906144e8565b60015b612e30573d8060008114612ddc576040519150601f19603f3d011682016040523d82523d6000602084013e612de1565b606091505b506000815103612e2857836040517f64a0ae92000000000000000000000000000000000000000000000000000000008152600401612e1f91906136d3565b60405180910390fd5b805181602001fd5b63150b7a0260e01b7bffffffffffffffffffffffffffffffffffffffffffffffffffffffff1916817bffffffffffffffffffffffffffffffffffffffffffffffffffffffff191614612eb957836040517f64a0ae92000000000000000000000000000000000000000000000000000000008152600401612eb091906136d3565b60405180910390fd5b505b50505050565b612ecb8383613166565b612ed86000848484612d0a565b505050565b8080612f165750600073ffffffffffffffffffffffffffffffffffffffff168273ffffffffffffffffffffffffffffffffffffffff1614155b1561304a576000612f2684612898565b9050600073ffffffffffffffffffffffffffffffffffffffff168373ffffffffffffffffffffffffffffffffffffffff1614158015612f9157508273ffffffffffffffffffffffffffffffffffffffff168173ffffffffffffffffffffffffffffffffffffffff1614155b8015612fa45750612fa2818461238f565b155b15612fe657826040517fa9fbf51f000000000000000000000000000000000000000000000000000000008152600401612fdd91906136d3565b60405180910390fd5b811561304857838573ffffffffffffffffffffffffffffffffffffffff168273ffffffffffffffffffffffffffffffffffffffff167f8c5be1e5ebec7d5bd14f71427d1e84f3dd0314c0f7b2291e5b200ac8c7c3b92560405160405180910390a45b505b836004600085815260200190815260200160002060006101000a81548173ffffffffffffffffffffffffffffffffffffffff021916908373ffffffffffffffffffffffffffffffffffffffff16021790555050505050565b6130ad83838361325f565b61316157600073ffffffffffffffffffffffffffffffffffffffff168373ffffffffffffffffffffffffffffffffffffffff160361312257806040517f7e2732890000000000000000000000000000000000000000000000000000000081526004016131199190613811565b60405180910390fd5b81816040517f177e802f000000000000000000000000000000000000000000000000000000008152600401613158929190614515565b60405180910390fd5b505050565b600073ffffffffffffffffffffffffffffffffffffffff168273ffffffffffffffffffffffffffffffffffffffff16036131d85760006040517f64a0ae920000000000000000000000000000000000000000000000000000000081526004016131cf91906136d3565b60405180910390fd5b60006131e683836000612981565b9050600073ffffffffffffffffffffffffffffffffffffffff168173ffffffffffffffffffffffffffffffffffffffff161461325a5760006040517f73c6ac6e00000000000000000000000000000000000000000000000000000000815260040161325191906136d3565b60405180910390fd5b505050565b60008073ffffffffffffffffffffffffffffffffffffffff168373ffffffffffffffffffffffffffffffffffffffff161415801561331757508273ffffffffffffffffffffffffffffffffffffffff168473ffffffffffffffffffffffffffffffffffffffff1614806132d857506132d7848461238f565b5b8061331657508273ffffffffffffffffffffffffffffffffffffffff166132fe83612920565b73ffffffffffffffffffffffffffffffffffffffff16145b5b90509392505050565b6000604051905090565b600080fd5b600080fd5b6000819050919050565b61334781613334565b811461335257600080fd5b50565b6000813590506133648161333e565b92915050565b600080604083850312156133815761338061332a565b5b600061338f85828601613355565b92505060206133a085828601613355565b9150509250929050565b60007fffffffff0000000000000000000000000000000000000000000000000000000082169050919050565b6133df816133aa565b81146133ea57600080fd5b50565b6000813590506133fc816133d6565b92915050565b6000602082840312156134185761341761332a565b5b6000613426848285016133ed565b91505092915050565b60008115159050919050565b6134448161342f565b82525050565b600060208201905061345f600083018461343b565b92915050565b60006020828403121561347b5761347a61332a565b5b600061348984828501613355565b91505092915050565b600080fd5b600080fd5b600080fd5b60008083601f8401126134b7576134b6613492565b5b8235905067ffffffffffffffff8111156134d4576134d3613497565b5b6020830191508360018202830111156134f0576134ef61349c565b5b9250929050565b6000806000806000806000806080898b0312156135175761351661332a565b5b600089013567ffffffffffffffff8111156135355761353461332f565b5b6135418b828c016134a1565b9850985050602089013567ffffffffffffffff8111156135645761356361332f565b5b6135708b828c016134a1565b9650965050604089013567ffffffffffffffff8111156135935761359261332f565b5b61359f8b828c016134a1565b9450945050606089013567ffffffffffffffff8111156135c2576135c161332f565b5b6135ce8b828c016134a1565b92509250509295985092959890939650565b600081519050919050565b600082825260208201905092915050565b60005b8381101561361a5780820151818401526020810190506135ff565b60008484015250505050565b6000601f19601f8301169050919050565b6000613642826135e0565b61364c81856135eb565b935061365c8185602086016135fc565b61366581613626565b840191505092915050565b6000602082019050818103600083015261368a8184613637565b905092915050565b600073ffffffffffffffffffffffffffffffffffffffff82169050919050565b60006136bd82613692565b9050919050565b6136cd816136b2565b82525050565b60006020820190506136e860008301846136c4565b92915050565b6136f7816136b2565b811461370257600080fd5b50565b600081359050613714816136ee565b92915050565b6000602082840312156137305761372f61332a565b5b600061373e84828501613705565b91505092915050565b6000806040838503121561375e5761375d61332a565b5b600061376c85828601613705565b925050602061377d85828601613355565b9150509250929050565b600080600080600060a086880312156137a3576137a261332a565b5b60006137b188828901613705565b95505060206137c288828901613705565b94505060406137d388828901613705565b93505060606137e488828901613705565b92505060806137f588828901613705565b9150509295509295909350565b61380b81613334565b82525050565b60006020820190506138266000830184613802565b92915050565b6000806000606084860312156138455761384461332a565b5b600061385386828701613705565b935050602061386486828701613705565b925050604061387586828701613355565b9150509250925092565b600080fd5b7f4e487b7100000000000000000000000000000000000000000000000000000000600052604160045260246000fd5b6138bc82613626565b810181811067ffffffffffffffff821117156138db576138da613884565b5b80604052505050565b60006138ee613320565b90506138fa82826138b3565b919050565b600067ffffffffffffffff82111561391a57613919613884565b5b61392382613626565b9050602081019050919050565b82818337600083830152505050565b600061395261394d846138ff565b6138e4565b90508281526020810184848401111561396e5761396d61387f565b5b613979848285613930565b509392505050565b600082601f83011261399657613995613492565b5b81356139a684826020860161393f565b91505092915050565b6000806000606084860312156139c8576139c761332a565b5b60006139d686828701613355565b935050602084013567ffffffffffffffff8111156139f7576139f661332f565b5b613a0386828701613981565b925050604084013567ffffffffffffffff811115613a2457613a2361332f565b5b613a3086828701613981565b9150509250925092565b600080600080600060608688031215613a5657613a5561332a565b5b6000613a6488828901613355565b955050602086013567ffffffffffffffff811115613a8557613a8461332f565b5b613a91888289016134a1565b9450945050604086013567ffffffffffffffff811115613ab457613ab361332f565b5b613ac0888289016134a1565b92509250509295509295909350565b60008060008060408587031215613ae957613ae861332a565b5b600085013567ffffffffffffffff811115613b0757613b0661332f565b5b613b13878288016134a1565b9450945050602085013567ffffffffffffffff811115613b3657613b3561332f565b5b613b42878288016134a1565b925092505092959194509250565b7f4e487b7100000000000000000000000000000000000000000000000000000000600052602160045260246000fd5b60078110613b9057613b8f613b50565b5b50565b6000819050613ba182613b7f565b919050565b6000613bb182613b93565b9050919050565b613bc181613ba6565b82525050565b6000602082019050613bdc6000830184613bb8565b92915050565b600060e0820190508181036000830152613bfc818a613637565b90508181036020830152613c108189613637565b90508181036040830152613c248188613637565b90508181036060830152613c388187613637565b9050613c476080830186613802565b613c5460a0830185613802565b613c6160c0830184613bb8565b98975050505050505050565b613c768161342f565b8114613c8157600080fd5b50565b600081359050613c9381613c6d565b92915050565b60008060408385031215613cb057613caf61332a565b5b6000613cbe85828601613705565b9250506020613ccf85828601613c84565b9150509250929050565b600067ffffffffffffffff821115613cf457613cf3613884565b5b613cfd82613626565b9050602081019050919050565b6000613d1d613d1884613cd9565b6138e4565b905082815260208101848484011115613d3957613d3861387f565b5b613d44848285613930565b509392505050565b600082601f830112613d6157613d60613492565b5b8135613d71848260208601613d0a565b91505092915050565b60008060008060808587031215613d9457613d9361332a565b5b6000613da287828801613705565b9450506020613db387828801613705565b9350506040613dc487828801613355565b925050606085013567ffffffffffffffff811115613de557613de461332f565b5b613df187828801613d4c565b91505092959194509250565b60008060208385031215613e1457613e1361332a565b5b600083013567ffffffffffffffff811115613e3257613e3161332f565b5b613e3e858286016134a1565b92509250509250929050565b60078110613e5757600080fd5b50565b600081359050613e6981613e4a565b92915050565b60008060408385031215613e8657613e8561332a565b5b6000613e9485828601613355565b9250506020613ea585828601613e5a565b9150509250929050565b60008060408385031215613ec657613ec561332a565b5b6000613ed485828601613705565b9250506020613ee585828601613705565b9150509250929050565b7f4e487b7100000000000000000000000000000000000000000000000000000000600052601160045260246000fd5b6000613f2982613334565b9150613f3483613334565b9250828203905081811115613f4c57613f4b613eef565b5b92915050565b7f4e487b7100000000000000000000000000000000000000000000000000000000600052602260045260246000fd5b60006002820490506001821680613f9957607f821691505b602082108103613fac57613fab613f52565b5b50919050565b6000606082019050613fc760008301866136c4565b613fd46020830185613802565b613fe160408301846136c4565b949350505050565b600082905092915050565b60008190508160005260206000209050919050565b60006020601f8301049050919050565b600082821b905092915050565b6000600883026140567fffffffffffffffffffffffffffffffffffffffffffffffffffffffffffffffff82614019565b6140608683614019565b95508019841693508086168417925050509392505050565b6000819050919050565b600061409d61409861409384613334565b614078565b613334565b9050919050565b6000819050919050565b6140b783614082565b6140cb6140c3826140a4565b848454614026565b825550505050565b600090565b6140e06140d3565b6140eb8184846140ae565b505050565b5b8181101561410f576141046000826140d8565b6001810190506140f1565b5050565b601f8211156141545761412581613ff4565b61412e84614009565b8101602085101561413d578190505b61415161414985614009565b8301826140f0565b50505b505050565b600082821c905092915050565b600061417760001984600802614159565b1980831691505092915050565b60006141908383614166565b9150826002028217905092915050565b6141aa8383613fe9565b67ffffffffffffffff8111156141c3576141c2613884565b5b6141cd8254613f81565b6141d8828285614113565b6000601f83116001811461420757600084156141f5578287013590505b6141ff8582614184565b865550614267565b601f19841661421586613ff4565b60005b8281101561423d57848901358255600182019150602085019450602081019050614218565b8683101561425a5784890135614256601f891682614166565b8355505b6001600288020188555050505b50505050505050565b600081905092915050565b6000815461428881613f81565b6142928186614270565b945060018216600081146142ad57600181146142c2576142f5565b60ff19831686528115158202860193506142f5565b6142cb85613ff4565b60005b838110156142ed578154818901526001820191506020810190506142ce565b838801955050505b50505092915050565b6000614309826135e0565b6143138185614270565b93506143238185602086016135fc565b80840191505092915050565b600061433b828661427b565b915061434782856142fe565b9150614353828461427b565b9150819050949350505050565b614369826135e0565b67ffffffffffffffff81111561438257614381613884565b5b61438c8254613f81565b614397828285614113565b600060209050601f8311600181146143ca57600084156143b8578287015190505b6143c28582614184565b86555061442a565b601f1984166143d886613ff4565b60005b82811015614400578489015182556001820191506020850194506020810190506143db565b8683101561441d5784890151614419601f891682614166565b8355505b6001600288020188555050505b505050505050565b600081519050919050565b600082825260208201905092915050565b600061445982614432565b614463818561443d565b93506144738185602086016135fc565b61447c81613626565b840191505092915050565b600060808201905061449c60008301876136c4565b6144a960208301866136c4565b6144b66040830185613802565b81810360608301526144c8818461444e565b905095945050505050565b6000815190506144e2816133d6565b92915050565b6000602082840312156144fe576144fd61332a565b5b600061450c848285016144d3565b91505092915050565b600060408201905061452a60008301856136c4565b6145376020830184613802565b939250505056fea2646970667358221220849a56644314ee42b8e11f761f2239bb50aa9968246d206b4abaf9da4baf27a364736f6c63430008180033",
  "linkReferences": {},
  "deployedLinkReferences": {}
}