{
  "_format": "hh-sol-artifact-1",
  "contractName": "FeeToken",
  "sourceName": "contracts/FeeToken.sol",
  "abi": [
    {
      "inputs": [],
      "stateMutability": "nonpayable",
      "type": "constructor"
    },
    {
      "inputs": [
        {
          "internalType": "address",
          "name": "spender",
          "type": "address"
        },
        {
          "internalType": "uint256",
          "name": "allowance",
          "type": "uint256"
        },
        {
          "internalType": "uint256",
          "name": "needed",
          "type": "uint256"
        }
      ],
      "name": "ERC20InsufficientAllowance",
      "type": "error"
    },
    {
      "inputs": [
        {
          "internalType": "address",
          "name": "sender",
          "type": "address"
        },
        {
          "internalType": "uint256",
          "name": "balance",
          "type": "uint256"
        },
        {
          "internalType": "uint256",
          "name": "needed",
          "type": "uint256"
        }
      ],
      "name": "ERC20InsufficientBalance",
      "type": "error"
    },
    {
      "inputs": [
        {
          "internalType": "address",
          "name": "approver",
          "type": "address"
        }
      ],
      "name": "ERC20InvalidApprover",
      "type": "error"
    },
    {
      "inputs": [
        {
          "internalType": "address",
          "name": "receiver",
          "type": "address"
        }
      ],
      "name": "ERC20InvalidReceiver",
      "type": "error"
    },
    {
      "inputs": [
        {
          "internalType": "address",
          "name": "sender",
          "type": "address"
        }
      ],
      "name": "ERC20InvalidSender",
      "type": "error"
    },
    {
      "inputs": [
        {
          "internalType": "address",
          "name": "spender",
          "type": "address"
        }
      ],
      "name": "ERC20InvalidSpender",
      "type": "error"
    },
    {
      "anonymous": false,
      "inputs": [
        {
          "indexed": true,
          "internalType": "address",
          "name": "owner",
          "type": "address"
        },
        {
          "indexed": true,
          "internalType": "address",
          "name": "spender",
          "type": "address"
        },
        {
          "indexed": false,
          "internalType": "uint256",
          "name": "value",
          "type": "uint256"
        }
      ],
      "name": "Approval",
      "type": "event"
    },
    {
      "anonymous": false,
      "inputs": [
        {
          "indexed": true,
          "internalType": "address",
          "name": "from",
          "type": "address"
        },
        {
          "indexed": true,
          "internalType": "address",
          "name": "to",
          "type": "address"
        },
        {
          "indexed": false,
          "internalType": "uint256",
          "name": "value",
          "type": "uint256"
        }
      ],
      "name": "Transfer",
      "type": "event"
    },
    {
      "inputs": [
        {
          "internalType": "address",
          "name": "owner",
          "type": "address"
        },
        {
          "internalType": "address",
          "name": "spender",
          "type": "address"
        }
      ],
      "name": "allowance",
      "outputs": [
        {
          "internalType": "uint256",
          "name": "",
          "type": "uint256"
        }
      ],
      "stateMutability": "view",
      "type": "function"
    },
    {
      "inputs": [
        {
          "internalType": "address",
          "name": "spender",
          "type": "address"
        },
        {
          "internalType": "uint256",
          "name": "value",
          "type": "uint256"
        }
      ],
      "name": "approve",
      "outputs": [
        {
          "internalType": "bool",
          "name": "",
          "type": "bool"
        }
      ],
      "stateMutability": "nonpayable",
      "type": "function"
    },
    {
      "inputs": [
        {
          "internalType": "address",
          "name": "account",
          "type": "address"
        }
      ],
      "name": "balanceOf",
      "outputs": [
        {
          "internalType": "uint256",
          "name": "",
          "type": "uint256"
        }
      ],
      "stateMutability": "view",
      "type": "function"
    },
    {
      "inputs": [
        {
          "internalType": "uint256",
          "name": "amount_",
          "type": "uint256"
        }
      ],
      "name": "burn",
      "outputs": [],
      "stateMutability": "nonpayable",
      "type": "function"
    },
    {
      "inputs": [],
      "name": "decimals",
      "outputs": [
        {
          "internalType": "uint8",
          "name": "",
          "type": "uint8"
        }
      ],
      "stateMutability": "pure",
      "type": "function"
    },
    {
      "inputs": [
        {
          "internalType": "address",
          "name": "to_",
          "type": "address"
        }
      ],
      "name": "mint",
      "outputs": [],
      "stateMutability": "nonpayable",
      "type": "function"
    },
    {
      "inputs": [
        {
          "internalType": "address",
          "name": "",
          "type": "address"
        }
      ],
      "name": "mintDate",
      "outputs": [
        {
          "internalType": "uint256",
          "name": "date",
          "type": "uint256"
        }
      ],
      "stateMutability": "view",
      "type": "function"
    },
    {
      "inputs": [],
      "name": "mintDeadline",
      "outputs": [
        {
          "internalType": "uint256",
          "name": "",
          "type": "uint256"
        }
      ],
      "stateMutability": "view",
      "type": "function"
    },
    {
      "inputs": [],
      "name": "name",
      "outputs": [
        {
          "internalType": "string",
          "name": "",
          "type": "string"
        }
      ],
      "stateMutability": "view",
      "type": "function"
    },
    {
      "inputs": [],
      "name": "symbol",
      "outputs": [
        {
          "internalType": "string",
          "name": "",
          "type": "string"
        }
      ],
      "stateMutability": "view",
      "type": "function"
    },
    {
      "inputs": [],
      "name": "totalSupply",
      "outputs": [
        {
          "internalType": "uint256",
          "name": "",
          "type": "uint256"
        }
      ],
      "stateMutability": "view",
      "type": "function"
    },
    {
      "inputs": [
        {
          "internalType": "address",
          "name": "to",
          "type": "address"
        },
        {
          "internalType": "uint256",
          "name": "value",
          "type": "uint256"
        }
      ],
      "name": "transfer",
      "outputs": [
        {
          "internalType": "bool",
          "name": "",
          "type": "bool"
        }
      ],
      "stateMutability": "nonpayable",
      "type": "function"
    },
    {
      "inputs": [
        {
          "internalType": "address",
          "name": "from",
          "type": "address"
        },
        {
          "internalType": "address",
          "name": "to",
          "type": "address"
        },
        {
          "internalType": "uint256",
          "name": "value",
          "type": "uint256"
        }
      ],
      "name": "transferFrom",
      "outputs": [
        {
          "internalType": "bool",
          "name": "",
          "type": "bool"
        }
      ],
      "stateMutability": "nonpayable",
      "type": "function"
    }
  ],
  "bytecode": "0x60806040523480156200001157600080fd5b506040518060400160405280601281526020017f5472757468204d61726b657420546f6b656e00000000000000000000000000008152506040518060400160405280600381526020017f544d54000000000000000000000000000000000000000000000000000000000081525081600390816200008f91906200032e565b508060049081620000a191906200032e565b5050506203f48060068190555062000415565b600081519050919050565b7f4e487b7100000000000000000000000000000000000000000000000000000000600052604160045260246000fd5b7f4e487b7100000000000000000000000000000000000000000000000000000000600052602260045260246000fd5b600060028204905060018216806200013657607f821691505b6020821081036200014c576200014b620000ee565b5b50919050565b60008190508160005260206000209050919050565b60006020601f8301049050919050565b600082821b905092915050565b600060088302620001b67fffffffffffffffffffffffffffffffffffffffffffffffffffffffffffffffff8262000177565b620001c2868362000177565b95508019841693508086168417925050509392505050565b6000819050919050565b6000819050919050565b60006200020f620002096200020384620001da565b620001e4565b620001da565b9050919050565b6000819050919050565b6200022b83620001ee565b620002436200023a8262000216565b84845462000184565b825550505050565b600090565b6200025a6200024b565b6200026781848462000220565b505050565b5b818110156200028f576200028360008262000250565b6001810190506200026d565b5050565b601f821115620002de57620002a88162000152565b620002b38462000167565b81016020851015620002c3578190505b620002db620002d28562000167565b8301826200026c565b50505b505050565b600082821c905092915050565b60006200030360001984600802620002e3565b1980831691505092915050565b60006200031e8383620002f0565b9150826002028217905092915050565b6200033982620000b4565b67ffffffffffffffff811115620003555762000354620000bf565b5b6200036182546200011d565b6200036e82828562000293565b600060209050601f831160018114620003a6576000841562000391578287015190505b6200039d858262000310565b8655506200040d565b601f198416620003b68662000152565b60005b82811015620003e057848901518255600182019150602085019450602081019050620003b9565b86831015620004005784890151620003fc601f891682620002f0565b8355505b6001600288020188555050505b505050505050565b6111d180620004256000396000f3fe608060405234801561001057600080fd5b50600436106100cf5760003560e01c80636a6278421161008c5780639d8720e0116100665780639d8720e014610214578063a9059cbb14610244578063d4e7808614610274578063dd62ed3e14610292576100cf565b80636a627842146101aa57806370a08231146101c657806395d89b41146101f6576100cf565b806306fdde03146100d4578063095ea7b3146100f257806318160ddd1461012257806323b872dd14610140578063313ce5671461017057806342966c681461018e575b600080fd5b6100dc6102c2565b6040516100e99190610d8c565b60405180910390f35b61010c60048036038101906101079190610e47565b610354565b6040516101199190610ea2565b60405180910390f35b61012a610377565b6040516101379190610ecc565b60405180910390f35b61015a60048036038101906101559190610ee7565b610381565b6040516101679190610ea2565b60405180910390f35b6101786103b0565b6040516101859190610f56565b60405180910390f35b6101a860048036038101906101a39190610f71565b6103b9565b005b6101c460048036038101906101bf9190610f9e565b6103d3565b005b6101e060048036038101906101db9190610f9e565b6104b8565b6040516101ed9190610ecc565b60405180910390f35b6101fe610500565b60405161020b9190610d8c565b60405180910390f35b61022e60048036038101906102299190610f9e565b610592565b60405161023b9190610ecc565b60405180910390f35b61025e60048036038101906102599190610e47565b6105aa565b60405161026b9190610ea2565b60405180910390f35b61027c6105cd565b6040516102899190610ecc565b60405180910390f35b6102ac60048036038101906102a79190610fcb565b6105d3565b6040516102b99190610ecc565b60405180910390f35b6060600380546102d19061103a565b80601f01602080910402602001604051908101604052809291908181526020018280546102fd9061103a565b801561034a5780601f1061031f5761010080835404028352916020019161034a565b820191906000526020600020905b81548152906001019060200180831161032d57829003601f168201915b5050505050905090565b60008061035f61065a565b905061036c818585610662565b600191505092915050565b6000600254905090565b60008061038c61065a565b9050610399858285610674565b6103a4858585610708565b60019150509392505050565b60006003905090565b60006103c361065a565b90506103cf81836107fc565b5050565b426203f480600560003373ffffffffffffffffffffffffffffffffffffffff1673ffffffffffffffffffffffffffffffffffffffff16815260200190815260200160002054610422919061109a565b1115610463576040517f08c379a000000000000000000000000000000000000000000000000000000000815260040161045a9061111a565b60405180910390fd5b61047181633b9aca0061087e565b42600560003373ffffffffffffffffffffffffffffffffffffffff1673ffffffffffffffffffffffffffffffffffffffff1681526020019081526020016000208190555050565b60008060008373ffffffffffffffffffffffffffffffffffffffff1673ffffffffffffffffffffffffffffffffffffffff168152602001908152602001600020549050919050565b60606004805461050f9061103a565b80601f016020809104026020016040519081016040528092919081815260200182805461053b9061103a565b80156105885780601f1061055d57610100808354040283529160200191610588565b820191906000526020600020905b81548152906001019060200180831161056b57829003601f168201915b5050505050905090565b60056020528060005260406000206000915090505481565b6000806105b561065a565b90506105c2818585610708565b600191505092915050565b60065481565b6000600160008473ffffffffffffffffffffffffffffffffffffffff1673ffffffffffffffffffffffffffffffffffffffff16815260200190815260200160002060008373ffffffffffffffffffffffffffffffffffffffff1673ffffffffffffffffffffffffffffffffffffffff16815260200190815260200160002054905092915050565b600033905090565b61066f8383836001610900565b505050565b600061068084846105d3565b90507fffffffffffffffffffffffffffffffffffffffffffffffffffffffffffffffff811461070257818110156106f2578281836040517ffb8f41b20000000000000000000000000000000000000000000000000000000081526004016106e993929190611149565b60405180910390fd5b61070184848484036000610900565b5b50505050565b600073ffffffffffffffffffffffffffffffffffffffff168373ffffffffffffffffffffffffffffffffffffffff160361077a5760006040517f96c6fd1e0000000000000000000000000000000000000000000000000000000081526004016107719190611180565b60405180910390fd5b600073ffffffffffffffffffffffffffffffffffffffff168273ffffffffffffffffffffffffffffffffffffffff16036107ec5760006040517fec442f050000000000000000000000000000000000000000000000000000000081526004016107e39190611180565b60405180910390fd5b6107f7838383610ad7565b505050565b600073ffffffffffffffffffffffffffffffffffffffff168273ffffffffffffffffffffffffffffffffffffffff160361086e5760006040517f96c6fd1e0000000000000000000000000000000000000000000000000000000081526004016108659190611180565b60405180910390fd5b61087a82600083610ad7565b5050565b600073ffffffffffffffffffffffffffffffffffffffff168273ffffffffffffffffffffffffffffffffffffffff16036108f05760006040517fec442f050000000000000000000000000000000000000000000000000000000081526004016108e79190611180565b60405180910390fd5b6108fc60008383610ad7565b5050565b600073ffffffffffffffffffffffffffffffffffffffff168473ffffffffffffffffffffffffffffffffffffffff16036109725760006040517fe602df050000000000000000000000000000000000000000000000000000000081526004016109699190611180565b60405180910390fd5b600073ffffffffffffffffffffffffffffffffffffffff168373ffffffffffffffffffffffffffffffffffffffff16036109e45760006040517f94280d620000000000000000000000000000000000000000000000000000000081526004016109db9190611180565b60405180910390fd5b81600160008673ffffffffffffffffffffffffffffffffffffffff1673ffffffffffffffffffffffffffffffffffffffff16815260200190815260200160002060008573ffffffffffffffffffffffffffffffffffffffff1673ffffffffffffffffffffffffffffffffffffffff168152602001908152602001600020819055508015610ad1578273ffffffffffffffffffffffffffffffffffffffff168473ffffffffffffffffffffffffffffffffffffffff167f8c5be1e5ebec7d5bd14f71427d1e84f3dd0314c0f7b2291e5b200ac8c7c3b92584604051610ac89190610ecc565b60405180910390a35b50505050565b600073ffffffffffffffffffffffffffffffffffffffff168373ffffffffffffffffffffffffffffffffffffffff1603610b29578060026000828254610b1d919061109a565b92505081905550610bfc565b60008060008573ffffffffffffffffffffffffffffffffffffffff1673ffffffffffffffffffffffffffffffffffffffff16815260200190815260200160002054905081811015610bb5578381836040517fe450d38c000000000000000000000000000000000000000000000000000000008152600401610bac93929190611149565b60405180910390fd5b8181036000808673ffffffffffffffffffffffffffffffffffffffff1673ffffffffffffffffffffffffffffffffffffffff16815260200190815260200160002081905550505b600073ffffffffffffffffffffffffffffffffffffffff168273ffffffffffffffffffffffffffffffffffffffff1603610c455780600260008282540392505081905550610c92565b806000808473ffffffffffffffffffffffffffffffffffffffff1673ffffffffffffffffffffffffffffffffffffffff168152602001908152602001600020600082825401925050819055505b8173ffffffffffffffffffffffffffffffffffffffff168373ffffffffffffffffffffffffffffffffffffffff167fddf252ad1be2c89b69c2b068fc378daa952ba7f163c4a11628f55a4df523b3ef83604051610cef9190610ecc565b60405180910390a3505050565b600081519050919050565b600082825260208201905092915050565b60005b83811015610d36578082015181840152602081019050610d1b565b60008484015250505050565b6000601f19601f8301169050919050565b6000610d5e82610cfc565b610d688185610d07565b9350610d78818560208601610d18565b610d8181610d42565b840191505092915050565b60006020820190508181036000830152610da68184610d53565b905092915050565b600080fd5b600073ffffffffffffffffffffffffffffffffffffffff82169050919050565b6000610dde82610db3565b9050919050565b610dee81610dd3565b8114610df957600080fd5b50565b600081359050610e0b81610de5565b92915050565b6000819050919050565b610e2481610e11565b8114610e2f57600080fd5b50565b600081359050610e4181610e1b565b92915050565b60008060408385031215610e5e57610e5d610dae565b5b6000610e6c85828601610dfc565b9250506020610e7d85828601610e32565b9150509250929050565b60008115159050919050565b610e9c81610e87565b82525050565b6000602082019050610eb76000830184610e93565b92915050565b610ec681610e11565b82525050565b6000602082019050610ee16000830184610ebd565b92915050565b600080600060608486031215610f0057610eff610dae565b5b6000610f0e86828701610dfc565b9350506020610f1f86828701610dfc565b9250506040610f3086828701610e32565b9150509250925092565b600060ff82169050919050565b610f5081610f3a565b82525050565b6000602082019050610f6b6000830184610f47565b92915050565b600060208284031215610f8757610f86610dae565b5b6000610f9584828501610e32565b91505092915050565b600060208284031215610fb457610fb3610dae565b5b6000610fc284828501610dfc565b91505092915050565b60008060408385031215610fe257610fe1610dae565b5b6000610ff085828601610dfc565b925050602061100185828601610dfc565b9150509250929050565b7f4e487b7100000000000000000000000000000000000000000000000000000000600052602260045260246000fd5b6000600282049050600182168061105257607f821691505b6020821081036110655761106461100b565b5b50919050565b7f4e487b7100000000000000000000000000000000000000000000000000000000600052601160045260246000fd5b60006110a582610e11565b91506110b083610e11565b92508282019050808211156110c8576110c761106b565b5b92915050565b7f796f752063616e6074206d696e7420747769636520696e203320646179732100600082015250565b6000611104601f83610d07565b915061110f826110ce565b602082019050919050565b60006020820190508181036000830152611133816110f7565b9050919050565b61114381610dd3565b82525050565b600060608201905061115e600083018661113a565b61116b6020830185610ebd565b6111786040830184610ebd565b949350505050565b6000602082019050611195600083018461113a565b9291505056fea26469706673582212201fda7545c92d5d835fe9bc9b559627fbc59266d358f2922e312874b763f350b464736f6c63430008180033",
  "linkReferences": {},
  "deployedLinkReferences": {}
}